{
  "_format": "hh-sol-artifact-1",
  "contractName": "EventFactory",
  "sourceName": "contracts/EventFactory.sol",
  "abi": [
    {
      "inputs": [
        {
          "internalType": "address",
          "name": "_eventLogic",
          "type": "address"
        }
      ],
      "stateMutability": "nonpayable",
      "type": "constructor"
    },
    {
      "anonymous": false,
      "inputs": [
        {
          "indexed": false,
          "internalType": "address",
          "name": "",
          "type": "address"
        }
      ],
      "name": "EventCreated",
      "type": "event"
    },
    {
      "stateMutability": "payable",
      "type": "fallback"
    },
    {
      "inputs": [
        {
          "components": [
            {
              "internalType": "string",
              "name": "name",
              "type": "string"
            },
            {
              "internalType": "uint32",
              "name": "start",
              "type": "uint32"
            },
            {
              "internalType": "uint32",
              "name": "end",
              "type": "uint32"
            }
          ],
          "internalType": "struct IEventImplementation.EventData",
          "name": "_eventData",
          "type": "tuple"
        },
        {
          "internalType": "string[]",
          "name": "ticketTypes",
          "type": "string[]"
        },
        {
          "internalType": "uint256[]",
          "name": "supplies",
          "type": "uint256[]"
        },
        {
          "internalType": "uint256[]",
          "name": "prices",
          "type": "uint256[]"
        }
      ],
      "name": "createEvent",
      "outputs": [
        {
          "internalType": "address",
          "name": "",
          "type": "address"
        }
      ],
      "stateMutability": "nonpayable",
      "type": "function"
    },
    {
      "inputs": [],
      "name": "getEventBeacon",
      "outputs": [
        {
          "internalType": "address",
          "name": "",
          "type": "address"
        }
      ],
      "stateMutability": "view",
      "type": "function"
    },
    {
      "stateMutability": "payable",
      "type": "receive"
    }
  ],
  "bytecode": "0x60a06040523480156200001157600080fd5b50604051620028de380380620028de833981810160405281019062000037919062000193565b8060405162000046906200011b565b620000529190620001d6565b604051809103906000f0801580156200006f573d6000803e3d6000fd5b5073ffffffffffffffffffffffffffffffffffffffff1660808173ffffffffffffffffffffffffffffffffffffffff168152505060805173ffffffffffffffffffffffffffffffffffffffff1663f2fde38b336040518263ffffffff1660e01b8152600401620000e09190620001d6565b600060405180830381600087803b158015620000fb57600080fd5b505af115801562000110573d6000803e3d6000fd5b5050505050620001f3565b6109cb8062001f1383390190565b600080fd5b600073ffffffffffffffffffffffffffffffffffffffff82169050919050565b60006200015b826200012e565b9050919050565b6200016d816200014e565b81146200017957600080fd5b50565b6000815190506200018d8162000162565b92915050565b600060208284031215620001ac57620001ab62000129565b5b6000620001bc848285016200017c565b91505092915050565b620001d0816200014e565b82525050565b6000602082019050620001ed6000830184620001c5565b92915050565b608051611cfd620002166000396000818161019001526103180152611cfd6000f3fe608060405260043610620000315760003560e01c8063521df705146200003b578063cbf71129146200007f5762000039565b366200003957005b005b3480156200004857600080fd5b5062000067600480360381019062000061919062000a80565b620000af565b60405162000076919062000bb3565b60405180910390f35b3480156200008c57600080fd5b506200009762000314565b604051620000a6919062000bb3565b60405180910390f35b6000620000bd6000620003ad565b6000620000d5620000cf6000620003c3565b620003d1565b604051602001620000e7919062000c6f565b60405160208183030381529060405290506000816040516024016200010d919062000d3b565b6040516020818303038152906040527f4cd88b76000000000000000000000000000000000000000000000000000000007bffffffffffffffffffffffffffffffffffffffffffffffffffffffff19166020820180517bffffffffffffffffffffffffffffffffffffffffffffffffffffffff8381831617835250505050905060007f000000000000000000000000000000000000000000000000000000000000000082604051620001be9062000616565b620001cb92919062000dd1565b604051809103906000f080158015620001e8573d6000803e3d6000fd5b5090508073ffffffffffffffffffffffffffffffffffffffff166390ac6813896040518263ffffffff1660e01b815260040162000226919062000ebe565b600060405180830381600087803b1580156200024157600080fd5b505af115801562000256573d6000803e3d6000fd5b505050508073ffffffffffffffffffffffffffffffffffffffff16634934b73e8888886040518463ffffffff1660e01b8152600401620002999392919062001080565b600060405180830381600087803b158015620002b457600080fd5b505af1158015620002c9573d6000803e3d6000fd5b505050507ffc8a4c0621b9788c4dbe57053a51ce2d22625a067d039f38004df2a07ca755a481604051620002fe919062000bb3565b60405180910390a1809350505050949350505050565b60007f000000000000000000000000000000000000000000000000000000000000000073ffffffffffffffffffffffffffffffffffffffff16635c60da1b6040518163ffffffff1660e01b8152600401602060405180830381865afa15801562000382573d6000803e3d6000fd5b505050506040513d601f19601f82011682018060405250810190620003a8919062001103565b905090565b6001816000016000828254019250508190555050565b600081600001549050919050565b606060006001620003e284620004aa565b01905060008167ffffffffffffffff8111156200040457620004036200064e565b5b6040519080825280601f01601f191660200182016040528015620004375781602001600182028036833780820191505090505b509050600082602001820190505b6001156200049f578080600190039150507f3031323334353637383961626364656600000000000000000000000000000000600a86061a8153600a858162000492576200049162001135565b5b0494506000850362000445575b819350505050919050565b600080600090507a184f03e93ff9f4daa797ed6e38ed64bf6a1f01000000000000000083106200050c577a184f03e93ff9f4daa797ed6e38ed64bf6a1f010000000000000000838162000502576200050162001135565b5b0492506040810190505b6d04ee2d6d415b85acef810000000083106200054d576d04ee2d6d415b85acef8100000000838162000543576200054262001135565b5b0492506020810190505b662386f26fc1000083106200058057662386f26fc10000838162000576576200057562001135565b5b0492506010810190505b6305f5e1008310620005ad576305f5e1008381620005a357620005a262001135565b5b0492506008810190505b6127108310620005d6576127108381620005cc57620005cb62001135565b5b0492506004810190505b60648310620005fd5760648381620005f357620005f262001135565b5b0492506002810190505b600a83106200060d576001810190505b80915050919050565b610b63806200116583390190565b6000604051905090565b600080fd5b600080fd5b600080fd5b6000601f19601f8301169050919050565b7f4e487b7100000000000000000000000000000000000000000000000000000000600052604160045260246000fd5b62000688826200063d565b810181811067ffffffffffffffff82111715620006aa57620006a96200064e565b5b80604052505050565b6000620006bf62000624565b9050620006cd82826200067d565b919050565b600080fd5b600080fd5b600080fd5b600067ffffffffffffffff821115620006ff57620006fe6200064e565b5b6200070a826200063d565b9050602081019050919050565b82818337600083830152505050565b60006200073d6200073784620006e1565b620006b3565b9050828152602081018484840111156200075c576200075b620006dc565b5b6200076984828562000717565b509392505050565b600082601f830112620007895762000788620006d7565b5b81356200079b84826020860162000726565b91505092915050565b600063ffffffff82169050919050565b620007bf81620007a4565b8114620007cb57600080fd5b50565b600081359050620007df81620007b4565b92915050565b600060608284031215620007fe57620007fd62000638565b5b6200080a6060620006b3565b9050600082013567ffffffffffffffff8111156200082d576200082c620006d2565b5b6200083b8482850162000771565b60008301525060206200085184828501620007ce565b60208301525060406200086784828501620007ce565b60408301525092915050565b600067ffffffffffffffff8211156200089157620008906200064e565b5b602082029050602081019050919050565b600080fd5b6000620008be620008b88462000873565b620006b3565b90508083825260208201905060208402830185811115620008e457620008e3620008a2565b5b835b818110156200093257803567ffffffffffffffff8111156200090d576200090c620006d7565b5b8086016200091c898262000771565b85526020850194505050602081019050620008e6565b5050509392505050565b600082601f830112620009545762000953620006d7565b5b813562000966848260208601620008a7565b91505092915050565b600067ffffffffffffffff8211156200098d576200098c6200064e565b5b602082029050602081019050919050565b6000819050919050565b620009b3816200099e565b8114620009bf57600080fd5b50565b600081359050620009d381620009a8565b92915050565b6000620009f0620009ea846200096f565b620006b3565b9050808382526020820190506020840283018581111562000a165762000a15620008a2565b5b835b8181101562000a43578062000a2e8882620009c2565b84526020840193505060208101905062000a18565b5050509392505050565b600082601f83011262000a655762000a64620006d7565b5b813562000a77848260208601620009d9565b91505092915050565b6000806000806080858703121562000a9d5762000a9c6200062e565b5b600085013567ffffffffffffffff81111562000abe5762000abd62000633565b5b62000acc87828801620007e5565b945050602085013567ffffffffffffffff81111562000af05762000aef62000633565b5b62000afe878288016200093c565b935050604085013567ffffffffffffffff81111562000b225762000b2162000633565b5b62000b308782880162000a4d565b925050606085013567ffffffffffffffff81111562000b545762000b5362000633565b5b62000b628782880162000a4d565b91505092959194509250565b600073ffffffffffffffffffffffffffffffffffffffff82169050919050565b600062000b9b8262000b6e565b9050919050565b62000bad8162000b8e565b82525050565b600060208201905062000bca600083018462000ba2565b92915050565b7f53686f7773746172746572204576656e74200000000000000000000000000000815250565b600081519050919050565b600081905092915050565b60005b8381101562000c2c57808201518184015260208101905062000c0f565b60008484015250505050565b600062000c458262000bf6565b62000c51818562000c01565b935062000c6381856020860162000c0c565b80840191505092915050565b600062000c7c8262000bd0565b60128201915062000c8e828462000c38565b915081905092915050565b600082825260208201905092915050565b600062000cb78262000bf6565b62000cc3818562000c99565b935062000cd581856020860162000c0c565b62000ce0816200063d565b840191505092915050565b7f53484f5700000000000000000000000000000000000000000000000000000000600082015250565b600062000d2360048362000c99565b915062000d308262000ceb565b602082019050919050565b6000604082019050818103600083015262000d57818462000caa565b9050818103602083015262000d6c8162000d14565b905092915050565b600081519050919050565b600082825260208201905092915050565b600062000d9d8262000d74565b62000da9818562000d7f565b935062000dbb81856020860162000c0c565b62000dc6816200063d565b840191505092915050565b600060408201905062000de8600083018562000ba2565b818103602083015262000dfc818462000d90565b90509392505050565b600082825260208201905092915050565b600062000e238262000bf6565b62000e2f818562000e05565b935062000e4181856020860162000c0c565b62000e4c816200063d565b840191505092915050565b62000e6281620007a4565b82525050565b6000606083016000830151848203600086015262000e87828262000e16565b915050602083015162000e9e602086018262000e57565b50604083015162000eb3604086018262000e57565b508091505092915050565b6000602082019050818103600083015262000eda818462000e68565b905092915050565b600081519050919050565b600082825260208201905092915050565b6000819050602082019050919050565b600062000f1c838362000e16565b905092915050565b6000602082019050919050565b600062000f3e8262000ee2565b62000f4a818562000eed565b93508360208202850162000f5e8562000efe565b8060005b8581101562000fa0578484038952815162000f7e858262000f0e565b945062000f8b8362000f24565b925060208a0199505060018101905062000f62565b50829750879550505050505092915050565b600081519050919050565b600082825260208201905092915050565b6000819050602082019050919050565b62000fe9816200099e565b82525050565b600062000ffd838362000fde565b60208301905092915050565b6000602082019050919050565b6000620010238262000fb2565b6200102f818562000fbd565b93506200103c8362000fce565b8060005b838110156200107357815162001057888262000fef565b9750620010648362001009565b92505060018101905062001040565b5085935050505092915050565b600060608201905081810360008301526200109c818662000f31565b90508181036020830152620010b2818562001016565b90508181036040830152620010c8818462001016565b9050949350505050565b620010dd8162000b8e565b8114620010e957600080fd5b50565b600081519050620010fd81620010d2565b92915050565b6000602082840312156200111c576200111b6200062e565b5b60006200112c84828501620010ec565b91505092915050565b7f4e487b7100000000000000000000000000000000000000000000000000000000600052601260045260246000fdfe608060405260405162000b6338038062000b638339818101604052810190610027919061063b565b6100398282600061004060201b60201c565b5050610929565b61004f8361012960201b60201c565b8273ffffffffffffffffffffffffffffffffffffffff167f1cf3b03a6cf19fa2baba4df148e9dcabedea7f8a5c07840e207e5c089be95d3e60405160405180910390a260008251118061009f5750805b15610124576101228373ffffffffffffffffffffffffffffffffffffffff16635c60da1b6040518163ffffffff1660e01b8152600401602060405180830381865afa1580156100f2573d6000803e3d6000fd5b505050506040513d601f19601f820116820180604052508101906101169190610697565b836102aa60201b60201c565b505b505050565b610138816102de60201b60201c565b610177576040517f08c379a000000000000000000000000000000000000000000000000000000000815260040161016e90610747565b60405180910390fd5b6101f48173ffffffffffffffffffffffffffffffffffffffff16635c60da1b6040518163ffffffff1660e01b8152600401602060405180830381865afa1580156101c5573d6000803e3d6000fd5b505050506040513d601f19601f820116820180604052508101906101e99190610697565b6102de60201b60201c565b610233576040517f08c379a000000000000000000000000000000000000000000000000000000000815260040161022a906107d9565b60405180910390fd5b806102667fa3f0ad74e5423aebfd80d3ef4346578335a9a72aeaee59ff6cb3582b35133d5060001b61030160201b60201c565b60000160006101000a81548173ffffffffffffffffffffffffffffffffffffffff021916908373ffffffffffffffffffffffffffffffffffffffff16021790555050565b60606102d6838360405180606001604052806027815260200162000b3c6027913961030b60201b60201c565b905092915050565b6000808273ffffffffffffffffffffffffffffffffffffffff163b119050919050565b6000819050919050565b60606000808573ffffffffffffffffffffffffffffffffffffffff16856040516103359190610840565b600060405180830381855af49150503d8060008114610370576040519150601f19603f3d011682016040523d82523d6000602084013e610375565b606091505b509150915061038c8683838761039760201b60201c565b925050509392505050565b606083156103ff5760008351036103f7576103b7856102de60201b60201c565b6103f6576040517f08c379a00000000000000000000000000000000000000000000000000000000081526004016103ed906108a3565b60405180910390fd5b5b829050610410565b61040f838361041860201b60201c565b5b949350505050565b60008251111561042b5781518083602001fd5b806040517f08c379a000000000000000000000000000000000000000000000000000000000815260040161045f9190610907565b60405180910390fd5b6000604051905090565b600080fd5b600080fd5b600073ffffffffffffffffffffffffffffffffffffffff82169050919050565b60006104a78261047c565b9050919050565b6104b78161049c565b81146104c257600080fd5b50565b6000815190506104d4816104ae565b92915050565b600080fd5b600080fd5b6000601f19601f8301169050919050565b7f4e487b7100000000000000000000000000000000000000000000000000000000600052604160045260246000fd5b61052d826104e4565b810181811067ffffffffffffffff8211171561054c5761054b6104f5565b5b80604052505050565b600061055f610468565b905061056b8282610524565b919050565b600067ffffffffffffffff82111561058b5761058a6104f5565b5b610594826104e4565b9050602081019050919050565b60005b838110156105bf5780820151818401526020810190506105a4565b60008484015250505050565b60006105de6105d984610570565b610555565b9050828152602081018484840111156105fa576105f96104df565b5b6106058482856105a1565b509392505050565b600082601f830112610622576106216104da565b5b81516106328482602086016105cb565b91505092915050565b6000806040838503121561065257610651610472565b5b6000610660858286016104c5565b925050602083015167ffffffffffffffff81111561068157610680610477565b5b61068d8582860161060d565b9150509250929050565b6000602082840312156106ad576106ac610472565b5b60006106bb848285016104c5565b91505092915050565b600082825260208201905092915050565b7f455243313936373a206e657720626561636f6e206973206e6f74206120636f6e60008201527f7472616374000000000000000000000000000000000000000000000000000000602082015250565b60006107316025836106c4565b915061073c826106d5565b604082019050919050565b6000602082019050818103600083015261076081610724565b9050919050565b7f455243313936373a20626561636f6e20696d706c656d656e746174696f6e206960008201527f73206e6f74206120636f6e747261637400000000000000000000000000000000602082015250565b60006107c36030836106c4565b91506107ce82610767565b604082019050919050565b600060208201905081810360008301526107f2816107b6565b9050919050565b600081519050919050565b600081905092915050565b600061081a826107f9565b6108248185610804565b93506108348185602086016105a1565b80840191505092915050565b600061084c828461080f565b915081905092915050565b7f416464726573733a2063616c6c20746f206e6f6e2d636f6e7472616374000000600082015250565b600061088d601d836106c4565b915061089882610857565b602082019050919050565b600060208201905081810360008301526108bc81610880565b9050919050565b600081519050919050565b60006108d9826108c3565b6108e381856106c4565b93506108f38185602086016105a1565b6108fc816104e4565b840191505092915050565b6000602082019050818103600083015261092181846108ce565b905092915050565b61020380620009396000396000f3fe6080604052366100135761001161001d565b005b61001b61001d565b005b610025610037565b610035610030610039565b6100b6565b565b565b60006100436100dc565b73ffffffffffffffffffffffffffffffffffffffff16635c60da1b6040518163ffffffff1660e01b8152600401602060405180830381865afa15801561008d573d6000803e3d6000fd5b505050506040513d601f19601f820116820180604052508101906100b191906101a0565b905090565b3660008037600080366000845af43d6000803e80600081146100d7573d6000f35b3d6000fd5b600061010a7fa3f0ad74e5423aebfd80d3ef4346578335a9a72aeaee59ff6cb3582b35133d5060001b610133565b60000160009054906101000a900473ffffffffffffffffffffffffffffffffffffffff16905090565b6000819050919050565b600080fd5b600073ffffffffffffffffffffffffffffffffffffffff82169050919050565b600061016d82610142565b9050919050565b61017d81610162565b811461018857600080fd5b50565b60008151905061019a81610174565b92915050565b6000602082840312156101b6576101b561013d565b5b60006101c48482850161018b565b9150509291505056fea26469706673582212209c7d2e055492abcb1a3cc5398e84f113066ba35440bdd386e8ddc979f7df4d4764736f6c63430008130033416464726573733a206c6f772d6c6576656c2064656c65676174652063616c6c206661696c6564a26469706673582212206b4ae5ee004f3f806bf3e5ceadbda27ddd0eb70ac3cff8620b3b1b7ffed3182364736f6c63430008130033608060405234801561001057600080fd5b506040516109cb3803806109cb83398181016040528101906100329190610247565b61004e61004361006360201b60201c565b61006b60201b60201c565b61005d8161012f60201b60201c565b50610317565b600033905090565b60008060009054906101000a900473ffffffffffffffffffffffffffffffffffffffff169050816000806101000a81548173ffffffffffffffffffffffffffffffffffffffff021916908373ffffffffffffffffffffffffffffffffffffffff1602179055508173ffffffffffffffffffffffffffffffffffffffff168173ffffffffffffffffffffffffffffffffffffffff167f8be0079c531659141344cd1fd0a4f28419497f9722a3daafe3b4186f6b6457e060405160405180910390a35050565b61013e816101c160201b60201c565b61017d576040517f08c379a0000000000000000000000000000000000000000000000000000000008152600401610174906102f7565b60405180910390fd5b80600160006101000a81548173ffffffffffffffffffffffffffffffffffffffff021916908373ffffffffffffffffffffffffffffffffffffffff16021790555050565b6000808273ffffffffffffffffffffffffffffffffffffffff163b119050919050565b600080fd5b600073ffffffffffffffffffffffffffffffffffffffff82169050919050565b6000610214826101e9565b9050919050565b61022481610209565b811461022f57600080fd5b50565b6000815190506102418161021b565b92915050565b60006020828403121561025d5761025c6101e4565b5b600061026b84828501610232565b91505092915050565b600082825260208201905092915050565b7f5570677261646561626c65426561636f6e3a20696d706c656d656e746174696f60008201527f6e206973206e6f74206120636f6e747261637400000000000000000000000000602082015250565b60006102e1603383610274565b91506102ec82610285565b604082019050919050565b60006020820190508181036000830152610310816102d4565b9050919050565b6106a5806103266000396000f3fe608060405234801561001057600080fd5b50600436106100575760003560e01c80633659cfe61461005c5780635c60da1b14610078578063715018a6146100965780638da5cb5b146100a0578063f2fde38b146100be575b600080fd5b61007660048036038101906100719190610477565b6100da565b005b610080610131565b60405161008d91906104b3565b60405180910390f35b61009e61015b565b005b6100a861016f565b6040516100b591906104b3565b60405180910390f35b6100d860048036038101906100d39190610477565b610198565b005b6100e261021b565b6100eb81610299565b8073ffffffffffffffffffffffffffffffffffffffff167fbc7cd75a20ee27fd9adebab32041f755214dbc6bffa90cc0225b39da2e5c2d3b60405160405180910390a250565b6000600160009054906101000a900473ffffffffffffffffffffffffffffffffffffffff16905090565b61016361021b565b61016d6000610325565b565b60008060009054906101000a900473ffffffffffffffffffffffffffffffffffffffff16905090565b6101a061021b565b600073ffffffffffffffffffffffffffffffffffffffff168173ffffffffffffffffffffffffffffffffffffffff160361020f576040517f08c379a000000000000000000000000000000000000000000000000000000000815260040161020690610551565b60405180910390fd5b61021881610325565b50565b6102236103e9565b73ffffffffffffffffffffffffffffffffffffffff1661024161016f565b73ffffffffffffffffffffffffffffffffffffffff1614610297576040517f08c379a000000000000000000000000000000000000000000000000000000000815260040161028e906105bd565b60405180910390fd5b565b6102a2816103f1565b6102e1576040517f08c379a00000000000000000000000000000000000000000000000000000000081526004016102d89061064f565b60405180910390fd5b80600160006101000a81548173ffffffffffffffffffffffffffffffffffffffff021916908373ffffffffffffffffffffffffffffffffffffffff16021790555050565b60008060009054906101000a900473ffffffffffffffffffffffffffffffffffffffff169050816000806101000a81548173ffffffffffffffffffffffffffffffffffffffff021916908373ffffffffffffffffffffffffffffffffffffffff1602179055508173ffffffffffffffffffffffffffffffffffffffff168173ffffffffffffffffffffffffffffffffffffffff167f8be0079c531659141344cd1fd0a4f28419497f9722a3daafe3b4186f6b6457e060405160405180910390a35050565b600033905090565b6000808273ffffffffffffffffffffffffffffffffffffffff163b119050919050565b600080fd5b600073ffffffffffffffffffffffffffffffffffffffff82169050919050565b600061044482610419565b9050919050565b61045481610439565b811461045f57600080fd5b50565b6000813590506104718161044b565b92915050565b60006020828403121561048d5761048c610414565b5b600061049b84828501610462565b91505092915050565b6104ad81610439565b82525050565b60006020820190506104c860008301846104a4565b92915050565b600082825260208201905092915050565b7f4f776e61626c653a206e6577206f776e657220697320746865207a65726f206160008201527f6464726573730000000000000000000000000000000000000000000000000000602082015250565b600061053b6026836104ce565b9150610546826104df565b604082019050919050565b6000602082019050818103600083015261056a8161052e565b9050919050565b7f4f776e61626c653a2063616c6c6572206973206e6f7420746865206f776e6572600082015250565b60006105a76020836104ce565b91506105b282610571565b602082019050919050565b600060208201905081810360008301526105d68161059a565b9050919050565b7f5570677261646561626c65426561636f6e3a20696d706c656d656e746174696f60008201527f6e206973206e6f74206120636f6e747261637400000000000000000000000000602082015250565b60006106396033836104ce565b9150610644826105dd565b604082019050919050565b600060208201905081810360008301526106688161062c565b905091905056fea2646970667358221220ff7ce75c6a2b5d4c6a6930af6135818bacf12edb52dcefcb722be1fa345161d064736f6c63430008130033",
  "linkReferences": {},
  "deployedLinkReferences": {}
}