{
  "_format": "hh-sol-artifact-1",
  "contractName": "EventFactory",
  "sourceName": "contracts/EventFactory.sol",
  "abi": [
    {
      "inputs": [],
      "stateMutability": "nonpayable",
      "type": "constructor"
    },
    {
      "anonymous": false,
      "inputs": [
        {
          "indexed": true,
          "internalType": "address",
          "name": "owner",
          "type": "address"
        },
        {
          "indexed": true,
          "internalType": "address",
          "name": "approved",
          "type": "address"
        },
        {
          "indexed": true,
          "internalType": "uint256",
          "name": "tokenId",
          "type": "uint256"
        }
      ],
      "name": "Approval",
      "type": "event"
    },
    {
      "anonymous": false,
      "inputs": [
        {
          "indexed": true,
          "internalType": "address",
          "name": "owner",
          "type": "address"
        },
        {
          "indexed": true,
          "internalType": "address",
          "name": "operator",
          "type": "address"
        },
        {
          "indexed": false,
          "internalType": "bool",
          "name": "approved",
          "type": "bool"
        }
      ],
      "name": "ApprovalForAll",
      "type": "event"
    },
    {
      "anonymous": false,
      "inputs": [
        {
          "indexed": false,
          "internalType": "uint256",
          "name": "_fromTokenId",
          "type": "uint256"
        },
        {
          "indexed": false,
          "internalType": "uint256",
          "name": "_toTokenId",
          "type": "uint256"
        }
      ],
      "name": "BatchMetadataUpdate",
      "type": "event"
    },
    {
      "anonymous": false,
      "inputs": [
        {
          "indexed": false,
          "internalType": "uint256",
          "name": "eventId",
          "type": "uint256"
        }
      ],
      "name": "EventCreated",
      "type": "event"
    },
    {
      "anonymous": false,
      "inputs": [
        {
          "indexed": false,
          "internalType": "uint256",
          "name": "_tokenId",
          "type": "uint256"
        }
      ],
      "name": "MetadataUpdate",
      "type": "event"
    },
    {
      "anonymous": false,
      "inputs": [
        {
          "indexed": true,
          "internalType": "address",
          "name": "previousOwner",
          "type": "address"
        },
        {
          "indexed": true,
          "internalType": "address",
          "name": "newOwner",
          "type": "address"
        }
      ],
      "name": "OwnershipTransferred",
      "type": "event"
    },
    {
      "anonymous": false,
      "inputs": [
        {
          "indexed": true,
          "internalType": "address",
          "name": "from",
          "type": "address"
        },
        {
          "indexed": true,
          "internalType": "address",
          "name": "to",
          "type": "address"
        },
        {
          "indexed": true,
          "internalType": "uint256",
          "name": "tokenId",
          "type": "uint256"
        }
      ],
      "name": "Transfer",
      "type": "event"
    },
    {
      "stateMutability": "payable",
      "type": "fallback"
    },
    {
      "inputs": [
        {
          "internalType": "address",
          "name": "to",
          "type": "address"
        },
        {
          "internalType": "uint256",
          "name": "tokenId",
          "type": "uint256"
        }
      ],
      "name": "approve",
      "outputs": [],
      "stateMutability": "nonpayable",
      "type": "function"
    },
    {
      "inputs": [
        {
          "internalType": "address",
          "name": "owner",
          "type": "address"
        }
      ],
      "name": "balanceOf",
      "outputs": [
        {
          "internalType": "uint256",
          "name": "",
          "type": "uint256"
        }
      ],
      "stateMutability": "view",
      "type": "function"
    },
    {
      "inputs": [
        {
          "components": [
            {
              "internalType": "uint16",
              "name": "price",
              "type": "uint16"
            },
            {
              "internalType": "string",
              "name": "name",
              "type": "string"
            }
          ],
          "internalType": "struct EventFactory.EventData",
          "name": "_eventData",
          "type": "tuple"
        }
      ],
      "name": "createEvent",
      "outputs": [],
      "stateMutability": "nonpayable",
      "type": "function"
    },
    {
      "inputs": [],
      "name": "eventIdCounter",
      "outputs": [
        {
          "internalType": "uint256",
          "name": "_value",
          "type": "uint256"
        }
      ],
      "stateMutability": "view",
      "type": "function"
    },
    {
      "inputs": [
        {
          "internalType": "uint256",
          "name": "tokenId",
          "type": "uint256"
        }
      ],
      "name": "getApproved",
      "outputs": [
        {
          "internalType": "address",
          "name": "",
          "type": "address"
        }
      ],
      "stateMutability": "view",
      "type": "function"
    },
    {
      "inputs": [
        {
          "internalType": "uint256",
          "name": "",
          "type": "uint256"
        }
      ],
      "name": "idToEvent",
      "outputs": [
        {
          "internalType": "uint16",
          "name": "price",
          "type": "uint16"
        },
        {
          "internalType": "string",
          "name": "name",
          "type": "string"
        }
      ],
      "stateMutability": "view",
      "type": "function"
    },
    {
      "inputs": [
        {
          "internalType": "address",
          "name": "owner",
          "type": "address"
        },
        {
          "internalType": "address",
          "name": "operator",
          "type": "address"
        }
      ],
      "name": "isApprovedForAll",
      "outputs": [
        {
          "internalType": "bool",
          "name": "",
          "type": "bool"
        }
      ],
      "stateMutability": "view",
      "type": "function"
    },
    {
      "inputs": [],
      "name": "name",
      "outputs": [
        {
          "internalType": "string",
          "name": "",
          "type": "string"
        }
      ],
      "stateMutability": "view",
      "type": "function"
    },
    {
      "inputs": [],
      "name": "owner",
      "outputs": [
        {
          "internalType": "address",
          "name": "",
          "type": "address"
        }
      ],
      "stateMutability": "view",
      "type": "function"
    },
    {
      "inputs": [
        {
          "internalType": "uint256",
          "name": "tokenId",
          "type": "uint256"
        }
      ],
      "name": "ownerOf",
      "outputs": [
        {
          "internalType": "address",
          "name": "",
          "type": "address"
        }
      ],
      "stateMutability": "view",
      "type": "function"
    },
    {
      "inputs": [],
      "name": "renounceOwnership",
      "outputs": [],
      "stateMutability": "nonpayable",
      "type": "function"
    },
    {
      "inputs": [
        {
          "internalType": "address",
          "name": "to",
          "type": "address"
        },
        {
          "internalType": "string",
          "name": "uri",
          "type": "string"
        }
      ],
      "name": "safeMint",
      "outputs": [],
      "stateMutability": "nonpayable",
      "type": "function"
    },
    {
      "inputs": [
        {
          "internalType": "address",
          "name": "from",
          "type": "address"
        },
        {
          "internalType": "address",
          "name": "to",
          "type": "address"
        },
        {
          "internalType": "uint256",
          "name": "tokenId",
          "type": "uint256"
        }
      ],
      "name": "safeTransferFrom",
      "outputs": [],
      "stateMutability": "nonpayable",
      "type": "function"
    },
    {
      "inputs": [
        {
          "internalType": "address",
          "name": "from",
          "type": "address"
        },
        {
          "internalType": "address",
          "name": "to",
          "type": "address"
        },
        {
          "internalType": "uint256",
          "name": "tokenId",
          "type": "uint256"
        },
        {
          "internalType": "bytes",
          "name": "data",
          "type": "bytes"
        }
      ],
      "name": "safeTransferFrom",
      "outputs": [],
      "stateMutability": "nonpayable",
      "type": "function"
    },
    {
      "inputs": [
        {
          "internalType": "address",
          "name": "operator",
          "type": "address"
        },
        {
          "internalType": "bool",
          "name": "approved",
          "type": "bool"
        }
      ],
      "name": "setApprovalForAll",
      "outputs": [],
      "stateMutability": "nonpayable",
      "type": "function"
    },
    {
      "inputs": [
        {
          "internalType": "bytes4",
          "name": "interfaceId",
          "type": "bytes4"
        }
      ],
      "name": "supportsInterface",
      "outputs": [
        {
          "internalType": "bool",
          "name": "",
          "type": "bool"
        }
      ],
      "stateMutability": "view",
      "type": "function"
    },
    {
      "inputs": [],
      "name": "symbol",
      "outputs": [
        {
          "internalType": "string",
          "name": "",
          "type": "string"
        }
      ],
      "stateMutability": "view",
      "type": "function"
    },
    {
      "inputs": [],
      "name": "tokenIdCounter",
      "outputs": [
        {
          "internalType": "uint256",
          "name": "_value",
          "type": "uint256"
        }
      ],
      "stateMutability": "view",
      "type": "function"
    },
    {
      "inputs": [
        {
          "internalType": "uint256",
          "name": "tokenId",
          "type": "uint256"
        }
      ],
      "name": "tokenURI",
      "outputs": [
        {
          "internalType": "string",
          "name": "",
          "type": "string"
        }
      ],
      "stateMutability": "view",
      "type": "function"
    },
    {
      "inputs": [
        {
          "internalType": "address",
          "name": "from",
          "type": "address"
        },
        {
          "internalType": "address",
          "name": "to",
          "type": "address"
        },
        {
          "internalType": "uint256",
          "name": "tokenId",
          "type": "uint256"
        }
      ],
      "name": "transferFrom",
      "outputs": [],
      "stateMutability": "nonpayable",
      "type": "function"
    },
    {
      "inputs": [
        {
          "internalType": "address",
          "name": "newOwner",
          "type": "address"
        }
      ],
      "name": "transferOwnership",
      "outputs": [],
      "stateMutability": "nonpayable",
      "type": "function"
    },
    {
      "stateMutability": "payable",
      "type": "receive"
    }
  ],
  "bytecode": "0x60806040523480156200001157600080fd5b506040518060400160405280601281526020017f53686f7773746172746572204576656e747300000000000000000000000000008152506040518060400160405280600481526020017f53484f570000000000000000000000000000000000000000000000000000000081525081600090816200008f919062000412565b508060019081620000a1919062000412565b505050620000c4620000b8620000ca60201b60201c565b620000d260201b60201c565b620004f9565b600033905090565b6000600760009054906101000a900473ffffffffffffffffffffffffffffffffffffffff16905081600760006101000a81548173ffffffffffffffffffffffffffffffffffffffff021916908373ffffffffffffffffffffffffffffffffffffffff1602179055508173ffffffffffffffffffffffffffffffffffffffff168173ffffffffffffffffffffffffffffffffffffffff167f8be0079c531659141344cd1fd0a4f28419497f9722a3daafe3b4186f6b6457e060405160405180910390a35050565b600081519050919050565b7f4e487b7100000000000000000000000000000000000000000000000000000000600052604160045260246000fd5b7f4e487b7100000000000000000000000000000000000000000000000000000000600052602260045260246000fd5b600060028204905060018216806200021a57607f821691505b60208210810362000230576200022f620001d2565b5b50919050565b60008190508160005260206000209050919050565b60006020601f8301049050919050565b600082821b905092915050565b6000600883026200029a7fffffffffffffffffffffffffffffffffffffffffffffffffffffffffffffffff826200025b565b620002a686836200025b565b95508019841693508086168417925050509392505050565b6000819050919050565b6000819050919050565b6000620002f3620002ed620002e784620002be565b620002c8565b620002be565b9050919050565b6000819050919050565b6200030f83620002d2565b620003276200031e82620002fa565b84845462000268565b825550505050565b600090565b6200033e6200032f565b6200034b81848462000304565b505050565b5b8181101562000373576200036760008262000334565b60018101905062000351565b5050565b601f821115620003c2576200038c8162000236565b62000397846200024b565b81016020851015620003a7578190505b620003bf620003b6856200024b565b83018262000350565b50505b505050565b600082821c905092915050565b6000620003e760001984600802620003c7565b1980831691505092915050565b6000620004028383620003d4565b9150826002028217905092915050565b6200041d8262000198565b67ffffffffffffffff811115620004395762000438620001a3565b5b62000445825462000201565b6200045282828562000377565b600060209050601f8311600181146200048a576000841562000475578287015190505b620004818582620003f4565b865550620004f1565b601f1984166200049a8662000236565b60005b82811015620004c4578489015182556001820191506020850194506020810190506200049d565b86831015620004e45784890151620004e0601f891682620003d4565b8355505b6001600288020188555050505b505050505050565b61350580620005096000396000f3fe60806040526004361061012e5760003560e01c806395d89b41116100ab578063d204c45e1161006f578063d204c45e146103f8578063d46bae4b14610421578063e01a0ebe1461045f578063e985e9c51461048a578063f2fde38b146104c7578063f7aa22de146104f057610135565b806395d89b411461031357806398bdf6f51461033e578063a22cb46514610369578063b88d4fde14610392578063c87b56dd146103bb57610135565b806342842e0e116100f257806342842e0e1461022e5780636352211e1461025757806370a0823114610294578063715018a6146102d15780638da5cb5b146102e857610135565b806301ffc9a71461013757806306fdde0314610174578063081812fc1461019f578063095ea7b3146101dc57806323b872dd1461020557610135565b3661013557005b005b34801561014357600080fd5b5061015e60048036038101906101599190612158565b610519565b60405161016b91906121a0565b60405180910390f35b34801561018057600080fd5b5061018961052b565b604051610196919061224b565b60405180910390f35b3480156101ab57600080fd5b506101c660048036038101906101c191906122a3565b6105bd565b6040516101d39190612311565b60405180910390f35b3480156101e857600080fd5b5061020360048036038101906101fe9190612358565b610603565b005b34801561021157600080fd5b5061022c60048036038101906102279190612398565b61071a565b005b34801561023a57600080fd5b5061025560048036038101906102509190612398565b61077a565b005b34801561026357600080fd5b5061027e600480360381019061027991906122a3565b61079a565b60405161028b9190612311565b60405180910390f35b3480156102a057600080fd5b506102bb60048036038101906102b691906123eb565b610820565b6040516102c89190612427565b60405180910390f35b3480156102dd57600080fd5b506102e66108d7565b005b3480156102f457600080fd5b506102fd6108eb565b60405161030a9190612311565b60405180910390f35b34801561031f57600080fd5b50610328610915565b604051610335919061224b565b60405180910390f35b34801561034a57600080fd5b506103536109a7565b6040516103609190612427565b60405180910390f35b34801561037557600080fd5b50610390600480360381019061038b919061246e565b6109b3565b005b34801561039e57600080fd5b506103b960048036038101906103b491906125e3565b6109c9565b005b3480156103c757600080fd5b506103e260048036038101906103dd91906122a3565b610a2b565b6040516103ef919061224b565b60405180910390f35b34801561040457600080fd5b5061041f600480360381019061041a9190612707565b610a3d565b005b34801561042d57600080fd5b50610448600480360381019061044391906122a3565b610a76565b604051610456929190612780565b60405180910390f35b34801561046b57600080fd5b50610474610b30565b6040516104819190612427565b60405180910390f35b34801561049657600080fd5b506104b160048036038101906104ac91906127b0565b610b3c565b6040516104be91906121a0565b60405180910390f35b3480156104d357600080fd5b506104ee60048036038101906104e991906123eb565b610bd0565b005b3480156104fc57600080fd5b5061051760048036038101906105129190612814565b610c53565b005b600061052482610d46565b9050919050565b60606000805461053a9061288c565b80601f01602080910402602001604051908101604052809291908181526020018280546105669061288c565b80156105b35780601f10610588576101008083540402835291602001916105b3565b820191906000526020600020905b81548152906001019060200180831161059657829003601f168201915b5050505050905090565b60006105c882610da7565b6004600083815260200190815260200160002060009054906101000a900473ffffffffffffffffffffffffffffffffffffffff169050919050565b600061060e8261079a565b90508073ffffffffffffffffffffffffffffffffffffffff168373ffffffffffffffffffffffffffffffffffffffff160361067e576040517f08c379a00000000000000000000000000000000000000000000000000000000081526004016106759061292f565b60405180910390fd5b8073ffffffffffffffffffffffffffffffffffffffff1661069d610df2565b73ffffffffffffffffffffffffffffffffffffffff1614806106cc57506106cb816106c6610df2565b610b3c565b5b61070b576040517f08c379a0000000000000000000000000000000000000000000000000000000008152600401610702906129c1565b60405180910390fd5b6107158383610dfa565b505050565b61072b610725610df2565b82610eb3565b61076a576040517f08c379a000000000000000000000000000000000000000000000000000000000815260040161076190612a53565b60405180910390fd5b610775838383610f48565b505050565b610795838383604051806020016040528060008152506109c9565b505050565b6000806107a683611241565b9050600073ffffffffffffffffffffffffffffffffffffffff168173ffffffffffffffffffffffffffffffffffffffff1603610817576040517f08c379a000000000000000000000000000000000000000000000000000000000815260040161080e90612abf565b60405180910390fd5b80915050919050565b60008073ffffffffffffffffffffffffffffffffffffffff168273ffffffffffffffffffffffffffffffffffffffff1603610890576040517f08c379a000000000000000000000000000000000000000000000000000000000815260040161088790612b51565b60405180910390fd5b600360008373ffffffffffffffffffffffffffffffffffffffff1673ffffffffffffffffffffffffffffffffffffffff168152602001908152602001600020549050919050565b6108df61127e565b6108e960006112fc565b565b6000600760009054906101000a900473ffffffffffffffffffffffffffffffffffffffff16905090565b6060600180546109249061288c565b80601f01602080910402602001604051908101604052809291908181526020018280546109509061288c565b801561099d5780601f106109725761010080835404028352916020019161099d565b820191906000526020600020905b81548152906001019060200180831161098057829003601f168201915b5050505050905090565b60088060000154905081565b6109c56109be610df2565b83836113c2565b5050565b6109da6109d4610df2565b83610eb3565b610a19576040517f08c379a0000000000000000000000000000000000000000000000000000000008152600401610a1090612a53565b60405180910390fd5b610a258484848461152e565b50505050565b6060610a368261158a565b9050919050565b610a4561127e565b6000610a51600861169c565b9050610a5d60086116aa565b610a6783826116c0565b610a7181836116de565b505050565b600a6020528060005260406000206000915090508060000160009054906101000a900461ffff1690806001018054610aad9061288c565b80601f0160208091040260200160405190810160405280929190818152602001828054610ad99061288c565b8015610b265780601f10610afb57610100808354040283529160200191610b26565b820191906000526020600020905b815481529060010190602001808311610b0957829003601f168201915b5050505050905082565b60098060000154905081565b6000600560008473ffffffffffffffffffffffffffffffffffffffff1673ffffffffffffffffffffffffffffffffffffffff16815260200190815260200160002060008373ffffffffffffffffffffffffffffffffffffffff1673ffffffffffffffffffffffffffffffffffffffff16815260200190815260200160002060009054906101000a900460ff16905092915050565b610bd861127e565b600073ffffffffffffffffffffffffffffffffffffffff168173ffffffffffffffffffffffffffffffffffffffff1603610c47576040517f08c379a0000000000000000000000000000000000000000000000000000000008152600401610c3e90612be3565b60405180910390fd5b610c50816112fc565b50565b610c5d60096116aa565b600081610c6990612ca5565b905080600a6000610c7a600961169c565b815260200190815260200160002060008201518160000160006101000a81548161ffff021916908361ffff1602179055506020820151816001019081610cc09190612e64565b50905050610d026040518060400160405280600d81526020017f4576656e74206372656174656400000000000000000000000000000000000000815250611782565b7f748ff5cfd7b66bdd8e21581c2a864756fe7085378c0003183e579bfafba28325610d2d600961169c565b604051610d3a9190612427565b60405180910390a15050565b6000634906490660e01b7bffffffffffffffffffffffffffffffffffffffffffffffffffffffff1916827bffffffffffffffffffffffffffffffffffffffffffffffffffffffff19161480610da05750610d9f8261181b565b5b9050919050565b610db0816118fd565b610def576040517f08c379a0000000000000000000000000000000000000000000000000000000008152600401610de690612abf565b60405180910390fd5b50565b600033905090565b816004600083815260200190815260200160002060006101000a81548173ffffffffffffffffffffffffffffffffffffffff021916908373ffffffffffffffffffffffffffffffffffffffff160217905550808273ffffffffffffffffffffffffffffffffffffffff16610e6d8361079a565b73ffffffffffffffffffffffffffffffffffffffff167f8c5be1e5ebec7d5bd14f71427d1e84f3dd0314c0f7b2291e5b200ac8c7c3b92560405160405180910390a45050565b600080610ebf8361079a565b90508073ffffffffffffffffffffffffffffffffffffffff168473ffffffffffffffffffffffffffffffffffffffff161480610f015750610f008185610b3c565b5b80610f3f57508373ffffffffffffffffffffffffffffffffffffffff16610f27846105bd565b73ffffffffffffffffffffffffffffffffffffffff16145b91505092915050565b8273ffffffffffffffffffffffffffffffffffffffff16610f688261079a565b73ffffffffffffffffffffffffffffffffffffffff1614610fbe576040517f08c379a0000000000000000000000000000000000000000000000000000000008152600401610fb590612fa8565b60405180910390fd5b600073ffffffffffffffffffffffffffffffffffffffff168273ffffffffffffffffffffffffffffffffffffffff160361102d576040517f08c379a00000000000000000000000000000000000000000000000000000000081526004016110249061303a565b60405180910390fd5b61103a838383600161193e565b8273ffffffffffffffffffffffffffffffffffffffff1661105a8261079a565b73ffffffffffffffffffffffffffffffffffffffff16146110b0576040517f08c379a00000000000000000000000000000000000000000000000000000000081526004016110a790612fa8565b60405180910390fd5b6004600082815260200190815260200160002060006101000a81549073ffffffffffffffffffffffffffffffffffffffff02191690556001600360008573ffffffffffffffffffffffffffffffffffffffff1673ffffffffffffffffffffffffffffffffffffffff168152602001908152602001600020600082825403925050819055506001600360008473ffffffffffffffffffffffffffffffffffffffff1673ffffffffffffffffffffffffffffffffffffffff16815260200190815260200160002060008282540192505081905550816002600083815260200190815260200160002060006101000a81548173ffffffffffffffffffffffffffffffffffffffff021916908373ffffffffffffffffffffffffffffffffffffffff160217905550808273ffffffffffffffffffffffffffffffffffffffff168473ffffffffffffffffffffffffffffffffffffffff167fddf252ad1be2c89b69c2b068fc378daa952ba7f163c4a11628f55a4df523b3ef60405160405180910390a461123c8383836001611944565b505050565b60006002600083815260200190815260200160002060009054906101000a900473ffffffffffffffffffffffffffffffffffffffff169050919050565b611286610df2565b73ffffffffffffffffffffffffffffffffffffffff166112a46108eb565b73ffffffffffffffffffffffffffffffffffffffff16146112fa576040517f08c379a00000000000000000000000000000000000000000000000000000000081526004016112f1906130a6565b60405180910390fd5b565b6000600760009054906101000a900473ffffffffffffffffffffffffffffffffffffffff16905081600760006101000a81548173ffffffffffffffffffffffffffffffffffffffff021916908373ffffffffffffffffffffffffffffffffffffffff1602179055508173ffffffffffffffffffffffffffffffffffffffff168173ffffffffffffffffffffffffffffffffffffffff167f8be0079c531659141344cd1fd0a4f28419497f9722a3daafe3b4186f6b6457e060405160405180910390a35050565b8173ffffffffffffffffffffffffffffffffffffffff168373ffffffffffffffffffffffffffffffffffffffff1603611430576040517f08c379a000000000000000000000000000000000000000000000000000000000815260040161142790613112565b60405180910390fd5b80600560008573ffffffffffffffffffffffffffffffffffffffff1673ffffffffffffffffffffffffffffffffffffffff16815260200190815260200160002060008473ffffffffffffffffffffffffffffffffffffffff1673ffffffffffffffffffffffffffffffffffffffff16815260200190815260200160002060006101000a81548160ff0219169083151502179055508173ffffffffffffffffffffffffffffffffffffffff168373ffffffffffffffffffffffffffffffffffffffff167f17307eab39ab6107e8899845ad3d59bd9653f200f220920489ca2b5937696c318360405161152191906121a0565b60405180910390a3505050565b611539848484610f48565b6115458484848461194a565b611584576040517f08c379a000000000000000000000000000000000000000000000000000000000815260040161157b906131a4565b60405180910390fd5b50505050565b606061159582610da7565b60006006600084815260200190815260200160002080546115b59061288c565b80601f01602080910402602001604051908101604052809291908181526020018280546115e19061288c565b801561162e5780601f106116035761010080835404028352916020019161162e565b820191906000526020600020905b81548152906001019060200180831161161157829003601f168201915b50505050509050600061163f611ad1565b90506000815103611654578192505050611697565b600082511115611689578082604051602001611671929190613200565b60405160208183030381529060405292505050611697565b61169284611b0e565b925050505b919050565b600081600001549050919050565b6001816000016000828254019250508190555050565b6116da828260405180602001604052806000815250611b76565b5050565b6116e7826118fd565b611726576040517f08c379a000000000000000000000000000000000000000000000000000000000815260040161171d90613296565b60405180910390fd5b806006600084815260200190815260200160002090816117469190612e64565b507ff8e1a15aba9398e019f0b49df1a4fde98ee17ae345cb5f6b5e2c27f5033e8ce7826040516117769190612427565b60405180910390a15050565b61181881604051602401611796919061224b565b6040516020818303038152906040527f41304fac000000000000000000000000000000000000000000000000000000007bffffffffffffffffffffffffffffffffffffffffffffffffffffffff19166020820180517bffffffffffffffffffffffffffffffffffffffffffffffffffffffff8381831617835250505050611bd1565b50565b60007f80ac58cd000000000000000000000000000000000000000000000000000000007bffffffffffffffffffffffffffffffffffffffffffffffffffffffff1916827bffffffffffffffffffffffffffffffffffffffffffffffffffffffff191614806118e657507f5b5e139f000000000000000000000000000000000000000000000000000000007bffffffffffffffffffffffffffffffffffffffffffffffffffffffff1916827bffffffffffffffffffffffffffffffffffffffffffffffffffffffff1916145b806118f657506118f582611beb565b5b9050919050565b60008073ffffffffffffffffffffffffffffffffffffffff1661191f83611241565b73ffffffffffffffffffffffffffffffffffffffff1614159050919050565b50505050565b50505050565b600061196b8473ffffffffffffffffffffffffffffffffffffffff16611c55565b15611ac4578373ffffffffffffffffffffffffffffffffffffffff1663150b7a02611994610df2565b8786866040518563ffffffff1660e01b81526004016119b6949392919061330b565b6020604051808303816000875af19250505080156119f257506040513d601f19601f820116820180604052508101906119ef919061336c565b60015b611a74573d8060008114611a22576040519150601f19603f3d011682016040523d82523d6000602084013e611a27565b606091505b506000815103611a6c576040517f08c379a0000000000000000000000000000000000000000000000000000000008152600401611a63906131a4565b60405180910390fd5b805181602001fd5b63150b7a0260e01b7bffffffffffffffffffffffffffffffffffffffffffffffffffffffff1916817bffffffffffffffffffffffffffffffffffffffffffffffffffffffff191614915050611ac9565b600190505b949350505050565b60606040518060400160405280601681526020017f687474703a2f2f6c6f63616c686f73743a333030302f00000000000000000000815250905090565b6060611b1982610da7565b6000611b23611ad1565b90506000815111611b435760405180602001604052806000815250611b6e565b80611b4d84611c78565b604051602001611b5e929190613200565b6040516020818303038152906040525b915050919050565b611b808383611d46565b611b8d600084848461194a565b611bcc576040517f08c379a0000000000000000000000000000000000000000000000000000000008152600401611bc3906131a4565b60405180910390fd5b505050565b611be881611be0611f63611f84565b63ffffffff16565b50565b60007f01ffc9a7000000000000000000000000000000000000000000000000000000007bffffffffffffffffffffffffffffffffffffffffffffffffffffffff1916827bffffffffffffffffffffffffffffffffffffffffffffffffffffffff1916149050919050565b6000808273ffffffffffffffffffffffffffffffffffffffff163b119050919050565b606060006001611c8784611f8f565b01905060008167ffffffffffffffff811115611ca657611ca56124b8565b5b6040519080825280601f01601f191660200182016040528015611cd85781602001600182028036833780820191505090505b509050600082602001820190505b600115611d3b578080600190039150507f3031323334353637383961626364656600000000000000000000000000000000600a86061a8153600a8581611d2f57611d2e613399565b5b04945060008503611ce6575b819350505050919050565b600073ffffffffffffffffffffffffffffffffffffffff168273ffffffffffffffffffffffffffffffffffffffff1603611db5576040517f08c379a0000000000000000000000000000000000000000000000000000000008152600401611dac90613414565b60405180910390fd5b611dbe816118fd565b15611dfe576040517f08c379a0000000000000000000000000000000000000000000000000000000008152600401611df590613480565b60405180910390fd5b611e0c60008383600161193e565b611e15816118fd565b15611e55576040517f08c379a0000000000000000000000000000000000000000000000000000000008152600401611e4c90613480565b60405180910390fd5b6001600360008473ffffffffffffffffffffffffffffffffffffffff1673ffffffffffffffffffffffffffffffffffffffff16815260200190815260200160002060008282540192505081905550816002600083815260200190815260200160002060006101000a81548173ffffffffffffffffffffffffffffffffffffffff021916908373ffffffffffffffffffffffffffffffffffffffff160217905550808273ffffffffffffffffffffffffffffffffffffffff16600073ffffffffffffffffffffffffffffffffffffffff167fddf252ad1be2c89b69c2b068fc378daa952ba7f163c4a11628f55a4df523b3ef60405160405180910390a4611f5f600083836001611944565b5050565b60006a636f6e736f6c652e6c6f679050600080835160208501845afa505050565b6120e2819050919050565b600080600090507a184f03e93ff9f4daa797ed6e38ed64bf6a1f0100000000000000008310611fed577a184f03e93ff9f4daa797ed6e38ed64bf6a1f0100000000000000008381611fe357611fe2613399565b5b0492506040810190505b6d04ee2d6d415b85acef8100000000831061202a576d04ee2d6d415b85acef810000000083816120205761201f613399565b5b0492506020810190505b662386f26fc10000831061205957662386f26fc10000838161204f5761204e613399565b5b0492506010810190505b6305f5e1008310612082576305f5e100838161207857612077613399565b5b0492506008810190505b61271083106120a757612710838161209d5761209c613399565b5b0492506004810190505b606483106120ca57606483816120c0576120bf613399565b5b0492506002810190505b600a83106120d9576001810190505b80915050919050565b6120ea6134a0565b565b6000604051905090565b600080fd5b600080fd5b60007fffffffff0000000000000000000000000000000000000000000000000000000082169050919050565b61213581612100565b811461214057600080fd5b50565b6000813590506121528161212c565b92915050565b60006020828403121561216e5761216d6120f6565b5b600061217c84828501612143565b91505092915050565b60008115159050919050565b61219a81612185565b82525050565b60006020820190506121b56000830184612191565b92915050565b600081519050919050565b600082825260208201905092915050565b60005b838110156121f55780820151818401526020810190506121da565b60008484015250505050565b6000601f19601f8301169050919050565b600061221d826121bb565b61222781856121c6565b93506122378185602086016121d7565b61224081612201565b840191505092915050565b600060208201905081810360008301526122658184612212565b905092915050565b6000819050919050565b6122808161226d565b811461228b57600080fd5b50565b60008135905061229d81612277565b92915050565b6000602082840312156122b9576122b86120f6565b5b60006122c78482850161228e565b91505092915050565b600073ffffffffffffffffffffffffffffffffffffffff82169050919050565b60006122fb826122d0565b9050919050565b61230b816122f0565b82525050565b60006020820190506123266000830184612302565b92915050565b612335816122f0565b811461234057600080fd5b50565b6000813590506123528161232c565b92915050565b6000806040838503121561236f5761236e6120f6565b5b600061237d85828601612343565b925050602061238e8582860161228e565b9150509250929050565b6000806000606084860312156123b1576123b06120f6565b5b60006123bf86828701612343565b93505060206123d086828701612343565b92505060406123e18682870161228e565b9150509250925092565b600060208284031215612401576124006120f6565b5b600061240f84828501612343565b91505092915050565b6124218161226d565b82525050565b600060208201905061243c6000830184612418565b92915050565b61244b81612185565b811461245657600080fd5b50565b60008135905061246881612442565b92915050565b60008060408385031215612485576124846120f6565b5b600061249385828601612343565b92505060206124a485828601612459565b9150509250929050565b600080fd5b600080fd5b7f4e487b7100000000000000000000000000000000000000000000000000000000600052604160045260246000fd5b6124f082612201565b810181811067ffffffffffffffff8211171561250f5761250e6124b8565b5b80604052505050565b60006125226120ec565b905061252e82826124e7565b919050565b600067ffffffffffffffff82111561254e5761254d6124b8565b5b61255782612201565b9050602081019050919050565b82818337600083830152505050565b600061258661258184612533565b612518565b9050828152602081018484840111156125a2576125a16124b3565b5b6125ad848285612564565b509392505050565b600082601f8301126125ca576125c96124ae565b5b81356125da848260208601612573565b91505092915050565b600080600080608085870312156125fd576125fc6120f6565b5b600061260b87828801612343565b945050602061261c87828801612343565b935050604061262d8782880161228e565b925050606085013567ffffffffffffffff81111561264e5761264d6120fb565b5b61265a878288016125b5565b91505092959194509250565b600067ffffffffffffffff821115612681576126806124b8565b5b61268a82612201565b9050602081019050919050565b60006126aa6126a584612666565b612518565b9050828152602081018484840111156126c6576126c56124b3565b5b6126d1848285612564565b509392505050565b600082601f8301126126ee576126ed6124ae565b5b81356126fe848260208601612697565b91505092915050565b6000806040838503121561271e5761271d6120f6565b5b600061272c85828601612343565b925050602083013567ffffffffffffffff81111561274d5761274c6120fb565b5b612759858286016126d9565b9150509250929050565b600061ffff82169050919050565b61277a81612763565b82525050565b60006040820190506127956000830185612771565b81810360208301526127a78184612212565b90509392505050565b600080604083850312156127c7576127c66120f6565b5b60006127d585828601612343565b92505060206127e685828601612343565b9150509250929050565b600080fd5b60006040828403121561280b5761280a6127f0565b5b81905092915050565b60006020828403121561282a576128296120f6565b5b600082013567ffffffffffffffff811115612848576128476120fb565b5b612854848285016127f5565b91505092915050565b7f4e487b7100000000000000000000000000000000000000000000000000000000600052602260045260246000fd5b600060028204905060018216806128a457607f821691505b6020821081036128b7576128b661285d565b5b50919050565b7f4552433732313a20617070726f76616c20746f2063757272656e74206f776e6560008201527f7200000000000000000000000000000000000000000000000000000000000000602082015250565b60006129196021836121c6565b9150612924826128bd565b604082019050919050565b600060208201905081810360008301526129488161290c565b9050919050565b7f4552433732313a20617070726f76652063616c6c6572206973206e6f7420746f60008201527f6b656e206f776e6572206f7220617070726f76656420666f7220616c6c000000602082015250565b60006129ab603d836121c6565b91506129b68261294f565b604082019050919050565b600060208201905081810360008301526129da8161299e565b9050919050565b7f4552433732313a2063616c6c6572206973206e6f7420746f6b656e206f776e6560008201527f72206f7220617070726f76656400000000000000000000000000000000000000602082015250565b6000612a3d602d836121c6565b9150612a48826129e1565b604082019050919050565b60006020820190508181036000830152612a6c81612a30565b9050919050565b7f4552433732313a20696e76616c696420746f6b656e2049440000000000000000600082015250565b6000612aa96018836121c6565b9150612ab482612a73565b602082019050919050565b60006020820190508181036000830152612ad881612a9c565b9050919050565b7f4552433732313a2061646472657373207a65726f206973206e6f74206120766160008201527f6c6964206f776e65720000000000000000000000000000000000000000000000602082015250565b6000612b3b6029836121c6565b9150612b4682612adf565b604082019050919050565b60006020820190508181036000830152612b6a81612b2e565b9050919050565b7f4f776e61626c653a206e6577206f776e657220697320746865207a65726f206160008201527f6464726573730000000000000000000000000000000000000000000000000000602082015250565b6000612bcd6026836121c6565b9150612bd882612b71565b604082019050919050565b60006020820190508181036000830152612bfc81612bc0565b9050919050565b600080fd5b600080fd5b612c1681612763565b8114612c2157600080fd5b50565b600081359050612c3381612c0d565b92915050565b600060408284031215612c4f57612c4e612c03565b5b612c596040612518565b90506000612c6984828501612c24565b600083015250602082013567ffffffffffffffff811115612c8d57612c8c612c08565b5b612c99848285016126d9565b60208301525092915050565b6000612cb13683612c39565b9050919050565b60008190508160005260206000209050919050565b60006020601f8301049050919050565b600082821b905092915050565b600060088302612d1a7fffffffffffffffffffffffffffffffffffffffffffffffffffffffffffffffff82612cdd565b612d248683612cdd565b95508019841693508086168417925050509392505050565b6000819050919050565b6000612d61612d5c612d578461226d565b612d3c565b61226d565b9050919050565b6000819050919050565b612d7b83612d46565b612d8f612d8782612d68565b848454612cea565b825550505050565b600090565b612da4612d97565b612daf818484612d72565b505050565b5b81811015612dd357612dc8600082612d9c565b600181019050612db5565b5050565b601f821115612e1857612de981612cb8565b612df284612ccd565b81016020851015612e01578190505b612e15612e0d85612ccd565b830182612db4565b50505b505050565b600082821c905092915050565b6000612e3b60001984600802612e1d565b1980831691505092915050565b6000612e548383612e2a565b9150826002028217905092915050565b612e6d826121bb565b67ffffffffffffffff811115612e8657612e856124b8565b5b612e90825461288c565b612e9b828285612dd7565b600060209050601f831160018114612ece5760008415612ebc578287015190505b612ec68582612e48565b865550612f2e565b601f198416612edc86612cb8565b60005b82811015612f0457848901518255600182019150602085019450602081019050612edf565b86831015612f215784890151612f1d601f891682612e2a565b8355505b6001600288020188555050505b505050505050565b7f4552433732313a207472616e736665722066726f6d20696e636f72726563742060008201527f6f776e6572000000000000000000000000000000000000000000000000000000602082015250565b6000612f926025836121c6565b9150612f9d82612f36565b604082019050919050565b60006020820190508181036000830152612fc181612f85565b9050919050565b7f4552433732313a207472616e7366657220746f20746865207a65726f2061646460008201527f7265737300000000000000000000000000000000000000000000000000000000602082015250565b60006130246024836121c6565b915061302f82612fc8565b604082019050919050565b6000602082019050818103600083015261305381613017565b9050919050565b7f4f776e61626c653a2063616c6c6572206973206e6f7420746865206f776e6572600082015250565b60006130906020836121c6565b915061309b8261305a565b602082019050919050565b600060208201905081810360008301526130bf81613083565b9050919050565b7f4552433732313a20617070726f766520746f2063616c6c657200000000000000600082015250565b60006130fc6019836121c6565b9150613107826130c6565b602082019050919050565b6000602082019050818103600083015261312b816130ef565b9050919050565b7f4552433732313a207472616e7366657220746f206e6f6e20455243373231526560008201527f63656976657220696d706c656d656e7465720000000000000000000000000000602082015250565b600061318e6032836121c6565b915061319982613132565b604082019050919050565b600060208201905081810360008301526131bd81613181565b9050919050565b600081905092915050565b60006131da826121bb565b6131e481856131c4565b93506131f48185602086016121d7565b80840191505092915050565b600061320c82856131cf565b915061321882846131cf565b91508190509392505050565b7f45524337323155524953746f726167653a2055524920736574206f66206e6f6e60008201527f6578697374656e7420746f6b656e000000000000000000000000000000000000602082015250565b6000613280602e836121c6565b915061328b82613224565b604082019050919050565b600060208201905081810360008301526132af81613273565b9050919050565b600081519050919050565b600082825260208201905092915050565b60006132dd826132b6565b6132e781856132c1565b93506132f78185602086016121d7565b61330081612201565b840191505092915050565b60006080820190506133206000830187612302565b61332d6020830186612302565b61333a6040830185612418565b818103606083015261334c81846132d2565b905095945050505050565b6000815190506133668161212c565b92915050565b600060208284031215613382576133816120f6565b5b600061339084828501613357565b91505092915050565b7f4e487b7100000000000000000000000000000000000000000000000000000000600052601260045260246000fd5b7f4552433732313a206d696e7420746f20746865207a65726f2061646472657373600082015250565b60006133fe6020836121c6565b9150613409826133c8565b602082019050919050565b6000602082019050818103600083015261342d816133f1565b9050919050565b7f4552433732313a20746f6b656e20616c7265616479206d696e74656400000000600082015250565b600061346a601c836121c6565b915061347582613434565b602082019050919050565b600060208201905081810360008301526134998161345d565b9050919050565b7f4e487b7100000000000000000000000000000000000000000000000000000000600052605160045260246000fdfea2646970667358221220367a5930914ab58b4fa9fb85a50a4c23244f7ba1e3b6c51ad2e404d3359bd27264736f6c63430008130033",
  "linkReferences": {},
  "deployedLinkReferences": {}
}