{
  "_format": "hh-sol-artifact-1",
  "contractName": "EventFactory",
  "sourceName": "contracts/EventFactory.sol",
  "abi": [
    {
      "inputs": [
        {
          "internalType": "address",
          "name": "_eventLogic",
          "type": "address"
        }
      ],
      "stateMutability": "nonpayable",
      "type": "constructor"
    },
    {
      "anonymous": false,
      "inputs": [
        {
          "indexed": false,
          "internalType": "address",
          "name": "",
          "type": "address"
        }
      ],
      "name": "EventCreated",
      "type": "event"
    },
    {
      "stateMutability": "payable",
      "type": "fallback"
    },
    {
      "inputs": [
        {
          "components": [
            {
              "internalType": "string",
              "name": "name",
              "type": "string"
            },
            {
              "internalType": "uint32",
              "name": "start",
              "type": "uint32"
            },
            {
              "internalType": "uint32",
              "name": "end",
              "type": "uint32"
            }
          ],
          "internalType": "struct IEventImplementation.EventData",
          "name": "_eventData",
          "type": "tuple"
        },
        {
          "internalType": "string[]",
          "name": "ticketTypes",
          "type": "string[]"
        },
        {
          "internalType": "uint256[]",
          "name": "supplies",
          "type": "uint256[]"
        },
        {
          "internalType": "uint256[]",
          "name": "prices",
          "type": "uint256[]"
        }
      ],
      "name": "createEvent",
      "outputs": [
        {
          "internalType": "address",
          "name": "",
          "type": "address"
        }
      ],
      "stateMutability": "nonpayable",
      "type": "function"
    },
    {
      "inputs": [],
      "name": "getEventBeacon",
      "outputs": [
        {
          "internalType": "address",
          "name": "",
          "type": "address"
        }
      ],
      "stateMutability": "view",
      "type": "function"
    },
    {
      "stateMutability": "payable",
      "type": "receive"
    }
  ],
  "bytecode": "0x60a06040523480156200001157600080fd5b506040516200295338038062002953833981810160405281019062000037919062000193565b8060405162000046906200011b565b620000529190620001d6565b604051809103906000f0801580156200006f573d6000803e3d6000fd5b5073ffffffffffffffffffffffffffffffffffffffff1660808173ffffffffffffffffffffffffffffffffffffffff168152505060805173ffffffffffffffffffffffffffffffffffffffff1663f2fde38b336040518263ffffffff1660e01b8152600401620000e09190620001d6565b600060405180830381600087803b158015620000fb57600080fd5b505af115801562000110573d6000803e3d6000fd5b5050505050620001f3565b6109cb8062001f8883390190565b600080fd5b600073ffffffffffffffffffffffffffffffffffffffff82169050919050565b60006200015b826200012e565b9050919050565b6200016d816200014e565b81146200017957600080fd5b50565b6000815190506200018d8162000162565b92915050565b600060208284031215620001ac57620001ab62000129565b5b6000620001bc848285016200017c565b91505092915050565b620001d0816200014e565b82525050565b6000602082019050620001ed6000830184620001c5565b92915050565b608051611d726200021660003960008181610190015261038d0152611d726000f3fe608060405260043610620000315760003560e01c8063521df705146200003b578063cbf71129146200007f5762000039565b366200003957005b005b3480156200004857600080fd5b5062000067600480360381019062000061919062000af5565b620000af565b60405162000076919062000c28565b60405180910390f35b3480156200008c57600080fd5b506200009762000389565b604051620000a6919062000c28565b60405180910390f35b6000620000bd600062000422565b6000620000d5620000cf600062000438565b62000446565b604051602001620000e7919062000ce4565b60405160208183030381529060405290506000816040516024016200010d919062000db0565b6040516020818303038152906040527f4cd88b76000000000000000000000000000000000000000000000000000000007bffffffffffffffffffffffffffffffffffffffffffffffffffffffff19166020820180517bffffffffffffffffffffffffffffffffffffffffffffffffffffffff8381831617835250505050905060007f000000000000000000000000000000000000000000000000000000000000000082604051620001be906200068b565b620001cb92919062000e46565b604051809103906000f080158015620001e8573d6000803e3d6000fd5b50905060008190508073ffffffffffffffffffffffffffffffffffffffff166390ac68138a6040518263ffffffff1660e01b81526004016200022b919062000f33565b600060405180830381600087803b1580156200024657600080fd5b505af11580156200025b573d6000803e3d6000fd5b505050508073ffffffffffffffffffffffffffffffffffffffff16634934b73e8989896040518463ffffffff1660e01b81526004016200029e93929190620010f5565b600060405180830381600087803b158015620002b957600080fd5b505af1158015620002ce573d6000803e3d6000fd5b505050508073ffffffffffffffffffffffffffffffffffffffff166389d61d77336040518263ffffffff1660e01b81526004016200030d919062000c28565b600060405180830381600087803b1580156200032857600080fd5b505af11580156200033d573d6000803e3d6000fd5b505050507ffc8a4c0621b9788c4dbe57053a51ce2d22625a067d039f38004df2a07ca755a48260405162000372919062000c28565b60405180910390a181945050505050949350505050565b60007f000000000000000000000000000000000000000000000000000000000000000073ffffffffffffffffffffffffffffffffffffffff16635c60da1b6040518163ffffffff1660e01b8152600401602060405180830381865afa158015620003f7573d6000803e3d6000fd5b505050506040513d601f19601f820116820180604052508101906200041d919062001178565b905090565b6001816000016000828254019250508190555050565b600081600001549050919050565b60606000600162000457846200051f565b01905060008167ffffffffffffffff811115620004795762000478620006c3565b5b6040519080825280601f01601f191660200182016040528015620004ac5781602001600182028036833780820191505090505b509050600082602001820190505b60011562000514578080600190039150507f3031323334353637383961626364656600000000000000000000000000000000600a86061a8153600a8581620005075762000506620011aa565b5b04945060008503620004ba575b819350505050919050565b600080600090507a184f03e93ff9f4daa797ed6e38ed64bf6a1f010000000000000000831062000581577a184f03e93ff9f4daa797ed6e38ed64bf6a1f0100000000000000008381620005775762000576620011aa565b5b0492506040810190505b6d04ee2d6d415b85acef81000000008310620005c2576d04ee2d6d415b85acef81000000008381620005b857620005b7620011aa565b5b0492506020810190505b662386f26fc100008310620005f557662386f26fc100008381620005eb57620005ea620011aa565b5b0492506010810190505b6305f5e100831062000622576305f5e1008381620006185762000617620011aa565b5b0492506008810190505b61271083106200064b576127108381620006415762000640620011aa565b5b0492506004810190505b60648310620006725760648381620006685762000667620011aa565b5b0492506002810190505b600a831062000682576001810190505b80915050919050565b610b6380620011da83390190565b6000604051905090565b600080fd5b600080fd5b600080fd5b6000601f19601f8301169050919050565b7f4e487b7100000000000000000000000000000000000000000000000000000000600052604160045260246000fd5b620006fd82620006b2565b810181811067ffffffffffffffff821117156200071f576200071e620006c3565b5b80604052505050565b60006200073462000699565b9050620007428282620006f2565b919050565b600080fd5b600080fd5b600080fd5b600067ffffffffffffffff821115620007745762000773620006c3565b5b6200077f82620006b2565b9050602081019050919050565b82818337600083830152505050565b6000620007b2620007ac8462000756565b62000728565b905082815260208101848484011115620007d157620007d062000751565b5b620007de8482856200078c565b509392505050565b600082601f830112620007fe57620007fd6200074c565b5b8135620008108482602086016200079b565b91505092915050565b600063ffffffff82169050919050565b620008348162000819565b81146200084057600080fd5b50565b600081359050620008548162000829565b92915050565b600060608284031215620008735762000872620006ad565b5b6200087f606062000728565b9050600082013567ffffffffffffffff811115620008a257620008a162000747565b5b620008b084828501620007e6565b6000830152506020620008c68482850162000843565b6020830152506040620008dc8482850162000843565b60408301525092915050565b600067ffffffffffffffff821115620009065762000905620006c3565b5b602082029050602081019050919050565b600080fd5b6000620009336200092d84620008e8565b62000728565b9050808382526020820190506020840283018581111562000959576200095862000917565b5b835b81811015620009a757803567ffffffffffffffff8111156200098257620009816200074c565b5b808601620009918982620007e6565b855260208501945050506020810190506200095b565b5050509392505050565b600082601f830112620009c957620009c86200074c565b5b8135620009db8482602086016200091c565b91505092915050565b600067ffffffffffffffff82111562000a025762000a01620006c3565b5b602082029050602081019050919050565b6000819050919050565b62000a288162000a13565b811462000a3457600080fd5b50565b60008135905062000a488162000a1d565b92915050565b600062000a6562000a5f84620009e4565b62000728565b9050808382526020820190506020840283018581111562000a8b5762000a8a62000917565b5b835b8181101562000ab8578062000aa3888262000a37565b84526020840193505060208101905062000a8d565b5050509392505050565b600082601f83011262000ada5762000ad96200074c565b5b813562000aec84826020860162000a4e565b91505092915050565b6000806000806080858703121562000b125762000b11620006a3565b5b600085013567ffffffffffffffff81111562000b335762000b32620006a8565b5b62000b41878288016200085a565b945050602085013567ffffffffffffffff81111562000b655762000b64620006a8565b5b62000b7387828801620009b1565b935050604085013567ffffffffffffffff81111562000b975762000b96620006a8565b5b62000ba58782880162000ac2565b925050606085013567ffffffffffffffff81111562000bc95762000bc8620006a8565b5b62000bd78782880162000ac2565b91505092959194509250565b600073ffffffffffffffffffffffffffffffffffffffff82169050919050565b600062000c108262000be3565b9050919050565b62000c228162000c03565b82525050565b600060208201905062000c3f600083018462000c17565b92915050565b7f53686f7773746172746572204576656e74200000000000000000000000000000815250565b600081519050919050565b600081905092915050565b60005b8381101562000ca157808201518184015260208101905062000c84565b60008484015250505050565b600062000cba8262000c6b565b62000cc6818562000c76565b935062000cd881856020860162000c81565b80840191505092915050565b600062000cf18262000c45565b60128201915062000d03828462000cad565b915081905092915050565b600082825260208201905092915050565b600062000d2c8262000c6b565b62000d38818562000d0e565b935062000d4a81856020860162000c81565b62000d5581620006b2565b840191505092915050565b7f53484f5700000000000000000000000000000000000000000000000000000000600082015250565b600062000d9860048362000d0e565b915062000da58262000d60565b602082019050919050565b6000604082019050818103600083015262000dcc818462000d1f565b9050818103602083015262000de18162000d89565b905092915050565b600081519050919050565b600082825260208201905092915050565b600062000e128262000de9565b62000e1e818562000df4565b935062000e3081856020860162000c81565b62000e3b81620006b2565b840191505092915050565b600060408201905062000e5d600083018562000c17565b818103602083015262000e71818462000e05565b90509392505050565b600082825260208201905092915050565b600062000e988262000c6b565b62000ea4818562000e7a565b935062000eb681856020860162000c81565b62000ec181620006b2565b840191505092915050565b62000ed78162000819565b82525050565b6000606083016000830151848203600086015262000efc828262000e8b565b915050602083015162000f13602086018262000ecc565b50604083015162000f28604086018262000ecc565b508091505092915050565b6000602082019050818103600083015262000f4f818462000edd565b905092915050565b600081519050919050565b600082825260208201905092915050565b6000819050602082019050919050565b600062000f91838362000e8b565b905092915050565b6000602082019050919050565b600062000fb38262000f57565b62000fbf818562000f62565b93508360208202850162000fd38562000f73565b8060005b8581101562001015578484038952815162000ff3858262000f83565b9450620010008362000f99565b925060208a0199505060018101905062000fd7565b50829750879550505050505092915050565b600081519050919050565b600082825260208201905092915050565b6000819050602082019050919050565b6200105e8162000a13565b82525050565b600062001072838362001053565b60208301905092915050565b6000602082019050919050565b6000620010988262001027565b620010a4818562001032565b9350620010b18362001043565b8060005b83811015620010e8578151620010cc888262001064565b9750620010d9836200107e565b925050600181019050620010b5565b5085935050505092915050565b6000606082019050818103600083015262001111818662000fa6565b905081810360208301526200112781856200108b565b905081810360408301526200113d81846200108b565b9050949350505050565b620011528162000c03565b81146200115e57600080fd5b50565b600081519050620011728162001147565b92915050565b600060208284031215620011915762001190620006a3565b5b6000620011a18482850162001161565b91505092915050565b7f4e487b7100000000000000000000000000000000000000000000000000000000600052601260045260246000fdfe608060405260405162000b6338038062000b638339818101604052810190610027919061063b565b6100398282600061004060201b60201c565b5050610929565b61004f8361012960201b60201c565b8273ffffffffffffffffffffffffffffffffffffffff167f1cf3b03a6cf19fa2baba4df148e9dcabedea7f8a5c07840e207e5c089be95d3e60405160405180910390a260008251118061009f5750805b15610124576101228373ffffffffffffffffffffffffffffffffffffffff16635c60da1b6040518163ffffffff1660e01b8152600401602060405180830381865afa1580156100f2573d6000803e3d6000fd5b505050506040513d601f19601f820116820180604052508101906101169190610697565b836102aa60201b60201c565b505b505050565b610138816102de60201b60201c565b610177576040517f08c379a000000000000000000000000000000000000000000000000000000000815260040161016e90610747565b60405180910390fd5b6101f48173ffffffffffffffffffffffffffffffffffffffff16635c60da1b6040518163ffffffff1660e01b8152600401602060405180830381865afa1580156101c5573d6000803e3d6000fd5b505050506040513d601f19601f820116820180604052508101906101e99190610697565b6102de60201b60201c565b610233576040517f08c379a000000000000000000000000000000000000000000000000000000000815260040161022a906107d9565b60405180910390fd5b806102667fa3f0ad74e5423aebfd80d3ef4346578335a9a72aeaee59ff6cb3582b35133d5060001b61030160201b60201c565b60000160006101000a81548173ffffffffffffffffffffffffffffffffffffffff021916908373ffffffffffffffffffffffffffffffffffffffff16021790555050565b60606102d6838360405180606001604052806027815260200162000b3c6027913961030b60201b60201c565b905092915050565b6000808273ffffffffffffffffffffffffffffffffffffffff163b119050919050565b6000819050919050565b60606000808573ffffffffffffffffffffffffffffffffffffffff16856040516103359190610840565b600060405180830381855af49150503d8060008114610370576040519150601f19603f3d011682016040523d82523d6000602084013e610375565b606091505b509150915061038c8683838761039760201b60201c565b925050509392505050565b606083156103ff5760008351036103f7576103b7856102de60201b60201c565b6103f6576040517f08c379a00000000000000000000000000000000000000000000000000000000081526004016103ed906108a3565b60405180910390fd5b5b829050610410565b61040f838361041860201b60201c565b5b949350505050565b60008251111561042b5781518083602001fd5b806040517f08c379a000000000000000000000000000000000000000000000000000000000815260040161045f9190610907565b60405180910390fd5b6000604051905090565b600080fd5b600080fd5b600073ffffffffffffffffffffffffffffffffffffffff82169050919050565b60006104a78261047c565b9050919050565b6104b78161049c565b81146104c257600080fd5b50565b6000815190506104d4816104ae565b92915050565b600080fd5b600080fd5b6000601f19601f8301169050919050565b7f4e487b7100000000000000000000000000000000000000000000000000000000600052604160045260246000fd5b61052d826104e4565b810181811067ffffffffffffffff8211171561054c5761054b6104f5565b5b80604052505050565b600061055f610468565b905061056b8282610524565b919050565b600067ffffffffffffffff82111561058b5761058a6104f5565b5b610594826104e4565b9050602081019050919050565b60005b838110156105bf5780820151818401526020810190506105a4565b60008484015250505050565b60006105de6105d984610570565b610555565b9050828152602081018484840111156105fa576105f96104df565b5b6106058482856105a1565b509392505050565b600082601f830112610622576106216104da565b5b81516106328482602086016105cb565b91505092915050565b6000806040838503121561065257610651610472565b5b6000610660858286016104c5565b925050602083015167ffffffffffffffff81111561068157610680610477565b5b61068d8582860161060d565b9150509250929050565b6000602082840312156106ad576106ac610472565b5b60006106bb848285016104c5565b91505092915050565b600082825260208201905092915050565b7f455243313936373a206e657720626561636f6e206973206e6f74206120636f6e60008201527f7472616374000000000000000000000000000000000000000000000000000000602082015250565b60006107316025836106c4565b915061073c826106d5565b604082019050919050565b6000602082019050818103600083015261076081610724565b9050919050565b7f455243313936373a20626561636f6e20696d706c656d656e746174696f6e206960008201527f73206e6f74206120636f6e747261637400000000000000000000000000000000602082015250565b60006107c36030836106c4565b91506107ce82610767565b604082019050919050565b600060208201905081810360008301526107f2816107b6565b9050919050565b600081519050919050565b600081905092915050565b600061081a826107f9565b6108248185610804565b93506108348185602086016105a1565b80840191505092915050565b600061084c828461080f565b915081905092915050565b7f416464726573733a2063616c6c20746f206e6f6e2d636f6e7472616374000000600082015250565b600061088d601d836106c4565b915061089882610857565b602082019050919050565b600060208201905081810360008301526108bc81610880565b9050919050565b600081519050919050565b60006108d9826108c3565b6108e381856106c4565b93506108f38185602086016105a1565b6108fc816104e4565b840191505092915050565b6000602082019050818103600083015261092181846108ce565b905092915050565b61020380620009396000396000f3fe6080604052366100135761001161001d565b005b61001b61001d565b005b610025610037565b610035610030610039565b6100b6565b565b565b60006100436100dc565b73ffffffffffffffffffffffffffffffffffffffff16635c60da1b6040518163ffffffff1660e01b8152600401602060405180830381865afa15801561008d573d6000803e3d6000fd5b505050506040513d601f19601f820116820180604052508101906100b191906101a0565b905090565b3660008037600080366000845af43d6000803e80600081146100d7573d6000f35b3d6000fd5b600061010a7fa3f0ad74e5423aebfd80d3ef4346578335a9a72aeaee59ff6cb3582b35133d5060001b610133565b60000160009054906101000a900473ffffffffffffffffffffffffffffffffffffffff16905090565b6000819050919050565b600080fd5b600073ffffffffffffffffffffffffffffffffffffffff82169050919050565b600061016d82610142565b9050919050565b61017d81610162565b811461018857600080fd5b50565b60008151905061019a81610174565b92915050565b6000602082840312156101b6576101b561013d565b5b60006101c48482850161018b565b9150509291505056fea26469706673582212209c7d2e055492abcb1a3cc5398e84f113066ba35440bdd386e8ddc979f7df4d4764736f6c63430008130033416464726573733a206c6f772d6c6576656c2064656c65676174652063616c6c206661696c6564a2646970667358221220df04e1a7ca9f864e93451ca8501665c581058a408748cfcdc95ed2b41087143564736f6c63430008130033608060405234801561001057600080fd5b506040516109cb3803806109cb83398181016040528101906100329190610247565b61004e61004361006360201b60201c565b61006b60201b60201c565b61005d8161012f60201b60201c565b50610317565b600033905090565b60008060009054906101000a900473ffffffffffffffffffffffffffffffffffffffff169050816000806101000a81548173ffffffffffffffffffffffffffffffffffffffff021916908373ffffffffffffffffffffffffffffffffffffffff1602179055508173ffffffffffffffffffffffffffffffffffffffff168173ffffffffffffffffffffffffffffffffffffffff167f8be0079c531659141344cd1fd0a4f28419497f9722a3daafe3b4186f6b6457e060405160405180910390a35050565b61013e816101c160201b60201c565b61017d576040517f08c379a0000000000000000000000000000000000000000000000000000000008152600401610174906102f7565b60405180910390fd5b80600160006101000a81548173ffffffffffffffffffffffffffffffffffffffff021916908373ffffffffffffffffffffffffffffffffffffffff16021790555050565b6000808273ffffffffffffffffffffffffffffffffffffffff163b119050919050565b600080fd5b600073ffffffffffffffffffffffffffffffffffffffff82169050919050565b6000610214826101e9565b9050919050565b61022481610209565b811461022f57600080fd5b50565b6000815190506102418161021b565b92915050565b60006020828403121561025d5761025c6101e4565b5b600061026b84828501610232565b91505092915050565b600082825260208201905092915050565b7f5570677261646561626c65426561636f6e3a20696d706c656d656e746174696f60008201527f6e206973206e6f74206120636f6e747261637400000000000000000000000000602082015250565b60006102e1603383610274565b91506102ec82610285565b604082019050919050565b60006020820190508181036000830152610310816102d4565b9050919050565b6106a5806103266000396000f3fe608060405234801561001057600080fd5b50600436106100575760003560e01c80633659cfe61461005c5780635c60da1b14610078578063715018a6146100965780638da5cb5b146100a0578063f2fde38b146100be575b600080fd5b61007660048036038101906100719190610477565b6100da565b005b610080610131565b60405161008d91906104b3565b60405180910390f35b61009e61015b565b005b6100a861016f565b6040516100b591906104b3565b60405180910390f35b6100d860048036038101906100d39190610477565b610198565b005b6100e261021b565b6100eb81610299565b8073ffffffffffffffffffffffffffffffffffffffff167fbc7cd75a20ee27fd9adebab32041f755214dbc6bffa90cc0225b39da2e5c2d3b60405160405180910390a250565b6000600160009054906101000a900473ffffffffffffffffffffffffffffffffffffffff16905090565b61016361021b565b61016d6000610325565b565b60008060009054906101000a900473ffffffffffffffffffffffffffffffffffffffff16905090565b6101a061021b565b600073ffffffffffffffffffffffffffffffffffffffff168173ffffffffffffffffffffffffffffffffffffffff160361020f576040517f08c379a000000000000000000000000000000000000000000000000000000000815260040161020690610551565b60405180910390fd5b61021881610325565b50565b6102236103e9565b73ffffffffffffffffffffffffffffffffffffffff1661024161016f565b73ffffffffffffffffffffffffffffffffffffffff1614610297576040517f08c379a000000000000000000000000000000000000000000000000000000000815260040161028e906105bd565b60405180910390fd5b565b6102a2816103f1565b6102e1576040517f08c379a00000000000000000000000000000000000000000000000000000000081526004016102d89061064f565b60405180910390fd5b80600160006101000a81548173ffffffffffffffffffffffffffffffffffffffff021916908373ffffffffffffffffffffffffffffffffffffffff16021790555050565b60008060009054906101000a900473ffffffffffffffffffffffffffffffffffffffff169050816000806101000a81548173ffffffffffffffffffffffffffffffffffffffff021916908373ffffffffffffffffffffffffffffffffffffffff1602179055508173ffffffffffffffffffffffffffffffffffffffff168173ffffffffffffffffffffffffffffffffffffffff167f8be0079c531659141344cd1fd0a4f28419497f9722a3daafe3b4186f6b6457e060405160405180910390a35050565b600033905090565b6000808273ffffffffffffffffffffffffffffffffffffffff163b119050919050565b600080fd5b600073ffffffffffffffffffffffffffffffffffffffff82169050919050565b600061044482610419565b9050919050565b61045481610439565b811461045f57600080fd5b50565b6000813590506104718161044b565b92915050565b60006020828403121561048d5761048c610414565b5b600061049b84828501610462565b91505092915050565b6104ad81610439565b82525050565b60006020820190506104c860008301846104a4565b92915050565b600082825260208201905092915050565b7f4f776e61626c653a206e6577206f776e657220697320746865207a65726f206160008201527f6464726573730000000000000000000000000000000000000000000000000000602082015250565b600061053b6026836104ce565b9150610546826104df565b604082019050919050565b6000602082019050818103600083015261056a8161052e565b9050919050565b7f4f776e61626c653a2063616c6c6572206973206e6f7420746865206f776e6572600082015250565b60006105a76020836104ce565b91506105b282610571565b602082019050919050565b600060208201905081810360008301526105d68161059a565b9050919050565b7f5570677261646561626c65426561636f6e3a20696d706c656d656e746174696f60008201527f6e206973206e6f74206120636f6e747261637400000000000000000000000000602082015250565b60006106396033836104ce565b9150610644826105dd565b604082019050919050565b600060208201905081810360008301526106688161062c565b905091905056fea2646970667358221220ff7ce75c6a2b5d4c6a6930af6135818bacf12edb52dcefcb722be1fa345161d064736f6c63430008130033",
  "linkReferences": {},
  "deployedLinkReferences": {},
  "contractAddress": "0x28c42f8591dC509389065ae6029cB4035fD08272"
}