{
  "_format": "hh-sol-artifact-1",
  "contractName": "EventImplementation",
  "sourceName": "contracts/EventImplementation.sol",
  "abi": [
    {
      "inputs": [],
      "stateMutability": "nonpayable",
      "type": "constructor"
    },
    {
      "anonymous": false,
      "inputs": [
        {
          "indexed": true,
          "internalType": "address",
          "name": "owner",
          "type": "address"
        },
        {
          "indexed": true,
          "internalType": "address",
          "name": "approved",
          "type": "address"
        },
        {
          "indexed": true,
          "internalType": "uint256",
          "name": "tokenId",
          "type": "uint256"
        }
      ],
      "name": "Approval",
      "type": "event"
    },
    {
      "anonymous": false,
      "inputs": [
        {
          "indexed": true,
          "internalType": "address",
          "name": "owner",
          "type": "address"
        },
        {
          "indexed": true,
          "internalType": "address",
          "name": "operator",
          "type": "address"
        },
        {
          "indexed": false,
          "internalType": "bool",
          "name": "approved",
          "type": "bool"
        }
      ],
      "name": "ApprovalForAll",
      "type": "event"
    },
    {
      "anonymous": false,
      "inputs": [
        {
          "indexed": false,
          "internalType": "uint8",
          "name": "version",
          "type": "uint8"
        }
      ],
      "name": "Initialized",
      "type": "event"
    },
    {
      "anonymous": false,
      "inputs": [
        {
          "indexed": true,
          "internalType": "address",
          "name": "previousOwner",
          "type": "address"
        },
        {
          "indexed": true,
          "internalType": "address",
          "name": "newOwner",
          "type": "address"
        }
      ],
      "name": "OwnershipTransferred",
      "type": "event"
    },
    {
      "anonymous": false,
      "inputs": [
        {
          "indexed": false,
          "internalType": "address",
          "name": "",
          "type": "address"
        },
        {
          "indexed": false,
          "internalType": "uint256",
          "name": "",
          "type": "uint256"
        }
      ],
      "name": "TicketSale",
      "type": "event"
    },
    {
      "anonymous": false,
      "inputs": [
        {
          "indexed": true,
          "internalType": "address",
          "name": "from",
          "type": "address"
        },
        {
          "indexed": true,
          "internalType": "address",
          "name": "to",
          "type": "address"
        },
        {
          "indexed": true,
          "internalType": "uint256",
          "name": "tokenId",
          "type": "uint256"
        }
      ],
      "name": "Transfer",
      "type": "event"
    },
    {
      "stateMutability": "payable",
      "type": "fallback"
    },
    {
      "inputs": [
        {
          "internalType": "address",
          "name": "to",
          "type": "address"
        },
        {
          "internalType": "uint256",
          "name": "tokenId",
          "type": "uint256"
        }
      ],
      "name": "approve",
      "outputs": [],
      "stateMutability": "nonpayable",
      "type": "function"
    },
    {
      "inputs": [
        {
          "internalType": "address",
          "name": "owner",
          "type": "address"
        }
      ],
      "name": "balanceOf",
      "outputs": [
        {
          "internalType": "uint256",
          "name": "",
          "type": "uint256"
        }
      ],
      "stateMutability": "view",
      "type": "function"
    },
    {
      "inputs": [
        {
          "internalType": "string",
          "name": "ticketType",
          "type": "string"
        }
      ],
      "name": "buyTicket",
      "outputs": [],
      "stateMutability": "payable",
      "type": "function"
    },
    {
      "inputs": [],
      "name": "eventData",
      "outputs": [
        {
          "internalType": "string",
          "name": "name",
          "type": "string"
        },
        {
          "internalType": "uint32",
          "name": "start",
          "type": "uint32"
        },
        {
          "internalType": "uint32",
          "name": "end",
          "type": "uint32"
        }
      ],
      "stateMutability": "view",
      "type": "function"
    },
    {
      "inputs": [
        {
          "internalType": "uint256",
          "name": "tokenId",
          "type": "uint256"
        }
      ],
      "name": "getApproved",
      "outputs": [
        {
          "internalType": "address",
          "name": "",
          "type": "address"
        }
      ],
      "stateMutability": "view",
      "type": "function"
    },
    {
      "inputs": [
        {
          "internalType": "string",
          "name": "_eventName",
          "type": "string"
        },
        {
          "internalType": "string",
          "name": "_eventSymbol",
          "type": "string"
        }
      ],
      "name": "initialize",
      "outputs": [],
      "stateMutability": "payable",
      "type": "function"
    },
    {
      "inputs": [
        {
          "internalType": "address",
          "name": "owner",
          "type": "address"
        },
        {
          "internalType": "address",
          "name": "operator",
          "type": "address"
        }
      ],
      "name": "isApprovedForAll",
      "outputs": [
        {
          "internalType": "bool",
          "name": "",
          "type": "bool"
        }
      ],
      "stateMutability": "view",
      "type": "function"
    },
    {
      "inputs": [],
      "name": "name",
      "outputs": [
        {
          "internalType": "string",
          "name": "",
          "type": "string"
        }
      ],
      "stateMutability": "view",
      "type": "function"
    },
    {
      "inputs": [],
      "name": "owner",
      "outputs": [
        {
          "internalType": "address",
          "name": "",
          "type": "address"
        }
      ],
      "stateMutability": "view",
      "type": "function"
    },
    {
      "inputs": [
        {
          "internalType": "uint256",
          "name": "tokenId",
          "type": "uint256"
        }
      ],
      "name": "ownerOf",
      "outputs": [
        {
          "internalType": "address",
          "name": "",
          "type": "address"
        }
      ],
      "stateMutability": "view",
      "type": "function"
    },
    {
      "inputs": [],
      "name": "renounceOwnership",
      "outputs": [],
      "stateMutability": "nonpayable",
      "type": "function"
    },
    {
      "inputs": [
        {
          "internalType": "address",
          "name": "from",
          "type": "address"
        },
        {
          "internalType": "address",
          "name": "to",
          "type": "address"
        },
        {
          "internalType": "uint256",
          "name": "tokenId",
          "type": "uint256"
        }
      ],
      "name": "safeTransferFrom",
      "outputs": [],
      "stateMutability": "nonpayable",
      "type": "function"
    },
    {
      "inputs": [
        {
          "internalType": "address",
          "name": "from",
          "type": "address"
        },
        {
          "internalType": "address",
          "name": "to",
          "type": "address"
        },
        {
          "internalType": "uint256",
          "name": "tokenId",
          "type": "uint256"
        },
        {
          "internalType": "bytes",
          "name": "data",
          "type": "bytes"
        }
      ],
      "name": "safeTransferFrom",
      "outputs": [],
      "stateMutability": "nonpayable",
      "type": "function"
    },
    {
      "inputs": [
        {
          "internalType": "address",
          "name": "operator",
          "type": "address"
        },
        {
          "internalType": "bool",
          "name": "approved",
          "type": "bool"
        }
      ],
      "name": "setApprovalForAll",
      "outputs": [],
      "stateMutability": "nonpayable",
      "type": "function"
    },
    {
      "inputs": [
        {
          "components": [
            {
              "internalType": "string",
              "name": "name",
              "type": "string"
            },
            {
              "internalType": "uint32",
              "name": "start",
              "type": "uint32"
            },
            {
              "internalType": "uint32",
              "name": "end",
              "type": "uint32"
            }
          ],
          "internalType": "struct IEventImplementation.EventData",
          "name": "_eventData",
          "type": "tuple"
        }
      ],
      "name": "setEventData",
      "outputs": [],
      "stateMutability": "nonpayable",
      "type": "function"
    },
    {
      "inputs": [
        {
          "internalType": "string[]",
          "name": "ticketTypes",
          "type": "string[]"
        },
        {
          "internalType": "uint256[]",
          "name": "supplies",
          "type": "uint256[]"
        },
        {
          "internalType": "uint256[]",
          "name": "prices",
          "type": "uint256[]"
        }
      ],
      "name": "setTicketData",
      "outputs": [],
      "stateMutability": "nonpayable",
      "type": "function"
    },
    {
      "inputs": [
        {
          "internalType": "bytes4",
          "name": "interfaceId",
          "type": "bytes4"
        }
      ],
      "name": "supportsInterface",
      "outputs": [
        {
          "internalType": "bool",
          "name": "",
          "type": "bool"
        }
      ],
      "stateMutability": "view",
      "type": "function"
    },
    {
      "inputs": [],
      "name": "symbol",
      "outputs": [
        {
          "internalType": "string",
          "name": "",
          "type": "string"
        }
      ],
      "stateMutability": "view",
      "type": "function"
    },
    {
      "inputs": [
        {
          "internalType": "string",
          "name": "",
          "type": "string"
        }
      ],
      "name": "tickets",
      "outputs": [
        {
          "internalType": "uint256",
          "name": "supply",
          "type": "uint256"
        },
        {
          "internalType": "uint256",
          "name": "price",
          "type": "uint256"
        }
      ],
      "stateMutability": "view",
      "type": "function"
    },
    {
      "inputs": [
        {
          "internalType": "uint256",
          "name": "tokenId",
          "type": "uint256"
        }
      ],
      "name": "tokenURI",
      "outputs": [
        {
          "internalType": "string",
          "name": "",
          "type": "string"
        }
      ],
      "stateMutability": "view",
      "type": "function"
    },
    {
      "inputs": [
        {
          "internalType": "address",
          "name": "from",
          "type": "address"
        },
        {
          "internalType": "address",
          "name": "to",
          "type": "address"
        },
        {
          "internalType": "uint256",
          "name": "tokenId",
          "type": "uint256"
        }
      ],
      "name": "transferFrom",
      "outputs": [],
      "stateMutability": "nonpayable",
      "type": "function"
    },
    {
      "inputs": [
        {
          "internalType": "address",
          "name": "newOwner",
          "type": "address"
        }
      ],
      "name": "transferOwnership",
      "outputs": [],
      "stateMutability": "nonpayable",
      "type": "function"
    },
    {
      "stateMutability": "payable",
      "type": "receive"
    }
  ],
  "bytecode": "0x60806040523480156200001157600080fd5b50620000226200002860201b60201c565b620001d2565b600060019054906101000a900460ff16156200007b576040517f08c379a0000000000000000000000000000000000000000000000000000000008152600401620000729062000175565b60405180910390fd5b60ff801660008054906101000a900460ff1660ff1614620000ec5760ff6000806101000a81548160ff021916908360ff1602179055507f7f26b83ff96e1f2b6a682f133852f6798a09c465da95921460cefb384740249860ff604051620000e39190620001b5565b60405180910390a15b565b600082825260208201905092915050565b7f496e697469616c697a61626c653a20636f6e747261637420697320696e69746960008201527f616c697a696e6700000000000000000000000000000000000000000000000000602082015250565b60006200015d602783620000ee565b91506200016a82620000ff565b604082019050919050565b6000602082019050818103600083015262000190816200014e565b9050919050565b600060ff82169050919050565b620001af8162000197565b82525050565b6000602082019050620001cc6000830184620001a4565b92915050565b61457180620001e26000396000f3fe6080604052600436106101395760003560e01c806370a08231116100ab578063a22cb4651161006f578063a22cb46514610422578063b88d4fde1461044b578063c87b56dd14610474578063e985e9c5146104b1578063f2fde38b146104ee578063fa30b2511461051757610140565b806370a082311461034f578063715018a61461038c5780638da5cb5b146103a357806390ac6813146103ce57806395d89b41146103f757610140565b8063254641e4116100fd578063254641e41461023957806329ae0b7f1461026657806342842e0e146102a45780634934b73e146102cd5780634cd88b76146102f65780636352211e1461031257610140565b806301ffc9a71461014257806306fdde031461017f578063081812fc146101aa578063095ea7b3146101e757806323b872dd1461021057610140565b3661014057005b005b34801561014e57600080fd5b50610169600480360381019061016491906126d3565b610533565b604051610176919061271b565b60405180910390f35b34801561018b57600080fd5b50610194610615565b6040516101a191906127c6565b60405180910390f35b3480156101b657600080fd5b506101d160048036038101906101cc919061281e565b6106a7565b6040516101de919061288c565b60405180910390f35b3480156101f357600080fd5b5061020e600480360381019061020991906128d3565b6106ed565b005b34801561021c57600080fd5b5061023760048036038101906102329190612913565b610804565b005b34801561024557600080fd5b5061024e610864565b60405161025d93929190612985565b60405180910390f35b34801561027257600080fd5b5061028d60048036038101906102889190612af8565b610924565b60405161029b929190612b50565b60405180910390f35b3480156102b057600080fd5b506102cb60048036038101906102c69190612913565b61095e565b005b3480156102d957600080fd5b506102f460048036038101906102ef9190612d22565b61097e565b005b610310600480360381019061030b9190612dc9565b610a3b565b005b34801561031e57600080fd5b506103396004803603810190610334919061281e565b610ba8565b604051610346919061288c565b60405180910390f35b34801561035b57600080fd5b5061037660048036038101906103719190612e41565b610c2e565b6040516103839190612e6e565b60405180910390f35b34801561039857600080fd5b506103a1610ce5565b005b3480156103af57600080fd5b506103b8610cf9565b6040516103c5919061288c565b60405180910390f35b3480156103da57600080fd5b506103f560048036038101906103f09190612ead565b610d23565b005b34801561040357600080fd5b5061040c610d76565b60405161041991906127c6565b60405180910390f35b34801561042e57600080fd5b5061044960048036038101906104449190612f22565b610e08565b005b34801561045757600080fd5b50610472600480360381019061046d9190613003565b610e1e565b005b34801561048057600080fd5b5061049b6004803603810190610496919061281e565b610e80565b6040516104a891906127c6565b60405180910390f35b3480156104bd57600080fd5b506104d860048036038101906104d39190613086565b610ee8565b6040516104e5919061271b565b60405180910390f35b3480156104fa57600080fd5b5061051560048036038101906105109190612e41565b610f7c565b005b610531600480360381019061052c9190613121565b610fff565b005b60007f80ac58cd000000000000000000000000000000000000000000000000000000007bffffffffffffffffffffffffffffffffffffffffffffffffffffffff1916827bffffffffffffffffffffffffffffffffffffffffffffffffffffffff191614806105fe57507f5b5e139f000000000000000000000000000000000000000000000000000000007bffffffffffffffffffffffffffffffffffffffffffffffffffffffff1916827bffffffffffffffffffffffffffffffffffffffffffffffffffffffff1916145b8061060e575061060d82611152565b5b9050919050565b6060606580546106249061319d565b80601f01602080910402602001604051908101604052809291908181526020018280546106509061319d565b801561069d5780601f106106725761010080835404028352916020019161069d565b820191906000526020600020905b81548152906001019060200180831161068057829003601f168201915b5050505050905090565b60006106b2826111bc565b6069600083815260200190815260200160002060009054906101000a900473ffffffffffffffffffffffffffffffffffffffff169050919050565b60006106f882610ba8565b90508073ffffffffffffffffffffffffffffffffffffffff168373ffffffffffffffffffffffffffffffffffffffff1603610768576040517f08c379a000000000000000000000000000000000000000000000000000000000815260040161075f90613240565b60405180910390fd5b8073ffffffffffffffffffffffffffffffffffffffff16610787611207565b73ffffffffffffffffffffffffffffffffffffffff1614806107b657506107b5816107b0611207565b610ee8565b5b6107f5576040517f08c379a00000000000000000000000000000000000000000000000000000000081526004016107ec906132d2565b60405180910390fd5b6107ff838361120f565b505050565b61081561080f611207565b826112c8565b610854576040517f08c379a000000000000000000000000000000000000000000000000000000000815260040161084b90613364565b60405180910390fd5b61085f83838361135d565b505050565b60ca8060000180546108759061319d565b80601f01602080910402602001604051908101604052809291908181526020018280546108a19061319d565b80156108ee5780601f106108c3576101008083540402835291602001916108ee565b820191906000526020600020905b8154815290600101906020018083116108d157829003601f168201915b5050505050908060010160009054906101000a900463ffffffff16908060010160049054906101000a900463ffffffff16905083565b60cc818051602081018201805184825260208301602085012081835280955050505050506000915090508060000154908060010154905082565b61097983838360405180602001604052806000815250610e1e565b505050565b60005b8351811015610a355760405180604001604052808483815181106109a8576109a7613384565b5b602002602001015181526020018383815181106109c8576109c7613384565b5b602002602001015181525060cc8583815181106109e8576109e7613384565b5b60200260200101516040516109fd91906133ef565b908152602001604051809103902060008201518160000155602082015181600101559050508080610a2d90613435565b915050610981565b50505050565b60008060019054906101000a900460ff16159050808015610a6c5750600160008054906101000a900460ff1660ff16105b80610a995750610a7b30611656565b158015610a985750600160008054906101000a900460ff1660ff16145b5b610ad8576040517f08c379a0000000000000000000000000000000000000000000000000000000008152600401610acf906134ef565b60405180910390fd5b60016000806101000a81548160ff021916908360ff1602179055508015610b15576001600060016101000a81548160ff0219169083151502179055505b610b1d611679565b610b2783836116d2565b610b4a6040518060600160405280602481526020016144f060249139848461172f565b8015610ba35760008060016101000a81548160ff0219169083151502179055507f7f26b83ff96e1f2b6a682f133852f6798a09c465da95921460cefb38474024986001604051610b9a9190613561565b60405180910390a15b505050565b600080610bb4836117ce565b9050600073ffffffffffffffffffffffffffffffffffffffff168173ffffffffffffffffffffffffffffffffffffffff1603610c25576040517f08c379a0000000000000000000000000000000000000000000000000000000008152600401610c1c906135c8565b60405180910390fd5b80915050919050565b60008073ffffffffffffffffffffffffffffffffffffffff168273ffffffffffffffffffffffffffffffffffffffff1603610c9e576040517f08c379a0000000000000000000000000000000000000000000000000000000008152600401610c959061365a565b60405180910390fd5b606860008373ffffffffffffffffffffffffffffffffffffffff1673ffffffffffffffffffffffffffffffffffffffff168152602001908152602001600020549050919050565b610ced61180b565b610cf76000611889565b565b6000609760009054906101000a900473ffffffffffffffffffffffffffffffffffffffff16905090565b8060ca8181610d329190613ae9565b905050610d736040518060400160405280601381526020017f7573616f2075207365744576656e74446174610000000000000000000000000081525061194f565b50565b606060668054610d859061319d565b80601f0160208091040260200160405190810160405280929190818152602001828054610db19061319d565b8015610dfe5780601f10610dd357610100808354040283529160200191610dfe565b820191906000526020600020905b815481529060010190602001808311610de157829003601f168201915b5050505050905090565b610e1a610e13611207565b83836119e8565b5050565b610e2f610e29611207565b836112c8565b610e6e576040517f08c379a0000000000000000000000000000000000000000000000000000000008152600401610e6590613364565b60405180910390fd5b610e7a84848484611b54565b50505050565b6060610e8b826111bc565b6000610e95611bb0565b90506000815111610eb55760405180602001604052806000815250610ee0565b80610ebf84611c05565b604051602001610ed0929190613af7565b6040516020818303038152906040525b915050919050565b6000606a60008473ffffffffffffffffffffffffffffffffffffffff1673ffffffffffffffffffffffffffffffffffffffff16815260200190815260200160002060008373ffffffffffffffffffffffffffffffffffffffff1673ffffffffffffffffffffffffffffffffffffffff16815260200190815260200160002060009054906101000a900460ff16905092915050565b610f8461180b565b600073ffffffffffffffffffffffffffffffffffffffff168173ffffffffffffffffffffffffffffffffffffffff1603610ff3576040517f08c379a0000000000000000000000000000000000000000000000000000000008152600401610fea90613b8d565b60405180910390fd5b610ffc81611889565b50565b600060cc8383604051611013929190613bd2565b90815260200160405180910390206000015411611065576040517f08c379a000000000000000000000000000000000000000000000000000000000815260040161105c90613c37565b60405180910390fd5b60cc8282604051611077929190613bd2565b90815260200160405180910390206001015434146110ca576040517f08c379a00000000000000000000000000000000000000000000000000000000081526004016110c190613cc9565b60405180910390fd5b6110d333611cd3565b60cc82826040516110e5929190613bd2565b9081526020016040518091039020600001600081548092919061110790613ce9565b91905055507fb307cbfc9a41a392c2febb6872adfc8e21e700c445b7a5c71ced7d41344ccd023061113860c9611cf9565b604051611146929190613d12565b60405180910390a15050565b60007f01ffc9a7000000000000000000000000000000000000000000000000000000007bffffffffffffffffffffffffffffffffffffffffffffffffffffffff1916827bffffffffffffffffffffffffffffffffffffffffffffffffffffffff1916149050919050565b6111c581611d07565b611204576040517f08c379a00000000000000000000000000000000000000000000000000000000081526004016111fb906135c8565b60405180910390fd5b50565b600033905090565b816069600083815260200190815260200160002060006101000a81548173ffffffffffffffffffffffffffffffffffffffff021916908373ffffffffffffffffffffffffffffffffffffffff160217905550808273ffffffffffffffffffffffffffffffffffffffff1661128283610ba8565b73ffffffffffffffffffffffffffffffffffffffff167f8c5be1e5ebec7d5bd14f71427d1e84f3dd0314c0f7b2291e5b200ac8c7c3b92560405160405180910390a45050565b6000806112d483610ba8565b90508073ffffffffffffffffffffffffffffffffffffffff168473ffffffffffffffffffffffffffffffffffffffff16148061131657506113158185610ee8565b5b8061135457508373ffffffffffffffffffffffffffffffffffffffff1661133c846106a7565b73ffffffffffffffffffffffffffffffffffffffff16145b91505092915050565b8273ffffffffffffffffffffffffffffffffffffffff1661137d82610ba8565b73ffffffffffffffffffffffffffffffffffffffff16146113d3576040517f08c379a00000000000000000000000000000000000000000000000000000000081526004016113ca90613dad565b60405180910390fd5b600073ffffffffffffffffffffffffffffffffffffffff168273ffffffffffffffffffffffffffffffffffffffff1603611442576040517f08c379a000000000000000000000000000000000000000000000000000000000815260040161143990613e3f565b60405180910390fd5b61144f8383836001611d48565b8273ffffffffffffffffffffffffffffffffffffffff1661146f82610ba8565b73ffffffffffffffffffffffffffffffffffffffff16146114c5576040517f08c379a00000000000000000000000000000000000000000000000000000000081526004016114bc90613dad565b60405180910390fd5b6069600082815260200190815260200160002060006101000a81549073ffffffffffffffffffffffffffffffffffffffff02191690556001606860008573ffffffffffffffffffffffffffffffffffffffff1673ffffffffffffffffffffffffffffffffffffffff168152602001908152602001600020600082825403925050819055506001606860008473ffffffffffffffffffffffffffffffffffffffff1673ffffffffffffffffffffffffffffffffffffffff16815260200190815260200160002060008282540192505081905550816067600083815260200190815260200160002060006101000a81548173ffffffffffffffffffffffffffffffffffffffff021916908373ffffffffffffffffffffffffffffffffffffffff160217905550808273ffffffffffffffffffffffffffffffffffffffff168473ffffffffffffffffffffffffffffffffffffffff167fddf252ad1be2c89b69c2b068fc378daa952ba7f163c4a11628f55a4df523b3ef60405160405180910390a46116518383836001611d4e565b505050565b6000808273ffffffffffffffffffffffffffffffffffffffff163b119050919050565b600060019054906101000a900460ff166116c8576040517f08c379a00000000000000000000000000000000000000000000000000000000081526004016116bf90613ed1565b60405180910390fd5b6116d0611d54565b565b600060019054906101000a900460ff16611721576040517f08c379a000000000000000000000000000000000000000000000000000000000815260040161171890613ed1565b60405180910390fd5b61172b8282611db5565b5050565b6117c983838360405160240161174793929190613ef1565b6040516020818303038152906040527f2ced7cef000000000000000000000000000000000000000000000000000000007bffffffffffffffffffffffffffffffffffffffffffffffffffffffff19166020820180517bffffffffffffffffffffffffffffffffffffffffffffffffffffffff8381831617835250505050611e28565b505050565b60006067600083815260200190815260200160002060009054906101000a900473ffffffffffffffffffffffffffffffffffffffff169050919050565b611813611207565b73ffffffffffffffffffffffffffffffffffffffff16611831610cf9565b73ffffffffffffffffffffffffffffffffffffffff1614611887576040517f08c379a000000000000000000000000000000000000000000000000000000000815260040161187e90613f89565b60405180910390fd5b565b6000609760009054906101000a900473ffffffffffffffffffffffffffffffffffffffff16905081609760006101000a81548173ffffffffffffffffffffffffffffffffffffffff021916908373ffffffffffffffffffffffffffffffffffffffff1602179055508173ffffffffffffffffffffffffffffffffffffffff168173ffffffffffffffffffffffffffffffffffffffff167f8be0079c531659141344cd1fd0a4f28419497f9722a3daafe3b4186f6b6457e060405160405180910390a35050565b6119e58160405160240161196391906127c6565b6040516020818303038152906040527f41304fac000000000000000000000000000000000000000000000000000000007bffffffffffffffffffffffffffffffffffffffffffffffffffffffff19166020820180517bffffffffffffffffffffffffffffffffffffffffffffffffffffffff8381831617835250505050611e28565b50565b8173ffffffffffffffffffffffffffffffffffffffff168373ffffffffffffffffffffffffffffffffffffffff1603611a56576040517f08c379a0000000000000000000000000000000000000000000000000000000008152600401611a4d90613ff5565b60405180910390fd5b80606a60008573ffffffffffffffffffffffffffffffffffffffff1673ffffffffffffffffffffffffffffffffffffffff16815260200190815260200160002060008473ffffffffffffffffffffffffffffffffffffffff1673ffffffffffffffffffffffffffffffffffffffff16815260200190815260200160002060006101000a81548160ff0219169083151502179055508173ffffffffffffffffffffffffffffffffffffffff168373ffffffffffffffffffffffffffffffffffffffff167f17307eab39ab6107e8899845ad3d59bd9653f200f220920489ca2b5937696c3183604051611b47919061271b565b60405180910390a3505050565b611b5f84848461135d565b611b6b84848484611e42565b611baa576040517f08c379a0000000000000000000000000000000000000000000000000000000008152600401611ba190614087565b60405180910390fd5b50505050565b606060006040518060600160405280602881526020016145146028913990506000611bda30611fc9565b90508181604051602001611bef9291906140f3565b6040516020818303038152906040529250505090565b606060006001611c1484611ff6565b01905060008167ffffffffffffffff811115611c3357611c326129cd565b5b6040519080825280601f01601f191660200182016040528015611c655781602001600182028036833780820191505090505b509050600082602001820190505b600115611cc8578080600190039150507f3031323334353637383961626364656600000000000000000000000000000000600a86061a8153600a8581611cbc57611cbb614122565b5b04945060008503611c73575b819350505050919050565b611cdd60c9612149565b6000611ce960c9611cf9565b9050611cf5828261215f565b5050565b600081600001549050919050565b60008073ffffffffffffffffffffffffffffffffffffffff16611d29836117ce565b73ffffffffffffffffffffffffffffffffffffffff1614159050919050565b50505050565b50505050565b600060019054906101000a900460ff16611da3576040517f08c379a0000000000000000000000000000000000000000000000000000000008152600401611d9a90613ed1565b60405180910390fd5b611db3611dae611207565b611889565b565b600060019054906101000a900460ff16611e04576040517f08c379a0000000000000000000000000000000000000000000000000000000008152600401611dfb90613ed1565b60405180910390fd5b8160659081611e139190614151565b508060669081611e239190614151565b505050565b611e3f81611e3761217d61219e565b63ffffffff16565b50565b6000611e638473ffffffffffffffffffffffffffffffffffffffff16611656565b15611fbc578373ffffffffffffffffffffffffffffffffffffffff1663150b7a02611e8c611207565b8786866040518563ffffffff1660e01b8152600401611eae9493929190614278565b6020604051808303816000875af1925050508015611eea57506040513d601f19601f82011682018060405250810190611ee791906142d9565b60015b611f6c573d8060008114611f1a576040519150601f19603f3d011682016040523d82523d6000602084013e611f1f565b606091505b506000815103611f64576040517f08c379a0000000000000000000000000000000000000000000000000000000008152600401611f5b90614087565b60405180910390fd5b805181602001fd5b63150b7a0260e01b7bffffffffffffffffffffffffffffffffffffffffffffffffffffffff1916817bffffffffffffffffffffffffffffffffffffffffffffffffffffffff191614915050611fc1565b600190505b949350505050565b6060611fef8273ffffffffffffffffffffffffffffffffffffffff16601460ff166121a9565b9050919050565b600080600090507a184f03e93ff9f4daa797ed6e38ed64bf6a1f0100000000000000008310612054577a184f03e93ff9f4daa797ed6e38ed64bf6a1f010000000000000000838161204a57612049614122565b5b0492506040810190505b6d04ee2d6d415b85acef81000000008310612091576d04ee2d6d415b85acef8100000000838161208757612086614122565b5b0492506020810190505b662386f26fc1000083106120c057662386f26fc1000083816120b6576120b5614122565b5b0492506010810190505b6305f5e10083106120e9576305f5e10083816120df576120de614122565b5b0492506008810190505b612710831061210e57612710838161210457612103614122565b5b0492506004810190505b60648310612131576064838161212757612126614122565b5b0492506002810190505b600a8310612140576001810190505b80915050919050565b6001816000016000828254019250508190555050565b6121798282604051806020016040528060008152506123e5565b5050565b60006a636f6e736f6c652e6c6f679050600080835160208501845afa505050565b61265d819050919050565b6060600060028360026121bc9190614306565b6121c69190614348565b67ffffffffffffffff8111156121df576121de6129cd565b5b6040519080825280601f01601f1916602001820160405280156122115781602001600182028036833780820191505090505b5090507f30000000000000000000000000000000000000000000000000000000000000008160008151811061224957612248613384565b5b60200101907effffffffffffffffffffffffffffffffffffffffffffffffffffffffffffff1916908160001a9053507f7800000000000000000000000000000000000000000000000000000000000000816001815181106122ad576122ac613384565b5b60200101907effffffffffffffffffffffffffffffffffffffffffffffffffffffffffffff1916908160001a905350600060018460026122ed9190614306565b6122f79190614348565b90505b6001811115612397577f3031323334353637383961626364656600000000000000000000000000000000600f86166010811061233957612338613384565b5b1a60f81b8282815181106123505761234f613384565b5b60200101907effffffffffffffffffffffffffffffffffffffffffffffffffffffffffffff1916908160001a905350600485901c94508061239090613ce9565b90506122fa565b50600084146123db576040517f08c379a00000000000000000000000000000000000000000000000000000000081526004016123d2906143c8565b60405180910390fd5b8091505092915050565b6123ef8383612440565b6123fc6000848484611e42565b61243b576040517f08c379a000000000000000000000000000000000000000000000000000000000815260040161243290614087565b60405180910390fd5b505050565b600073ffffffffffffffffffffffffffffffffffffffff168273ffffffffffffffffffffffffffffffffffffffff16036124af576040517f08c379a00000000000000000000000000000000000000000000000000000000081526004016124a690614434565b60405180910390fd5b6124b881611d07565b156124f8576040517f08c379a00000000000000000000000000000000000000000000000000000000081526004016124ef906144a0565b60405180910390fd5b612506600083836001611d48565b61250f81611d07565b1561254f576040517f08c379a0000000000000000000000000000000000000000000000000000000008152600401612546906144a0565b60405180910390fd5b6001606860008473ffffffffffffffffffffffffffffffffffffffff1673ffffffffffffffffffffffffffffffffffffffff16815260200190815260200160002060008282540192505081905550816067600083815260200190815260200160002060006101000a81548173ffffffffffffffffffffffffffffffffffffffff021916908373ffffffffffffffffffffffffffffffffffffffff160217905550808273ffffffffffffffffffffffffffffffffffffffff16600073ffffffffffffffffffffffffffffffffffffffff167fddf252ad1be2c89b69c2b068fc378daa952ba7f163c4a11628f55a4df523b3ef60405160405180910390a4612659600083836001611d4e565b5050565b6126656144c0565b565b6000604051905090565b600080fd5b600080fd5b60007fffffffff0000000000000000000000000000000000000000000000000000000082169050919050565b6126b08161267b565b81146126bb57600080fd5b50565b6000813590506126cd816126a7565b92915050565b6000602082840312156126e9576126e8612671565b5b60006126f7848285016126be565b91505092915050565b60008115159050919050565b61271581612700565b82525050565b6000602082019050612730600083018461270c565b92915050565b600081519050919050565b600082825260208201905092915050565b60005b83811015612770578082015181840152602081019050612755565b60008484015250505050565b6000601f19601f8301169050919050565b600061279882612736565b6127a28185612741565b93506127b2818560208601612752565b6127bb8161277c565b840191505092915050565b600060208201905081810360008301526127e0818461278d565b905092915050565b6000819050919050565b6127fb816127e8565b811461280657600080fd5b50565b600081359050612818816127f2565b92915050565b60006020828403121561283457612833612671565b5b600061284284828501612809565b91505092915050565b600073ffffffffffffffffffffffffffffffffffffffff82169050919050565b60006128768261284b565b9050919050565b6128868161286b565b82525050565b60006020820190506128a1600083018461287d565b92915050565b6128b08161286b565b81146128bb57600080fd5b50565b6000813590506128cd816128a7565b92915050565b600080604083850312156128ea576128e9612671565b5b60006128f8858286016128be565b925050602061290985828601612809565b9150509250929050565b60008060006060848603121561292c5761292b612671565b5b600061293a868287016128be565b935050602061294b868287016128be565b925050604061295c86828701612809565b9150509250925092565b600063ffffffff82169050919050565b61297f81612966565b82525050565b6000606082019050818103600083015261299f818661278d565b90506129ae6020830185612976565b6129bb6040830184612976565b949350505050565b600080fd5b600080fd5b7f4e487b7100000000000000000000000000000000000000000000000000000000600052604160045260246000fd5b612a058261277c565b810181811067ffffffffffffffff82111715612a2457612a236129cd565b5b80604052505050565b6000612a37612667565b9050612a4382826129fc565b919050565b600067ffffffffffffffff821115612a6357612a626129cd565b5b612a6c8261277c565b9050602081019050919050565b82818337600083830152505050565b6000612a9b612a9684612a48565b612a2d565b905082815260208101848484011115612ab757612ab66129c8565b5b612ac2848285612a79565b509392505050565b600082601f830112612adf57612ade6129c3565b5b8135612aef848260208601612a88565b91505092915050565b600060208284031215612b0e57612b0d612671565b5b600082013567ffffffffffffffff811115612b2c57612b2b612676565b5b612b3884828501612aca565b91505092915050565b612b4a816127e8565b82525050565b6000604082019050612b656000830185612b41565b612b726020830184612b41565b9392505050565b600067ffffffffffffffff821115612b9457612b936129cd565b5b602082029050602081019050919050565b600080fd5b6000612bbd612bb884612b79565b612a2d565b90508083825260208201905060208402830185811115612be057612bdf612ba5565b5b835b81811015612c2757803567ffffffffffffffff811115612c0557612c046129c3565b5b808601612c128982612aca565b85526020850194505050602081019050612be2565b5050509392505050565b600082601f830112612c4657612c456129c3565b5b8135612c56848260208601612baa565b91505092915050565b600067ffffffffffffffff821115612c7a57612c796129cd565b5b602082029050602081019050919050565b6000612c9e612c9984612c5f565b612a2d565b90508083825260208201905060208402830185811115612cc157612cc0612ba5565b5b835b81811015612cea5780612cd68882612809565b845260208401935050602081019050612cc3565b5050509392505050565b600082601f830112612d0957612d086129c3565b5b8135612d19848260208601612c8b565b91505092915050565b600080600060608486031215612d3b57612d3a612671565b5b600084013567ffffffffffffffff811115612d5957612d58612676565b5b612d6586828701612c31565b935050602084013567ffffffffffffffff811115612d8657612d85612676565b5b612d9286828701612cf4565b925050604084013567ffffffffffffffff811115612db357612db2612676565b5b612dbf86828701612cf4565b9150509250925092565b60008060408385031215612de057612ddf612671565b5b600083013567ffffffffffffffff811115612dfe57612dfd612676565b5b612e0a85828601612aca565b925050602083013567ffffffffffffffff811115612e2b57612e2a612676565b5b612e3785828601612aca565b9150509250929050565b600060208284031215612e5757612e56612671565b5b6000612e65848285016128be565b91505092915050565b6000602082019050612e836000830184612b41565b92915050565b600080fd5b600060608284031215612ea457612ea3612e89565b5b81905092915050565b600060208284031215612ec357612ec2612671565b5b600082013567ffffffffffffffff811115612ee157612ee0612676565b5b612eed84828501612e8e565b91505092915050565b612eff81612700565b8114612f0a57600080fd5b50565b600081359050612f1c81612ef6565b92915050565b60008060408385031215612f3957612f38612671565b5b6000612f47858286016128be565b9250506020612f5885828601612f0d565b9150509250929050565b600067ffffffffffffffff821115612f7d57612f7c6129cd565b5b612f868261277c565b9050602081019050919050565b6000612fa6612fa184612f62565b612a2d565b905082815260208101848484011115612fc257612fc16129c8565b5b612fcd848285612a79565b509392505050565b600082601f830112612fea57612fe96129c3565b5b8135612ffa848260208601612f93565b91505092915050565b6000806000806080858703121561301d5761301c612671565b5b600061302b878288016128be565b945050602061303c878288016128be565b935050604061304d87828801612809565b925050606085013567ffffffffffffffff81111561306e5761306d612676565b5b61307a87828801612fd5565b91505092959194509250565b6000806040838503121561309d5761309c612671565b5b60006130ab858286016128be565b92505060206130bc858286016128be565b9150509250929050565b600080fd5b60008083601f8401126130e1576130e06129c3565b5b8235905067ffffffffffffffff8111156130fe576130fd6130c6565b5b60208301915083600182028301111561311a57613119612ba5565b5b9250929050565b6000806020838503121561313857613137612671565b5b600083013567ffffffffffffffff81111561315657613155612676565b5b613162858286016130cb565b92509250509250929050565b7f4e487b7100000000000000000000000000000000000000000000000000000000600052602260045260246000fd5b600060028204905060018216806131b557607f821691505b6020821081036131c8576131c761316e565b5b50919050565b7f4552433732313a20617070726f76616c20746f2063757272656e74206f776e6560008201527f7200000000000000000000000000000000000000000000000000000000000000602082015250565b600061322a602183612741565b9150613235826131ce565b604082019050919050565b600060208201905081810360008301526132598161321d565b9050919050565b7f4552433732313a20617070726f76652063616c6c6572206973206e6f7420746f60008201527f6b656e206f776e6572206f7220617070726f76656420666f7220616c6c000000602082015250565b60006132bc603d83612741565b91506132c782613260565b604082019050919050565b600060208201905081810360008301526132eb816132af565b9050919050565b7f4552433732313a2063616c6c6572206973206e6f7420746f6b656e206f776e6560008201527f72206f7220617070726f76656400000000000000000000000000000000000000602082015250565b600061334e602d83612741565b9150613359826132f2565b604082019050919050565b6000602082019050818103600083015261337d81613341565b9050919050565b7f4e487b7100000000000000000000000000000000000000000000000000000000600052603260045260246000fd5b600081905092915050565b60006133c982612736565b6133d381856133b3565b93506133e3818560208601612752565b80840191505092915050565b60006133fb82846133be565b915081905092915050565b7f4e487b7100000000000000000000000000000000000000000000000000000000600052601160045260246000fd5b6000613440826127e8565b91507fffffffffffffffffffffffffffffffffffffffffffffffffffffffffffffffff820361347257613471613406565b5b600182019050919050565b7f496e697469616c697a61626c653a20636f6e747261637420697320616c72656160008201527f647920696e697469616c697a6564000000000000000000000000000000000000602082015250565b60006134d9602e83612741565b91506134e48261347d565b604082019050919050565b60006020820190508181036000830152613508816134cc565b9050919050565b6000819050919050565b600060ff82169050919050565b6000819050919050565b600061354b6135466135418461350f565b613526565b613519565b9050919050565b61355b81613530565b82525050565b60006020820190506135766000830184613552565b92915050565b7f4552433732313a20696e76616c696420746f6b656e2049440000000000000000600082015250565b60006135b2601883612741565b91506135bd8261357c565b602082019050919050565b600060208201905081810360008301526135e1816135a5565b9050919050565b7f4552433732313a2061646472657373207a65726f206973206e6f74206120766160008201527f6c6964206f776e65720000000000000000000000000000000000000000000000602082015250565b6000613644602983612741565b915061364f826135e8565b604082019050919050565b6000602082019050818103600083015261367381613637565b9050919050565b600080fd5b600080fd5b600080fd5b600080833560016020038436030381126136a6576136a561367a565b5b80840192508235915067ffffffffffffffff8211156136c8576136c761367f565b5b6020830192506001820236038313156136e4576136e3613684565b5b509250929050565b600082905092915050565b60008190508160005260206000209050919050565b60006020601f8301049050919050565b600082821b905092915050565b6000600883026137597fffffffffffffffffffffffffffffffffffffffffffffffffffffffffffffffff8261371c565b613763868361371c565b95508019841693508086168417925050509392505050565b600061379661379161378c846127e8565b613526565b6127e8565b9050919050565b6000819050919050565b6137b08361377b565b6137c46137bc8261379d565b848454613729565b825550505050565b600090565b6137d96137cc565b6137e48184846137a7565b505050565b5b81811015613808576137fd6000826137d1565b6001810190506137ea565b5050565b601f82111561384d5761381e816136f7565b6138278461370c565b81016020851015613836578190505b61384a6138428561370c565b8301826137e9565b50505b505050565b600082821c905092915050565b600061387060001984600802613852565b1980831691505092915050565b6000613889838361385f565b9150826002028217905092915050565b6138a383836136ec565b67ffffffffffffffff8111156138bc576138bb6129cd565b5b6138c6825461319d565b6138d182828561380c565b6000601f83116001811461390057600084156138ee578287013590505b6138f8858261387d565b865550613960565b601f19841661390e866136f7565b60005b8281101561393657848901358255600182019150602085019450602081019050613911565b86831015613953578489013561394f601f89168261385f565b8355505b6001600288020188555050505b50505050505050565b613974838383613899565b505050565b61398281612966565b811461398d57600080fd5b50565b6000813561399d81613979565b80915050919050565b60008160001b9050919050565b600063ffffffff6139c3846139a6565b9350801983169250808416831791505092915050565b60006139f46139ef6139ea84612966565b613526565b612966565b9050919050565b6000819050919050565b613a0e826139d9565b613a21613a1a826139fb565b83546139b3565b8255505050565b60008160201b9050919050565b600067ffffffff00000000613a4984613a28565b9350801983169250808416831791505092915050565b613a68826139d9565b613a7b613a74826139fb565b8354613a35565b8255505050565b6000810160008301613a948185613689565b613a9f818386613969565b50505050600181016020830180613ab581613990565b9050613ac18184613a05565b505050600181016040830180613ad681613990565b9050613ae28184613a5f565b5050505050565b613af38282613a82565b5050565b6000613b0382856133be565b9150613b0f82846133be565b91508190509392505050565b7f4f776e61626c653a206e6577206f776e657220697320746865207a65726f206160008201527f6464726573730000000000000000000000000000000000000000000000000000602082015250565b6000613b77602683612741565b9150613b8282613b1b565b604082019050919050565b60006020820190508181036000830152613ba681613b6a565b9050919050565b6000613bb983856133b3565b9350613bc6838584612a79565b82840190509392505050565b6000613bdf828486613bad565b91508190509392505050565b7f5469636b6574732061726520736f6c64206f7574000000000000000000000000600082015250565b6000613c21601483612741565b9150613c2c82613beb565b602082019050919050565b60006020820190508181036000830152613c5081613c14565b9050919050565b7f4e6f7420656e6f75676820657468657220746f2070617920666f72207468652060008201527f7469636b65740000000000000000000000000000000000000000000000000000602082015250565b6000613cb3602683612741565b9150613cbe82613c57565b604082019050919050565b60006020820190508181036000830152613ce281613ca6565b9050919050565b6000613cf4826127e8565b915060008203613d0757613d06613406565b5b600182039050919050565b6000604082019050613d27600083018561287d565b613d346020830184612b41565b9392505050565b7f4552433732313a207472616e736665722066726f6d20696e636f72726563742060008201527f6f776e6572000000000000000000000000000000000000000000000000000000602082015250565b6000613d97602583612741565b9150613da282613d3b565b604082019050919050565b60006020820190508181036000830152613dc681613d8a565b9050919050565b7f4552433732313a207472616e7366657220746f20746865207a65726f2061646460008201527f7265737300000000000000000000000000000000000000000000000000000000602082015250565b6000613e29602483612741565b9150613e3482613dcd565b604082019050919050565b60006020820190508181036000830152613e5881613e1c565b9050919050565b7f496e697469616c697a61626c653a20636f6e7472616374206973206e6f74206960008201527f6e697469616c697a696e67000000000000000000000000000000000000000000602082015250565b6000613ebb602b83612741565b9150613ec682613e5f565b604082019050919050565b60006020820190508181036000830152613eea81613eae565b9050919050565b60006060820190508181036000830152613f0b818661278d565b90508181036020830152613f1f818561278d565b90508181036040830152613f33818461278d565b9050949350505050565b7f4f776e61626c653a2063616c6c6572206973206e6f7420746865206f776e6572600082015250565b6000613f73602083612741565b9150613f7e82613f3d565b602082019050919050565b60006020820190508181036000830152613fa281613f66565b9050919050565b7f4552433732313a20617070726f766520746f2063616c6c657200000000000000600082015250565b6000613fdf601983612741565b9150613fea82613fa9565b602082019050919050565b6000602082019050818103600083015261400e81613fd2565b9050919050565b7f4552433732313a207472616e7366657220746f206e6f6e20455243373231526560008201527f63656976657220696d706c656d656e7465720000000000000000000000000000602082015250565b6000614071603283612741565b915061407c82614015565b604082019050919050565b600060208201905081810360008301526140a081614064565b9050919050565b7f2f00000000000000000000000000000000000000000000000000000000000000600082015250565b60006140dd6001836133b3565b91506140e8826140a7565b600182019050919050565b60006140ff82856133be565b915061410b82846133be565b9150614116826140d0565b91508190509392505050565b7f4e487b7100000000000000000000000000000000000000000000000000000000600052601260045260246000fd5b61415a82612736565b67ffffffffffffffff811115614173576141726129cd565b5b61417d825461319d565b61418882828561380c565b600060209050601f8311600181146141bb57600084156141a9578287015190505b6141b3858261387d565b86555061421b565b601f1984166141c9866136f7565b60005b828110156141f1578489015182556001820191506020850194506020810190506141cc565b8683101561420e578489015161420a601f89168261385f565b8355505b6001600288020188555050505b505050505050565b600081519050919050565b600082825260208201905092915050565b600061424a82614223565b614254818561422e565b9350614264818560208601612752565b61426d8161277c565b840191505092915050565b600060808201905061428d600083018761287d565b61429a602083018661287d565b6142a76040830185612b41565b81810360608301526142b9818461423f565b905095945050505050565b6000815190506142d3816126a7565b92915050565b6000602082840312156142ef576142ee612671565b5b60006142fd848285016142c4565b91505092915050565b6000614311826127e8565b915061431c836127e8565b925082820261432a816127e8565b9150828204841483151761434157614340613406565b5b5092915050565b6000614353826127e8565b915061435e836127e8565b925082820190508082111561437657614375613406565b5b92915050565b7f537472696e67733a20686578206c656e67746820696e73756666696369656e74600082015250565b60006143b2602083612741565b91506143bd8261437c565b602082019050919050565b600060208201905081810360008301526143e1816143a5565b9050919050565b7f4552433732313a206d696e7420746f20746865207a65726f2061646472657373600082015250565b600061441e602083612741565b9150614429826143e8565b602082019050919050565b6000602082019050818103600083015261444d81614411565b9050919050565b7f4552433732313a20746f6b656e20616c7265616479206d696e74656400000000600082015250565b600061448a601c83612741565b915061449582614454565b602082019050919050565b600060208201905081810360008301526144b98161447d565b9050919050565b7f4e487b7100000000000000000000000000000000000000000000000000000000600052605160045260246000fdfe2573206e616d652073657276696365206465706c6f7965642e2053796d626f6c3a20257368747470733a2f2f73686f77737461727465722e6e65746c6966792e6170702f7469636b6574732fa2646970667358221220bc6502849f5524a5e0d35d2af1a19618d397a435a73c58decc5801dc5c9f6f1164736f6c63430008130033",
  "linkReferences": {},
  "deployedLinkReferences": {}
}