{
  "_format": "hh-sol-artifact-1",
  "contractName": "EventImplementation",
  "sourceName": "contracts/EventImplementation.sol",
  "abi": [
    {
      "inputs": [],
      "stateMutability": "nonpayable",
      "type": "constructor"
    },
    {
      "anonymous": false,
      "inputs": [
        {
          "indexed": true,
          "internalType": "address",
          "name": "owner",
          "type": "address"
        },
        {
          "indexed": true,
          "internalType": "address",
          "name": "approved",
          "type": "address"
        },
        {
          "indexed": true,
          "internalType": "uint256",
          "name": "tokenId",
          "type": "uint256"
        }
      ],
      "name": "Approval",
      "type": "event"
    },
    {
      "anonymous": false,
      "inputs": [
        {
          "indexed": true,
          "internalType": "address",
          "name": "owner",
          "type": "address"
        },
        {
          "indexed": true,
          "internalType": "address",
          "name": "operator",
          "type": "address"
        },
        {
          "indexed": false,
          "internalType": "bool",
          "name": "approved",
          "type": "bool"
        }
      ],
      "name": "ApprovalForAll",
      "type": "event"
    },
    {
      "anonymous": false,
      "inputs": [
        {
          "indexed": false,
          "internalType": "uint8",
          "name": "version",
          "type": "uint8"
        }
      ],
      "name": "Initialized",
      "type": "event"
    },
    {
      "anonymous": false,
      "inputs": [
        {
          "indexed": true,
          "internalType": "address",
          "name": "previousOwner",
          "type": "address"
        },
        {
          "indexed": true,
          "internalType": "address",
          "name": "newOwner",
          "type": "address"
        }
      ],
      "name": "OwnershipTransferred",
      "type": "event"
    },
    {
      "anonymous": false,
      "inputs": [
        {
          "indexed": false,
          "internalType": "address",
          "name": "",
          "type": "address"
        },
        {
          "indexed": false,
          "internalType": "uint256",
          "name": "",
          "type": "uint256"
        }
      ],
      "name": "TicketSale",
      "type": "event"
    },
    {
      "anonymous": false,
      "inputs": [
        {
          "indexed": true,
          "internalType": "address",
          "name": "from",
          "type": "address"
        },
        {
          "indexed": true,
          "internalType": "address",
          "name": "to",
          "type": "address"
        },
        {
          "indexed": true,
          "internalType": "uint256",
          "name": "tokenId",
          "type": "uint256"
        }
      ],
      "name": "Transfer",
      "type": "event"
    },
    {
      "stateMutability": "payable",
      "type": "fallback"
    },
    {
      "inputs": [
        {
          "internalType": "address",
          "name": "to",
          "type": "address"
        },
        {
          "internalType": "uint256",
          "name": "tokenId",
          "type": "uint256"
        }
      ],
      "name": "approve",
      "outputs": [],
      "stateMutability": "nonpayable",
      "type": "function"
    },
    {
      "inputs": [
        {
          "internalType": "address",
          "name": "owner",
          "type": "address"
        }
      ],
      "name": "balanceOf",
      "outputs": [
        {
          "internalType": "uint256",
          "name": "",
          "type": "uint256"
        }
      ],
      "stateMutability": "view",
      "type": "function"
    },
    {
      "inputs": [
        {
          "internalType": "string",
          "name": "ticketType",
          "type": "string"
        }
      ],
      "name": "buyTicket",
      "outputs": [],
      "stateMutability": "payable",
      "type": "function"
    },
    {
      "inputs": [],
      "name": "eventData",
      "outputs": [
        {
          "internalType": "string",
          "name": "name",
          "type": "string"
        },
        {
          "internalType": "uint32",
          "name": "start",
          "type": "uint32"
        },
        {
          "internalType": "uint32",
          "name": "end",
          "type": "uint32"
        }
      ],
      "stateMutability": "view",
      "type": "function"
    },
    {
      "inputs": [
        {
          "internalType": "uint256",
          "name": "tokenId",
          "type": "uint256"
        }
      ],
      "name": "getApproved",
      "outputs": [
        {
          "internalType": "address",
          "name": "",
          "type": "address"
        }
      ],
      "stateMutability": "view",
      "type": "function"
    },
    {
      "inputs": [
        {
          "internalType": "string",
          "name": "_eventName",
          "type": "string"
        },
        {
          "internalType": "string",
          "name": "_eventSymbol",
          "type": "string"
        }
      ],
      "name": "initialize",
      "outputs": [],
      "stateMutability": "payable",
      "type": "function"
    },
    {
      "inputs": [
        {
          "internalType": "address",
          "name": "owner",
          "type": "address"
        },
        {
          "internalType": "address",
          "name": "operator",
          "type": "address"
        }
      ],
      "name": "isApprovedForAll",
      "outputs": [
        {
          "internalType": "bool",
          "name": "",
          "type": "bool"
        }
      ],
      "stateMutability": "view",
      "type": "function"
    },
    {
      "inputs": [],
      "name": "name",
      "outputs": [
        {
          "internalType": "string",
          "name": "",
          "type": "string"
        }
      ],
      "stateMutability": "view",
      "type": "function"
    },
    {
      "inputs": [],
      "name": "owner",
      "outputs": [
        {
          "internalType": "address",
          "name": "",
          "type": "address"
        }
      ],
      "stateMutability": "view",
      "type": "function"
    },
    {
      "inputs": [
        {
          "internalType": "uint256",
          "name": "tokenId",
          "type": "uint256"
        }
      ],
      "name": "ownerOf",
      "outputs": [
        {
          "internalType": "address",
          "name": "",
          "type": "address"
        }
      ],
      "stateMutability": "view",
      "type": "function"
    },
    {
      "inputs": [],
      "name": "renounceOwnership",
      "outputs": [],
      "stateMutability": "nonpayable",
      "type": "function"
    },
    {
      "inputs": [
        {
          "internalType": "address",
          "name": "to",
          "type": "address"
        }
      ],
      "name": "safeMint",
      "outputs": [],
      "stateMutability": "nonpayable",
      "type": "function"
    },
    {
      "inputs": [
        {
          "internalType": "address",
          "name": "from",
          "type": "address"
        },
        {
          "internalType": "address",
          "name": "to",
          "type": "address"
        },
        {
          "internalType": "uint256",
          "name": "tokenId",
          "type": "uint256"
        }
      ],
      "name": "safeTransferFrom",
      "outputs": [],
      "stateMutability": "nonpayable",
      "type": "function"
    },
    {
      "inputs": [
        {
          "internalType": "address",
          "name": "from",
          "type": "address"
        },
        {
          "internalType": "address",
          "name": "to",
          "type": "address"
        },
        {
          "internalType": "uint256",
          "name": "tokenId",
          "type": "uint256"
        },
        {
          "internalType": "bytes",
          "name": "data",
          "type": "bytes"
        }
      ],
      "name": "safeTransferFrom",
      "outputs": [],
      "stateMutability": "nonpayable",
      "type": "function"
    },
    {
      "inputs": [
        {
          "internalType": "address",
          "name": "operator",
          "type": "address"
        },
        {
          "internalType": "bool",
          "name": "approved",
          "type": "bool"
        }
      ],
      "name": "setApprovalForAll",
      "outputs": [],
      "stateMutability": "nonpayable",
      "type": "function"
    },
    {
      "inputs": [
        {
          "components": [
            {
              "internalType": "string",
              "name": "name",
              "type": "string"
            },
            {
              "internalType": "uint32",
              "name": "start",
              "type": "uint32"
            },
            {
              "internalType": "uint32",
              "name": "end",
              "type": "uint32"
            }
          ],
          "internalType": "struct IEventImplementation.EventData",
          "name": "_eventData",
          "type": "tuple"
        }
      ],
      "name": "setEventData",
      "outputs": [],
      "stateMutability": "nonpayable",
      "type": "function"
    },
    {
      "inputs": [
        {
          "internalType": "string[]",
          "name": "ticketTypes",
          "type": "string[]"
        },
        {
          "internalType": "uint256[]",
          "name": "supplies",
          "type": "uint256[]"
        },
        {
          "internalType": "uint256[]",
          "name": "prices",
          "type": "uint256[]"
        }
      ],
      "name": "setTicketData",
      "outputs": [],
      "stateMutability": "nonpayable",
      "type": "function"
    },
    {
      "inputs": [
        {
          "internalType": "bytes4",
          "name": "interfaceId",
          "type": "bytes4"
        }
      ],
      "name": "supportsInterface",
      "outputs": [
        {
          "internalType": "bool",
          "name": "",
          "type": "bool"
        }
      ],
      "stateMutability": "view",
      "type": "function"
    },
    {
      "inputs": [],
      "name": "symbol",
      "outputs": [
        {
          "internalType": "string",
          "name": "",
          "type": "string"
        }
      ],
      "stateMutability": "view",
      "type": "function"
    },
    {
      "inputs": [
        {
          "internalType": "string",
          "name": "",
          "type": "string"
        }
      ],
      "name": "tickets",
      "outputs": [
        {
          "internalType": "uint256",
          "name": "supply",
          "type": "uint256"
        },
        {
          "internalType": "uint256",
          "name": "price",
          "type": "uint256"
        }
      ],
      "stateMutability": "view",
      "type": "function"
    },
    {
      "inputs": [
        {
          "internalType": "uint256",
          "name": "tokenId",
          "type": "uint256"
        }
      ],
      "name": "tokenURI",
      "outputs": [
        {
          "internalType": "string",
          "name": "",
          "type": "string"
        }
      ],
      "stateMutability": "view",
      "type": "function"
    },
    {
      "inputs": [
        {
          "internalType": "address",
          "name": "from",
          "type": "address"
        },
        {
          "internalType": "address",
          "name": "to",
          "type": "address"
        },
        {
          "internalType": "uint256",
          "name": "tokenId",
          "type": "uint256"
        }
      ],
      "name": "transferFrom",
      "outputs": [],
      "stateMutability": "nonpayable",
      "type": "function"
    },
    {
      "inputs": [
        {
          "internalType": "address",
          "name": "newOwner",
          "type": "address"
        }
      ],
      "name": "transferOwnership",
      "outputs": [],
      "stateMutability": "nonpayable",
      "type": "function"
    },
    {
      "stateMutability": "payable",
      "type": "receive"
    }
  ],
  "bytecode": "0x60806040523480156200001157600080fd5b50620000226200002860201b60201c565b620001d2565b600060019054906101000a900460ff16156200007b576040517f08c379a0000000000000000000000000000000000000000000000000000000008152600401620000729062000175565b60405180910390fd5b60ff801660008054906101000a900460ff1660ff1614620000ec5760ff6000806101000a81548160ff021916908360ff1602179055507f7f26b83ff96e1f2b6a682f133852f6798a09c465da95921460cefb384740249860ff604051620000e39190620001b5565b60405180910390a15b565b600082825260208201905092915050565b7f496e697469616c697a61626c653a20636f6e747261637420697320696e69746960008201527f616c697a696e6700000000000000000000000000000000000000000000000000602082015250565b60006200015d602783620000ee565b91506200016a82620000ff565b604082019050919050565b6000602082019050818103600083015262000190816200014e565b9050919050565b600060ff82169050919050565b620001af8162000197565b82525050565b6000602082019050620001cc6000830184620001a4565b92915050565b6145a580620001e26000396000f3fe6080604052600436106101445760003560e01c80636352211e116100b6578063a22cb4651161006f578063a22cb46514610456578063b88d4fde1461047f578063c87b56dd146104a8578063e985e9c5146104e5578063f2fde38b14610522578063fa30b2511461054b5761014b565b80636352211e1461034657806370a0823114610383578063715018a6146103c05780638da5cb5b146103d757806390ac68131461040257806395d89b411461042b5761014b565b8063254641e411610108578063254641e41461024457806329ae0b7f1461027157806340d097c3146102af57806342842e0e146102d85780634934b73e146103015780634cd88b761461032a5761014b565b806301ffc9a71461014d57806306fdde031461018a578063081812fc146101b5578063095ea7b3146101f257806323b872dd1461021b5761014b565b3661014b57005b005b34801561015957600080fd5b50610174600480360381019061016f9190612707565b610567565b604051610181919061274f565b60405180910390f35b34801561019657600080fd5b5061019f610649565b6040516101ac91906127fa565b60405180910390f35b3480156101c157600080fd5b506101dc60048036038101906101d79190612852565b6106db565b6040516101e991906128c0565b60405180910390f35b3480156101fe57600080fd5b5061021960048036038101906102149190612907565b610721565b005b34801561022757600080fd5b50610242600480360381019061023d9190612947565b610838565b005b34801561025057600080fd5b50610259610898565b604051610268939291906129b9565b60405180910390f35b34801561027d57600080fd5b5061029860048036038101906102939190612b2c565b610958565b6040516102a6929190612b84565b60405180910390f35b3480156102bb57600080fd5b506102d660048036038101906102d19190612bad565b610992565b005b3480156102e457600080fd5b506102ff60048036038101906102fa9190612947565b6109b8565b005b34801561030d57600080fd5b5061032860048036038101906103239190612d83565b6109d8565b005b610344600480360381019061033f9190612e2a565b610a95565b005b34801561035257600080fd5b5061036d60048036038101906103689190612852565b610c02565b60405161037a91906128c0565b60405180910390f35b34801561038f57600080fd5b506103aa60048036038101906103a59190612bad565b610c88565b6040516103b79190612ea2565b60405180910390f35b3480156103cc57600080fd5b506103d5610d3f565b005b3480156103e357600080fd5b506103ec610d53565b6040516103f991906128c0565b60405180910390f35b34801561040e57600080fd5b5061042960048036038101906104249190612ee1565b610d7d565b005b34801561043757600080fd5b50610440610dd0565b60405161044d91906127fa565b60405180910390f35b34801561046257600080fd5b5061047d60048036038101906104789190612f56565b610e62565b005b34801561048b57600080fd5b506104a660048036038101906104a19190613037565b610e78565b005b3480156104b457600080fd5b506104cf60048036038101906104ca9190612852565b610eda565b6040516104dc91906127fa565b60405180910390f35b3480156104f157600080fd5b5061050c600480360381019061050791906130ba565b610f42565b604051610519919061274f565b60405180910390f35b34801561052e57600080fd5b5061054960048036038101906105449190612bad565b610fd6565b005b61056560048036038101906105609190613155565b611059565b005b60007f80ac58cd000000000000000000000000000000000000000000000000000000007bffffffffffffffffffffffffffffffffffffffffffffffffffffffff1916827bffffffffffffffffffffffffffffffffffffffffffffffffffffffff1916148061063257507f5b5e139f000000000000000000000000000000000000000000000000000000007bffffffffffffffffffffffffffffffffffffffffffffffffffffffff1916827bffffffffffffffffffffffffffffffffffffffffffffffffffffffff1916145b806106425750610641826111ac565b5b9050919050565b606060658054610658906131d1565b80601f0160208091040260200160405190810160405280929190818152602001828054610684906131d1565b80156106d15780601f106106a6576101008083540402835291602001916106d1565b820191906000526020600020905b8154815290600101906020018083116106b457829003601f168201915b5050505050905090565b60006106e682611216565b6069600083815260200190815260200160002060009054906101000a900473ffffffffffffffffffffffffffffffffffffffff169050919050565b600061072c82610c02565b90508073ffffffffffffffffffffffffffffffffffffffff168373ffffffffffffffffffffffffffffffffffffffff160361079c576040517f08c379a000000000000000000000000000000000000000000000000000000000815260040161079390613274565b60405180910390fd5b8073ffffffffffffffffffffffffffffffffffffffff166107bb611261565b73ffffffffffffffffffffffffffffffffffffffff1614806107ea57506107e9816107e4611261565b610f42565b5b610829576040517f08c379a000000000000000000000000000000000000000000000000000000000815260040161082090613306565b60405180910390fd5b6108338383611269565b505050565b610849610843611261565b82611322565b610888576040517f08c379a000000000000000000000000000000000000000000000000000000000815260040161087f90613398565b60405180910390fd5b6108938383836113b7565b505050565b60ca8060000180546108a9906131d1565b80601f01602080910402602001604051908101604052809291908181526020018280546108d5906131d1565b80156109225780601f106108f757610100808354040283529160200191610922565b820191906000526020600020905b81548152906001019060200180831161090557829003601f168201915b5050505050908060010160009054906101000a900463ffffffff16908060010160049054906101000a900463ffffffff16905083565b60cc818051602081018201805184825260208301602085012081835280955050505050506000915090508060000154908060010154905082565b61099c60c96116b0565b60006109a860c96116c6565b90506109b482826116d4565b5050565b6109d383838360405180602001604052806000815250610e78565b505050565b60005b8351811015610a8f576040518060400160405280848381518110610a0257610a016133b8565b5b60200260200101518152602001838381518110610a2257610a216133b8565b5b602002602001015181525060cc858381518110610a4257610a416133b8565b5b6020026020010151604051610a579190613423565b908152602001604051809103902060008201518160000155602082015181600101559050508080610a8790613469565b9150506109db565b50505050565b60008060019054906101000a900460ff16159050808015610ac65750600160008054906101000a900460ff1660ff16105b80610af35750610ad5306116f2565b158015610af25750600160008054906101000a900460ff1660ff16145b5b610b32576040517f08c379a0000000000000000000000000000000000000000000000000000000008152600401610b2990613523565b60405180910390fd5b60016000806101000a81548160ff021916908360ff1602179055508015610b6f576001600060016101000a81548160ff0219169083151502179055505b610b77611715565b610b81838361176e565b610ba46040518060600160405280602481526020016145246024913984846117cb565b8015610bfd5760008060016101000a81548160ff0219169083151502179055507f7f26b83ff96e1f2b6a682f133852f6798a09c465da95921460cefb38474024986001604051610bf49190613595565b60405180910390a15b505050565b600080610c0e8361186a565b9050600073ffffffffffffffffffffffffffffffffffffffff168173ffffffffffffffffffffffffffffffffffffffff1603610c7f576040517f08c379a0000000000000000000000000000000000000000000000000000000008152600401610c76906135fc565b60405180910390fd5b80915050919050565b60008073ffffffffffffffffffffffffffffffffffffffff168273ffffffffffffffffffffffffffffffffffffffff1603610cf8576040517f08c379a0000000000000000000000000000000000000000000000000000000008152600401610cef9061368e565b60405180910390fd5b606860008373ffffffffffffffffffffffffffffffffffffffff1673ffffffffffffffffffffffffffffffffffffffff168152602001908152602001600020549050919050565b610d476118a7565b610d516000611925565b565b6000609760009054906101000a900473ffffffffffffffffffffffffffffffffffffffff16905090565b8060ca8181610d8c9190613b1d565b905050610dcd6040518060400160405280601381526020017f7573616f2075207365744576656e7444617461000000000000000000000000008152506119eb565b50565b606060668054610ddf906131d1565b80601f0160208091040260200160405190810160405280929190818152602001828054610e0b906131d1565b8015610e585780601f10610e2d57610100808354040283529160200191610e58565b820191906000526020600020905b815481529060010190602001808311610e3b57829003601f168201915b5050505050905090565b610e74610e6d611261565b8383611a84565b5050565b610e89610e83611261565b83611322565b610ec8576040517f08c379a0000000000000000000000000000000000000000000000000000000008152600401610ebf90613398565b60405180910390fd5b610ed484848484611bf0565b50505050565b6060610ee582611216565b6000610eef611c4c565b90506000815111610f0f5760405180602001604052806000815250610f3a565b80610f1984611ca1565b604051602001610f2a929190613b2b565b6040516020818303038152906040525b915050919050565b6000606a60008473ffffffffffffffffffffffffffffffffffffffff1673ffffffffffffffffffffffffffffffffffffffff16815260200190815260200160002060008373ffffffffffffffffffffffffffffffffffffffff1673ffffffffffffffffffffffffffffffffffffffff16815260200190815260200160002060009054906101000a900460ff16905092915050565b610fde6118a7565b600073ffffffffffffffffffffffffffffffffffffffff168173ffffffffffffffffffffffffffffffffffffffff160361104d576040517f08c379a000000000000000000000000000000000000000000000000000000000815260040161104490613bc1565b60405180910390fd5b61105681611925565b50565b600060cc838360405161106d929190613c06565b908152602001604051809103902060000154116110bf576040517f08c379a00000000000000000000000000000000000000000000000000000000081526004016110b690613c6b565b60405180910390fd5b60cc82826040516110d1929190613c06565b9081526020016040518091039020600101543414611124576040517f08c379a000000000000000000000000000000000000000000000000000000000815260040161111b90613cfd565b60405180910390fd5b61112d33610992565b60cc828260405161113f929190613c06565b9081526020016040518091039020600001600081548092919061116190613d1d565b91905055507fb307cbfc9a41a392c2febb6872adfc8e21e700c445b7a5c71ced7d41344ccd023061119260c96116c6565b6040516111a0929190613d46565b60405180910390a15050565b60007f01ffc9a7000000000000000000000000000000000000000000000000000000007bffffffffffffffffffffffffffffffffffffffffffffffffffffffff1916827bffffffffffffffffffffffffffffffffffffffffffffffffffffffff1916149050919050565b61121f81611d6f565b61125e576040517f08c379a0000000000000000000000000000000000000000000000000000000008152600401611255906135fc565b60405180910390fd5b50565b600033905090565b816069600083815260200190815260200160002060006101000a81548173ffffffffffffffffffffffffffffffffffffffff021916908373ffffffffffffffffffffffffffffffffffffffff160217905550808273ffffffffffffffffffffffffffffffffffffffff166112dc83610c02565b73ffffffffffffffffffffffffffffffffffffffff167f8c5be1e5ebec7d5bd14f71427d1e84f3dd0314c0f7b2291e5b200ac8c7c3b92560405160405180910390a45050565b60008061132e83610c02565b90508073ffffffffffffffffffffffffffffffffffffffff168473ffffffffffffffffffffffffffffffffffffffff161480611370575061136f8185610f42565b5b806113ae57508373ffffffffffffffffffffffffffffffffffffffff16611396846106db565b73ffffffffffffffffffffffffffffffffffffffff16145b91505092915050565b8273ffffffffffffffffffffffffffffffffffffffff166113d782610c02565b73ffffffffffffffffffffffffffffffffffffffff161461142d576040517f08c379a000000000000000000000000000000000000000000000000000000000815260040161142490613de1565b60405180910390fd5b600073ffffffffffffffffffffffffffffffffffffffff168273ffffffffffffffffffffffffffffffffffffffff160361149c576040517f08c379a000000000000000000000000000000000000000000000000000000000815260040161149390613e73565b60405180910390fd5b6114a98383836001611db0565b8273ffffffffffffffffffffffffffffffffffffffff166114c982610c02565b73ffffffffffffffffffffffffffffffffffffffff161461151f576040517f08c379a000000000000000000000000000000000000000000000000000000000815260040161151690613de1565b60405180910390fd5b6069600082815260200190815260200160002060006101000a81549073ffffffffffffffffffffffffffffffffffffffff02191690556001606860008573ffffffffffffffffffffffffffffffffffffffff1673ffffffffffffffffffffffffffffffffffffffff168152602001908152602001600020600082825403925050819055506001606860008473ffffffffffffffffffffffffffffffffffffffff1673ffffffffffffffffffffffffffffffffffffffff16815260200190815260200160002060008282540192505081905550816067600083815260200190815260200160002060006101000a81548173ffffffffffffffffffffffffffffffffffffffff021916908373ffffffffffffffffffffffffffffffffffffffff160217905550808273ffffffffffffffffffffffffffffffffffffffff168473ffffffffffffffffffffffffffffffffffffffff167fddf252ad1be2c89b69c2b068fc378daa952ba7f163c4a11628f55a4df523b3ef60405160405180910390a46116ab8383836001611db6565b505050565b6001816000016000828254019250508190555050565b600081600001549050919050565b6116ee828260405180602001604052806000815250611dbc565b5050565b6000808273ffffffffffffffffffffffffffffffffffffffff163b119050919050565b600060019054906101000a900460ff16611764576040517f08c379a000000000000000000000000000000000000000000000000000000000815260040161175b90613f05565b60405180910390fd5b61176c611e17565b565b600060019054906101000a900460ff166117bd576040517f08c379a00000000000000000000000000000000000000000000000000000000081526004016117b490613f05565b60405180910390fd5b6117c78282611e78565b5050565b6118658383836040516024016117e393929190613f25565b6040516020818303038152906040527f2ced7cef000000000000000000000000000000000000000000000000000000007bffffffffffffffffffffffffffffffffffffffffffffffffffffffff19166020820180517bffffffffffffffffffffffffffffffffffffffffffffffffffffffff8381831617835250505050611eeb565b505050565b60006067600083815260200190815260200160002060009054906101000a900473ffffffffffffffffffffffffffffffffffffffff169050919050565b6118af611261565b73ffffffffffffffffffffffffffffffffffffffff166118cd610d53565b73ffffffffffffffffffffffffffffffffffffffff1614611923576040517f08c379a000000000000000000000000000000000000000000000000000000000815260040161191a90613fbd565b60405180910390fd5b565b6000609760009054906101000a900473ffffffffffffffffffffffffffffffffffffffff16905081609760006101000a81548173ffffffffffffffffffffffffffffffffffffffff021916908373ffffffffffffffffffffffffffffffffffffffff1602179055508173ffffffffffffffffffffffffffffffffffffffff168173ffffffffffffffffffffffffffffffffffffffff167f8be0079c531659141344cd1fd0a4f28419497f9722a3daafe3b4186f6b6457e060405160405180910390a35050565b611a81816040516024016119ff91906127fa565b6040516020818303038152906040527f41304fac000000000000000000000000000000000000000000000000000000007bffffffffffffffffffffffffffffffffffffffffffffffffffffffff19166020820180517bffffffffffffffffffffffffffffffffffffffffffffffffffffffff8381831617835250505050611eeb565b50565b8173ffffffffffffffffffffffffffffffffffffffff168373ffffffffffffffffffffffffffffffffffffffff1603611af2576040517f08c379a0000000000000000000000000000000000000000000000000000000008152600401611ae990614029565b60405180910390fd5b80606a60008573ffffffffffffffffffffffffffffffffffffffff1673ffffffffffffffffffffffffffffffffffffffff16815260200190815260200160002060008473ffffffffffffffffffffffffffffffffffffffff1673ffffffffffffffffffffffffffffffffffffffff16815260200190815260200160002060006101000a81548160ff0219169083151502179055508173ffffffffffffffffffffffffffffffffffffffff168373ffffffffffffffffffffffffffffffffffffffff167f17307eab39ab6107e8899845ad3d59bd9653f200f220920489ca2b5937696c3183604051611be3919061274f565b60405180910390a3505050565b611bfb8484846113b7565b611c0784848484611f05565b611c46576040517f08c379a0000000000000000000000000000000000000000000000000000000008152600401611c3d906140bb565b60405180910390fd5b50505050565b606060006040518060600160405280602881526020016145486028913990506000611c763061208c565b90508181604051602001611c8b929190614127565b6040516020818303038152906040529250505090565b606060006001611cb0846120b9565b01905060008167ffffffffffffffff811115611ccf57611cce612a01565b5b6040519080825280601f01601f191660200182016040528015611d015781602001600182028036833780820191505090505b509050600082602001820190505b600115611d64578080600190039150507f3031323334353637383961626364656600000000000000000000000000000000600a86061a8153600a8581611d5857611d57614156565b5b04945060008503611d0f575b819350505050919050565b60008073ffffffffffffffffffffffffffffffffffffffff16611d918361186a565b73ffffffffffffffffffffffffffffffffffffffff1614159050919050565b50505050565b50505050565b611dc6838361220c565b611dd36000848484611f05565b611e12576040517f08c379a0000000000000000000000000000000000000000000000000000000008152600401611e09906140bb565b60405180910390fd5b505050565b600060019054906101000a900460ff16611e66576040517f08c379a0000000000000000000000000000000000000000000000000000000008152600401611e5d90613f05565b60405180910390fd5b611e76611e71611261565b611925565b565b600060019054906101000a900460ff16611ec7576040517f08c379a0000000000000000000000000000000000000000000000000000000008152600401611ebe90613f05565b60405180910390fd5b8160659081611ed69190614185565b508060669081611ee69190614185565b505050565b611f0281611efa61242961244a565b63ffffffff16565b50565b6000611f268473ffffffffffffffffffffffffffffffffffffffff166116f2565b1561207f578373ffffffffffffffffffffffffffffffffffffffff1663150b7a02611f4f611261565b8786866040518563ffffffff1660e01b8152600401611f7194939291906142ac565b6020604051808303816000875af1925050508015611fad57506040513d601f19601f82011682018060405250810190611faa919061430d565b60015b61202f573d8060008114611fdd576040519150601f19603f3d011682016040523d82523d6000602084013e611fe2565b606091505b506000815103612027576040517f08c379a000000000000000000000000000000000000000000000000000000000815260040161201e906140bb565b60405180910390fd5b805181602001fd5b63150b7a0260e01b7bffffffffffffffffffffffffffffffffffffffffffffffffffffffff1916817bffffffffffffffffffffffffffffffffffffffffffffffffffffffff191614915050612084565b600190505b949350505050565b60606120b28273ffffffffffffffffffffffffffffffffffffffff16601460ff16612455565b9050919050565b600080600090507a184f03e93ff9f4daa797ed6e38ed64bf6a1f0100000000000000008310612117577a184f03e93ff9f4daa797ed6e38ed64bf6a1f010000000000000000838161210d5761210c614156565b5b0492506040810190505b6d04ee2d6d415b85acef81000000008310612154576d04ee2d6d415b85acef8100000000838161214a57612149614156565b5b0492506020810190505b662386f26fc10000831061218357662386f26fc10000838161217957612178614156565b5b0492506010810190505b6305f5e10083106121ac576305f5e10083816121a2576121a1614156565b5b0492506008810190505b61271083106121d15761271083816121c7576121c6614156565b5b0492506004810190505b606483106121f457606483816121ea576121e9614156565b5b0492506002810190505b600a8310612203576001810190505b80915050919050565b600073ffffffffffffffffffffffffffffffffffffffff168273ffffffffffffffffffffffffffffffffffffffff160361227b576040517f08c379a000000000000000000000000000000000000000000000000000000000815260040161227290614386565b60405180910390fd5b61228481611d6f565b156122c4576040517f08c379a00000000000000000000000000000000000000000000000000000000081526004016122bb906143f2565b60405180910390fd5b6122d2600083836001611db0565b6122db81611d6f565b1561231b576040517f08c379a0000000000000000000000000000000000000000000000000000000008152600401612312906143f2565b60405180910390fd5b6001606860008473ffffffffffffffffffffffffffffffffffffffff1673ffffffffffffffffffffffffffffffffffffffff16815260200190815260200160002060008282540192505081905550816067600083815260200190815260200160002060006101000a81548173ffffffffffffffffffffffffffffffffffffffff021916908373ffffffffffffffffffffffffffffffffffffffff160217905550808273ffffffffffffffffffffffffffffffffffffffff16600073ffffffffffffffffffffffffffffffffffffffff167fddf252ad1be2c89b69c2b068fc378daa952ba7f163c4a11628f55a4df523b3ef60405160405180910390a4612425600083836001611db6565b5050565b60006a636f6e736f6c652e6c6f679050600080835160208501845afa505050565b612691819050919050565b6060600060028360026124689190614412565b6124729190614454565b67ffffffffffffffff81111561248b5761248a612a01565b5b6040519080825280601f01601f1916602001820160405280156124bd5781602001600182028036833780820191505090505b5090507f3000000000000000000000000000000000000000000000000000000000000000816000815181106124f5576124f46133b8565b5b60200101907effffffffffffffffffffffffffffffffffffffffffffffffffffffffffffff1916908160001a9053507f780000000000000000000000000000000000000000000000000000000000000081600181518110612559576125586133b8565b5b60200101907effffffffffffffffffffffffffffffffffffffffffffffffffffffffffffff1916908160001a905350600060018460026125999190614412565b6125a39190614454565b90505b6001811115612643577f3031323334353637383961626364656600000000000000000000000000000000600f8616601081106125e5576125e46133b8565b5b1a60f81b8282815181106125fc576125fb6133b8565b5b60200101907effffffffffffffffffffffffffffffffffffffffffffffffffffffffffffff1916908160001a905350600485901c94508061263c90613d1d565b90506125a6565b5060008414612687576040517f08c379a000000000000000000000000000000000000000000000000000000000815260040161267e906144d4565b60405180910390fd5b8091505092915050565b6126996144f4565b565b6000604051905090565b600080fd5b600080fd5b60007fffffffff0000000000000000000000000000000000000000000000000000000082169050919050565b6126e4816126af565b81146126ef57600080fd5b50565b600081359050612701816126db565b92915050565b60006020828403121561271d5761271c6126a5565b5b600061272b848285016126f2565b91505092915050565b60008115159050919050565b61274981612734565b82525050565b60006020820190506127646000830184612740565b92915050565b600081519050919050565b600082825260208201905092915050565b60005b838110156127a4578082015181840152602081019050612789565b60008484015250505050565b6000601f19601f8301169050919050565b60006127cc8261276a565b6127d68185612775565b93506127e6818560208601612786565b6127ef816127b0565b840191505092915050565b6000602082019050818103600083015261281481846127c1565b905092915050565b6000819050919050565b61282f8161281c565b811461283a57600080fd5b50565b60008135905061284c81612826565b92915050565b600060208284031215612868576128676126a5565b5b60006128768482850161283d565b91505092915050565b600073ffffffffffffffffffffffffffffffffffffffff82169050919050565b60006128aa8261287f565b9050919050565b6128ba8161289f565b82525050565b60006020820190506128d560008301846128b1565b92915050565b6128e48161289f565b81146128ef57600080fd5b50565b600081359050612901816128db565b92915050565b6000806040838503121561291e5761291d6126a5565b5b600061292c858286016128f2565b925050602061293d8582860161283d565b9150509250929050565b6000806000606084860312156129605761295f6126a5565b5b600061296e868287016128f2565b935050602061297f868287016128f2565b92505060406129908682870161283d565b9150509250925092565b600063ffffffff82169050919050565b6129b38161299a565b82525050565b600060608201905081810360008301526129d381866127c1565b90506129e260208301856129aa565b6129ef60408301846129aa565b949350505050565b600080fd5b600080fd5b7f4e487b7100000000000000000000000000000000000000000000000000000000600052604160045260246000fd5b612a39826127b0565b810181811067ffffffffffffffff82111715612a5857612a57612a01565b5b80604052505050565b6000612a6b61269b565b9050612a778282612a30565b919050565b600067ffffffffffffffff821115612a9757612a96612a01565b5b612aa0826127b0565b9050602081019050919050565b82818337600083830152505050565b6000612acf612aca84612a7c565b612a61565b905082815260208101848484011115612aeb57612aea6129fc565b5b612af6848285612aad565b509392505050565b600082601f830112612b1357612b126129f7565b5b8135612b23848260208601612abc565b91505092915050565b600060208284031215612b4257612b416126a5565b5b600082013567ffffffffffffffff811115612b6057612b5f6126aa565b5b612b6c84828501612afe565b91505092915050565b612b7e8161281c565b82525050565b6000604082019050612b996000830185612b75565b612ba66020830184612b75565b9392505050565b600060208284031215612bc357612bc26126a5565b5b6000612bd1848285016128f2565b91505092915050565b600067ffffffffffffffff821115612bf557612bf4612a01565b5b602082029050602081019050919050565b600080fd5b6000612c1e612c1984612bda565b612a61565b90508083825260208201905060208402830185811115612c4157612c40612c06565b5b835b81811015612c8857803567ffffffffffffffff811115612c6657612c656129f7565b5b808601612c738982612afe565b85526020850194505050602081019050612c43565b5050509392505050565b600082601f830112612ca757612ca66129f7565b5b8135612cb7848260208601612c0b565b91505092915050565b600067ffffffffffffffff821115612cdb57612cda612a01565b5b602082029050602081019050919050565b6000612cff612cfa84612cc0565b612a61565b90508083825260208201905060208402830185811115612d2257612d21612c06565b5b835b81811015612d4b5780612d37888261283d565b845260208401935050602081019050612d24565b5050509392505050565b600082601f830112612d6a57612d696129f7565b5b8135612d7a848260208601612cec565b91505092915050565b600080600060608486031215612d9c57612d9b6126a5565b5b600084013567ffffffffffffffff811115612dba57612db96126aa565b5b612dc686828701612c92565b935050602084013567ffffffffffffffff811115612de757612de66126aa565b5b612df386828701612d55565b925050604084013567ffffffffffffffff811115612e1457612e136126aa565b5b612e2086828701612d55565b9150509250925092565b60008060408385031215612e4157612e406126a5565b5b600083013567ffffffffffffffff811115612e5f57612e5e6126aa565b5b612e6b85828601612afe565b925050602083013567ffffffffffffffff811115612e8c57612e8b6126aa565b5b612e9885828601612afe565b9150509250929050565b6000602082019050612eb76000830184612b75565b92915050565b600080fd5b600060608284031215612ed857612ed7612ebd565b5b81905092915050565b600060208284031215612ef757612ef66126a5565b5b600082013567ffffffffffffffff811115612f1557612f146126aa565b5b612f2184828501612ec2565b91505092915050565b612f3381612734565b8114612f3e57600080fd5b50565b600081359050612f5081612f2a565b92915050565b60008060408385031215612f6d57612f6c6126a5565b5b6000612f7b858286016128f2565b9250506020612f8c85828601612f41565b9150509250929050565b600067ffffffffffffffff821115612fb157612fb0612a01565b5b612fba826127b0565b9050602081019050919050565b6000612fda612fd584612f96565b612a61565b905082815260208101848484011115612ff657612ff56129fc565b5b613001848285612aad565b509392505050565b600082601f83011261301e5761301d6129f7565b5b813561302e848260208601612fc7565b91505092915050565b60008060008060808587031215613051576130506126a5565b5b600061305f878288016128f2565b9450506020613070878288016128f2565b93505060406130818782880161283d565b925050606085013567ffffffffffffffff8111156130a2576130a16126aa565b5b6130ae87828801613009565b91505092959194509250565b600080604083850312156130d1576130d06126a5565b5b60006130df858286016128f2565b92505060206130f0858286016128f2565b9150509250929050565b600080fd5b60008083601f840112613115576131146129f7565b5b8235905067ffffffffffffffff811115613132576131316130fa565b5b60208301915083600182028301111561314e5761314d612c06565b5b9250929050565b6000806020838503121561316c5761316b6126a5565b5b600083013567ffffffffffffffff81111561318a576131896126aa565b5b613196858286016130ff565b92509250509250929050565b7f4e487b7100000000000000000000000000000000000000000000000000000000600052602260045260246000fd5b600060028204905060018216806131e957607f821691505b6020821081036131fc576131fb6131a2565b5b50919050565b7f4552433732313a20617070726f76616c20746f2063757272656e74206f776e6560008201527f7200000000000000000000000000000000000000000000000000000000000000602082015250565b600061325e602183612775565b915061326982613202565b604082019050919050565b6000602082019050818103600083015261328d81613251565b9050919050565b7f4552433732313a20617070726f76652063616c6c6572206973206e6f7420746f60008201527f6b656e206f776e6572206f7220617070726f76656420666f7220616c6c000000602082015250565b60006132f0603d83612775565b91506132fb82613294565b604082019050919050565b6000602082019050818103600083015261331f816132e3565b9050919050565b7f4552433732313a2063616c6c6572206973206e6f7420746f6b656e206f776e6560008201527f72206f7220617070726f76656400000000000000000000000000000000000000602082015250565b6000613382602d83612775565b915061338d82613326565b604082019050919050565b600060208201905081810360008301526133b181613375565b9050919050565b7f4e487b7100000000000000000000000000000000000000000000000000000000600052603260045260246000fd5b600081905092915050565b60006133fd8261276a565b61340781856133e7565b9350613417818560208601612786565b80840191505092915050565b600061342f82846133f2565b915081905092915050565b7f4e487b7100000000000000000000000000000000000000000000000000000000600052601160045260246000fd5b60006134748261281c565b91507fffffffffffffffffffffffffffffffffffffffffffffffffffffffffffffffff82036134a6576134a561343a565b5b600182019050919050565b7f496e697469616c697a61626c653a20636f6e747261637420697320616c72656160008201527f647920696e697469616c697a6564000000000000000000000000000000000000602082015250565b600061350d602e83612775565b9150613518826134b1565b604082019050919050565b6000602082019050818103600083015261353c81613500565b9050919050565b6000819050919050565b600060ff82169050919050565b6000819050919050565b600061357f61357a61357584613543565b61355a565b61354d565b9050919050565b61358f81613564565b82525050565b60006020820190506135aa6000830184613586565b92915050565b7f4552433732313a20696e76616c696420746f6b656e2049440000000000000000600082015250565b60006135e6601883612775565b91506135f1826135b0565b602082019050919050565b60006020820190508181036000830152613615816135d9565b9050919050565b7f4552433732313a2061646472657373207a65726f206973206e6f74206120766160008201527f6c6964206f776e65720000000000000000000000000000000000000000000000602082015250565b6000613678602983612775565b91506136838261361c565b604082019050919050565b600060208201905081810360008301526136a78161366b565b9050919050565b600080fd5b600080fd5b600080fd5b600080833560016020038436030381126136da576136d96136ae565b5b80840192508235915067ffffffffffffffff8211156136fc576136fb6136b3565b5b602083019250600182023603831315613718576137176136b8565b5b509250929050565b600082905092915050565b60008190508160005260206000209050919050565b60006020601f8301049050919050565b600082821b905092915050565b60006008830261378d7fffffffffffffffffffffffffffffffffffffffffffffffffffffffffffffffff82613750565b6137978683613750565b95508019841693508086168417925050509392505050565b60006137ca6137c56137c08461281c565b61355a565b61281c565b9050919050565b6000819050919050565b6137e4836137af565b6137f86137f0826137d1565b84845461375d565b825550505050565b600090565b61380d613800565b6138188184846137db565b505050565b5b8181101561383c57613831600082613805565b60018101905061381e565b5050565b601f821115613881576138528161372b565b61385b84613740565b8101602085101561386a578190505b61387e61387685613740565b83018261381d565b50505b505050565b600082821c905092915050565b60006138a460001984600802613886565b1980831691505092915050565b60006138bd8383613893565b9150826002028217905092915050565b6138d78383613720565b67ffffffffffffffff8111156138f0576138ef612a01565b5b6138fa82546131d1565b613905828285613840565b6000601f8311600181146139345760008415613922578287013590505b61392c85826138b1565b865550613994565b601f1984166139428661372b565b60005b8281101561396a57848901358255600182019150602085019450602081019050613945565b868310156139875784890135613983601f891682613893565b8355505b6001600288020188555050505b50505050505050565b6139a88383836138cd565b505050565b6139b68161299a565b81146139c157600080fd5b50565b600081356139d1816139ad565b80915050919050565b60008160001b9050919050565b600063ffffffff6139f7846139da565b9350801983169250808416831791505092915050565b6000613a28613a23613a1e8461299a565b61355a565b61299a565b9050919050565b6000819050919050565b613a4282613a0d565b613a55613a4e82613a2f565b83546139e7565b8255505050565b60008160201b9050919050565b600067ffffffff00000000613a7d84613a5c565b9350801983169250808416831791505092915050565b613a9c82613a0d565b613aaf613aa882613a2f565b8354613a69565b8255505050565b6000810160008301613ac881856136bd565b613ad381838661399d565b50505050600181016020830180613ae9816139c4565b9050613af58184613a39565b505050600181016040830180613b0a816139c4565b9050613b168184613a93565b5050505050565b613b278282613ab6565b5050565b6000613b3782856133f2565b9150613b4382846133f2565b91508190509392505050565b7f4f776e61626c653a206e6577206f776e657220697320746865207a65726f206160008201527f6464726573730000000000000000000000000000000000000000000000000000602082015250565b6000613bab602683612775565b9150613bb682613b4f565b604082019050919050565b60006020820190508181036000830152613bda81613b9e565b9050919050565b6000613bed83856133e7565b9350613bfa838584612aad565b82840190509392505050565b6000613c13828486613be1565b91508190509392505050565b7f5469636b6574732061726520736f6c64206f7574000000000000000000000000600082015250565b6000613c55601483612775565b9150613c6082613c1f565b602082019050919050565b60006020820190508181036000830152613c8481613c48565b9050919050565b7f4e6f7420656e6f75676820657468657220746f2070617920666f72207468652060008201527f7469636b65740000000000000000000000000000000000000000000000000000602082015250565b6000613ce7602683612775565b9150613cf282613c8b565b604082019050919050565b60006020820190508181036000830152613d1681613cda565b9050919050565b6000613d288261281c565b915060008203613d3b57613d3a61343a565b5b600182039050919050565b6000604082019050613d5b60008301856128b1565b613d686020830184612b75565b9392505050565b7f4552433732313a207472616e736665722066726f6d20696e636f72726563742060008201527f6f776e6572000000000000000000000000000000000000000000000000000000602082015250565b6000613dcb602583612775565b9150613dd682613d6f565b604082019050919050565b60006020820190508181036000830152613dfa81613dbe565b9050919050565b7f4552433732313a207472616e7366657220746f20746865207a65726f2061646460008201527f7265737300000000000000000000000000000000000000000000000000000000602082015250565b6000613e5d602483612775565b9150613e6882613e01565b604082019050919050565b60006020820190508181036000830152613e8c81613e50565b9050919050565b7f496e697469616c697a61626c653a20636f6e7472616374206973206e6f74206960008201527f6e697469616c697a696e67000000000000000000000000000000000000000000602082015250565b6000613eef602b83612775565b9150613efa82613e93565b604082019050919050565b60006020820190508181036000830152613f1e81613ee2565b9050919050565b60006060820190508181036000830152613f3f81866127c1565b90508181036020830152613f5381856127c1565b90508181036040830152613f6781846127c1565b9050949350505050565b7f4f776e61626c653a2063616c6c6572206973206e6f7420746865206f776e6572600082015250565b6000613fa7602083612775565b9150613fb282613f71565b602082019050919050565b60006020820190508181036000830152613fd681613f9a565b9050919050565b7f4552433732313a20617070726f766520746f2063616c6c657200000000000000600082015250565b6000614013601983612775565b915061401e82613fdd565b602082019050919050565b6000602082019050818103600083015261404281614006565b9050919050565b7f4552433732313a207472616e7366657220746f206e6f6e20455243373231526560008201527f63656976657220696d706c656d656e7465720000000000000000000000000000602082015250565b60006140a5603283612775565b91506140b082614049565b604082019050919050565b600060208201905081810360008301526140d481614098565b9050919050565b7f2f00000000000000000000000000000000000000000000000000000000000000600082015250565b60006141116001836133e7565b915061411c826140db565b600182019050919050565b600061413382856133f2565b915061413f82846133f2565b915061414a82614104565b91508190509392505050565b7f4e487b7100000000000000000000000000000000000000000000000000000000600052601260045260246000fd5b61418e8261276a565b67ffffffffffffffff8111156141a7576141a6612a01565b5b6141b182546131d1565b6141bc828285613840565b600060209050601f8311600181146141ef57600084156141dd578287015190505b6141e785826138b1565b86555061424f565b601f1984166141fd8661372b565b60005b8281101561422557848901518255600182019150602085019450602081019050614200565b86831015614242578489015161423e601f891682613893565b8355505b6001600288020188555050505b505050505050565b600081519050919050565b600082825260208201905092915050565b600061427e82614257565b6142888185614262565b9350614298818560208601612786565b6142a1816127b0565b840191505092915050565b60006080820190506142c160008301876128b1565b6142ce60208301866128b1565b6142db6040830185612b75565b81810360608301526142ed8184614273565b905095945050505050565b600081519050614307816126db565b92915050565b600060208284031215614323576143226126a5565b5b6000614331848285016142f8565b91505092915050565b7f4552433732313a206d696e7420746f20746865207a65726f2061646472657373600082015250565b6000614370602083612775565b915061437b8261433a565b602082019050919050565b6000602082019050818103600083015261439f81614363565b9050919050565b7f4552433732313a20746f6b656e20616c7265616479206d696e74656400000000600082015250565b60006143dc601c83612775565b91506143e7826143a6565b602082019050919050565b6000602082019050818103600083015261440b816143cf565b9050919050565b600061441d8261281c565b91506144288361281c565b92508282026144368161281c565b9150828204841483151761444d5761444c61343a565b5b5092915050565b600061445f8261281c565b915061446a8361281c565b92508282019050808211156144825761448161343a565b5b92915050565b7f537472696e67733a20686578206c656e67746820696e73756666696369656e74600082015250565b60006144be602083612775565b91506144c982614488565b602082019050919050565b600060208201905081810360008301526144ed816144b1565b9050919050565b7f4e487b7100000000000000000000000000000000000000000000000000000000600052605160045260246000fdfe2573206e616d652073657276696365206465706c6f7965642e2053796d626f6c3a20257368747470733a2f2f73686f77737461727465722e6e65746c6966792e6170702f7469636b6574732fa264697066735822122085e2625145fe54cc678b375855eb6e96af2a377158d6afc492731633c071c64564736f6c63430008130033",
  "linkReferences": {},
  "deployedLinkReferences": {}
}