{
  "_format": "hh-sol-artifact-1",
  "contractName": "EventImplementation",
  "sourceName": "contracts/EventImplementation.sol",
  "abi": [
    {
      "inputs": [],
      "stateMutability": "nonpayable",
      "type": "constructor"
    },
    {
      "anonymous": false,
      "inputs": [
        {
          "indexed": true,
          "internalType": "address",
          "name": "owner",
          "type": "address"
        },
        {
          "indexed": true,
          "internalType": "address",
          "name": "approved",
          "type": "address"
        },
        {
          "indexed": true,
          "internalType": "uint256",
          "name": "tokenId",
          "type": "uint256"
        }
      ],
      "name": "Approval",
      "type": "event"
    },
    {
      "anonymous": false,
      "inputs": [
        {
          "indexed": true,
          "internalType": "address",
          "name": "owner",
          "type": "address"
        },
        {
          "indexed": true,
          "internalType": "address",
          "name": "operator",
          "type": "address"
        },
        {
          "indexed": false,
          "internalType": "bool",
          "name": "approved",
          "type": "bool"
        }
      ],
      "name": "ApprovalForAll",
      "type": "event"
    },
    {
      "anonymous": false,
      "inputs": [
        {
          "indexed": false,
          "internalType": "uint8",
          "name": "version",
          "type": "uint8"
        }
      ],
      "name": "Initialized",
      "type": "event"
    },
    {
      "anonymous": false,
      "inputs": [
        {
          "indexed": false,
          "internalType": "uint256",
          "name": "",
          "type": "uint256"
        }
      ],
      "name": "ListedTicketSuccess",
      "type": "event"
    },
    {
      "anonymous": false,
      "inputs": [
        {
          "indexed": true,
          "internalType": "address",
          "name": "previousOwner",
          "type": "address"
        },
        {
          "indexed": true,
          "internalType": "address",
          "name": "newOwner",
          "type": "address"
        }
      ],
      "name": "OwnershipTransferred",
      "type": "event"
    },
    {
      "anonymous": false,
      "inputs": [
        {
          "indexed": false,
          "internalType": "uint256",
          "name": "",
          "type": "uint256"
        }
      ],
      "name": "SecondarySale",
      "type": "event"
    },
    {
      "anonymous": false,
      "inputs": [
        {
          "indexed": false,
          "internalType": "address",
          "name": "",
          "type": "address"
        },
        {
          "indexed": false,
          "internalType": "uint256",
          "name": "",
          "type": "uint256"
        }
      ],
      "name": "TicketSale",
      "type": "event"
    },
    {
      "anonymous": false,
      "inputs": [
        {
          "indexed": true,
          "internalType": "address",
          "name": "from",
          "type": "address"
        },
        {
          "indexed": true,
          "internalType": "address",
          "name": "to",
          "type": "address"
        },
        {
          "indexed": true,
          "internalType": "uint256",
          "name": "tokenId",
          "type": "uint256"
        }
      ],
      "name": "Transfer",
      "type": "event"
    },
    {
      "stateMutability": "payable",
      "type": "fallback"
    },
    {
      "inputs": [
        {
          "internalType": "address",
          "name": "to",
          "type": "address"
        },
        {
          "internalType": "uint256",
          "name": "tokenId",
          "type": "uint256"
        }
      ],
      "name": "approve",
      "outputs": [],
      "stateMutability": "nonpayable",
      "type": "function"
    },
    {
      "inputs": [
        {
          "internalType": "address",
          "name": "owner",
          "type": "address"
        }
      ],
      "name": "balanceOf",
      "outputs": [
        {
          "internalType": "uint256",
          "name": "",
          "type": "uint256"
        }
      ],
      "stateMutability": "view",
      "type": "function"
    },
    {
      "inputs": [
        {
          "internalType": "string",
          "name": "ticketType",
          "type": "string"
        }
      ],
      "name": "buyTicket",
      "outputs": [],
      "stateMutability": "payable",
      "type": "function"
    },
    {
      "inputs": [],
      "name": "eventData",
      "outputs": [
        {
          "internalType": "string",
          "name": "name",
          "type": "string"
        },
        {
          "internalType": "uint32",
          "name": "start",
          "type": "uint32"
        },
        {
          "internalType": "uint32",
          "name": "end",
          "type": "uint32"
        }
      ],
      "stateMutability": "view",
      "type": "function"
    },
    {
      "inputs": [
        {
          "internalType": "uint256",
          "name": "tokenId",
          "type": "uint256"
        }
      ],
      "name": "getApproved",
      "outputs": [
        {
          "internalType": "address",
          "name": "",
          "type": "address"
        }
      ],
      "stateMutability": "view",
      "type": "function"
    },
    {
      "inputs": [
        {
          "internalType": "uint256",
          "name": "",
          "type": "uint256"
        }
      ],
      "name": "idToListedTicket",
      "outputs": [
        {
          "internalType": "uint256",
          "name": "tokenId",
          "type": "uint256"
        },
        {
          "internalType": "address payable",
          "name": "seller",
          "type": "address"
        },
        {
          "internalType": "uint256",
          "name": "price",
          "type": "uint256"
        },
        {
          "internalType": "bool",
          "name": "isListed",
          "type": "bool"
        }
      ],
      "stateMutability": "view",
      "type": "function"
    },
    {
      "inputs": [
        {
          "internalType": "string",
          "name": "_eventName",
          "type": "string"
        },
        {
          "internalType": "string",
          "name": "_eventSymbol",
          "type": "string"
        }
      ],
      "name": "initialize",
      "outputs": [],
      "stateMutability": "payable",
      "type": "function"
    },
    {
      "inputs": [
        {
          "internalType": "address",
          "name": "owner",
          "type": "address"
        },
        {
          "internalType": "address",
          "name": "operator",
          "type": "address"
        }
      ],
      "name": "isApprovedForAll",
      "outputs": [
        {
          "internalType": "bool",
          "name": "",
          "type": "bool"
        }
      ],
      "stateMutability": "view",
      "type": "function"
    },
    {
      "inputs": [],
      "name": "name",
      "outputs": [
        {
          "internalType": "string",
          "name": "",
          "type": "string"
        }
      ],
      "stateMutability": "view",
      "type": "function"
    },
    {
      "inputs": [
        {
          "internalType": "address",
          "name": "",
          "type": "address"
        },
        {
          "internalType": "address",
          "name": "",
          "type": "address"
        },
        {
          "internalType": "uint256",
          "name": "",
          "type": "uint256"
        },
        {
          "internalType": "bytes",
          "name": "",
          "type": "bytes"
        }
      ],
      "name": "onERC721Received",
      "outputs": [
        {
          "internalType": "bytes4",
          "name": "",
          "type": "bytes4"
        }
      ],
      "stateMutability": "nonpayable",
      "type": "function"
    },
    {
      "inputs": [],
      "name": "owner",
      "outputs": [
        {
          "internalType": "address",
          "name": "",
          "type": "address"
        }
      ],
      "stateMutability": "view",
      "type": "function"
    },
    {
      "inputs": [
        {
          "internalType": "uint256",
          "name": "tokenId",
          "type": "uint256"
        }
      ],
      "name": "ownerOf",
      "outputs": [
        {
          "internalType": "address",
          "name": "",
          "type": "address"
        }
      ],
      "stateMutability": "view",
      "type": "function"
    },
    {
      "inputs": [],
      "name": "renounceOwnership",
      "outputs": [],
      "stateMutability": "nonpayable",
      "type": "function"
    },
    {
      "inputs": [
        {
          "internalType": "address",
          "name": "from",
          "type": "address"
        },
        {
          "internalType": "address",
          "name": "to",
          "type": "address"
        },
        {
          "internalType": "uint256",
          "name": "tokenId",
          "type": "uint256"
        }
      ],
      "name": "safeTransferFrom",
      "outputs": [],
      "stateMutability": "nonpayable",
      "type": "function"
    },
    {
      "inputs": [
        {
          "internalType": "address",
          "name": "from",
          "type": "address"
        },
        {
          "internalType": "address",
          "name": "to",
          "type": "address"
        },
        {
          "internalType": "uint256",
          "name": "tokenId",
          "type": "uint256"
        },
        {
          "internalType": "bytes",
          "name": "data",
          "type": "bytes"
        }
      ],
      "name": "safeTransferFrom",
      "outputs": [],
      "stateMutability": "nonpayable",
      "type": "function"
    },
    {
      "inputs": [
        {
          "internalType": "uint256",
          "name": "tokenId",
          "type": "uint256"
        }
      ],
      "name": "secondarySale",
      "outputs": [],
      "stateMutability": "payable",
      "type": "function"
    },
    {
      "inputs": [
        {
          "internalType": "uint256",
          "name": "tokenId",
          "type": "uint256"
        },
        {
          "internalType": "uint256",
          "name": "resellPrice",
          "type": "uint256"
        },
        {
          "internalType": "string",
          "name": "ticketType",
          "type": "string"
        }
      ],
      "name": "sellTicket",
      "outputs": [],
      "stateMutability": "nonpayable",
      "type": "function"
    },
    {
      "inputs": [
        {
          "internalType": "address",
          "name": "operator",
          "type": "address"
        },
        {
          "internalType": "bool",
          "name": "approved",
          "type": "bool"
        }
      ],
      "name": "setApprovalForAll",
      "outputs": [],
      "stateMutability": "nonpayable",
      "type": "function"
    },
    {
      "inputs": [
        {
          "components": [
            {
              "internalType": "string",
              "name": "name",
              "type": "string"
            },
            {
              "internalType": "uint32",
              "name": "start",
              "type": "uint32"
            },
            {
              "internalType": "uint32",
              "name": "end",
              "type": "uint32"
            }
          ],
          "internalType": "struct IEventImplementation.EventData",
          "name": "_eventData",
          "type": "tuple"
        }
      ],
      "name": "setEventData",
      "outputs": [],
      "stateMutability": "nonpayable",
      "type": "function"
    },
    {
      "inputs": [
        {
          "internalType": "string[]",
          "name": "ticketTypes",
          "type": "string[]"
        },
        {
          "internalType": "uint256[]",
          "name": "supplies",
          "type": "uint256[]"
        },
        {
          "internalType": "uint256[]",
          "name": "prices",
          "type": "uint256[]"
        }
      ],
      "name": "setTicketData",
      "outputs": [],
      "stateMutability": "nonpayable",
      "type": "function"
    },
    {
      "inputs": [
        {
          "internalType": "bytes4",
          "name": "interfaceId",
          "type": "bytes4"
        }
      ],
      "name": "supportsInterface",
      "outputs": [
        {
          "internalType": "bool",
          "name": "",
          "type": "bool"
        }
      ],
      "stateMutability": "view",
      "type": "function"
    },
    {
      "inputs": [],
      "name": "symbol",
      "outputs": [
        {
          "internalType": "string",
          "name": "",
          "type": "string"
        }
      ],
      "stateMutability": "view",
      "type": "function"
    },
    {
      "inputs": [
        {
          "internalType": "string",
          "name": "",
          "type": "string"
        }
      ],
      "name": "tickets",
      "outputs": [
        {
          "internalType": "uint256",
          "name": "supply",
          "type": "uint256"
        },
        {
          "internalType": "uint256",
          "name": "price",
          "type": "uint256"
        }
      ],
      "stateMutability": "view",
      "type": "function"
    },
    {
      "inputs": [
        {
          "internalType": "uint256",
          "name": "tokenId",
          "type": "uint256"
        }
      ],
      "name": "tokenURI",
      "outputs": [
        {
          "internalType": "string",
          "name": "",
          "type": "string"
        }
      ],
      "stateMutability": "view",
      "type": "function"
    },
    {
      "inputs": [
        {
          "internalType": "address",
          "name": "from",
          "type": "address"
        },
        {
          "internalType": "address",
          "name": "to",
          "type": "address"
        },
        {
          "internalType": "uint256",
          "name": "tokenId",
          "type": "uint256"
        }
      ],
      "name": "transferFrom",
      "outputs": [],
      "stateMutability": "nonpayable",
      "type": "function"
    },
    {
      "inputs": [
        {
          "internalType": "address",
          "name": "newOwner",
          "type": "address"
        }
      ],
      "name": "transferOwnership",
      "outputs": [],
      "stateMutability": "nonpayable",
      "type": "function"
    },
    {
      "stateMutability": "payable",
      "type": "receive"
    }
  ],
  "bytecode": "0x60806040523480156200001157600080fd5b50620000226200002860201b60201c565b620001d2565b600060019054906101000a900460ff16156200007b576040517f08c379a0000000000000000000000000000000000000000000000000000000008152600401620000729062000175565b60405180910390fd5b60ff801660008054906101000a900460ff1660ff1614620000ec5760ff6000806101000a81548160ff021916908360ff1602179055507f7f26b83ff96e1f2b6a682f133852f6798a09c465da95921460cefb384740249860ff604051620000e39190620001b5565b60405180910390a15b565b600082825260208201905092915050565b7f496e697469616c697a61626c653a20636f6e747261637420697320696e69746960008201527f616c697a696e6700000000000000000000000000000000000000000000000000602082015250565b60006200015d602783620000ee565b91506200016a82620000ff565b604082019050919050565b6000602082019050818103600083015262000190816200014e565b9050919050565b600060ff82169050919050565b620001af8162000197565b82525050565b6000602082019050620001cc6000830184620001a4565b92915050565b61497580620001e26000396000f3fe6080604052600436106101855760003560e01c806370a08231116100d157806397746b731161008a578063c87b56dd11610064578063c87b56dd14610582578063e985e9c5146105bf578063f2fde38b146105fc578063fa30b251146106255761018c565b806397746b7314610514578063a22cb46514610530578063b88d4fde146105595761018c565b806370a0823114610418578063715018a614610455578063732957d81461046c5780638da5cb5b1461049557806390ac6813146104c057806395d89b41146104e95761018c565b806323b872dd1161013e57806342842e0e1161011857806342842e0e1461036d5780634934b73e146103965780634cd88b76146103bf5780636352211e146103db5761018c565b806323b872dd146102d9578063254641e41461030257806329ae0b7f1461032f5761018c565b806301ffc9a71461018e57806306fdde03146101cb578063081812fc146101f6578063095ea7b314610233578063150b7a021461025c57806315dc898c146102995761018c565b3661018c57005b005b34801561019a57600080fd5b506101b560048036038101906101b09190612bac565b610641565b6040516101c29190612bf4565b60405180910390f35b3480156101d757600080fd5b506101e0610723565b6040516101ed9190612c9f565b60405180910390f35b34801561020257600080fd5b5061021d60048036038101906102189190612cf7565b6107b5565b60405161022a9190612d65565b60405180910390f35b34801561023f57600080fd5b5061025a60048036038101906102559190612dac565b6107fb565b005b34801561026857600080fd5b50610283600480360381019061027e9190612f21565b610912565b6040516102909190612fb3565b60405180910390f35b3480156102a557600080fd5b506102c060048036038101906102bb9190612cf7565b610926565b6040516102d09493929190612ffe565b60405180910390f35b3480156102e557600080fd5b5061030060048036038101906102fb9190613043565b610983565b005b34801561030e57600080fd5b506103176109e3565b604051610326939291906130b5565b60405180910390f35b34801561033b57600080fd5b5061035660048036038101906103519190613194565b610aa3565b6040516103649291906131dd565b60405180910390f35b34801561037957600080fd5b50610394600480360381019061038f9190613043565b610add565b005b3480156103a257600080fd5b506103bd60048036038101906103b891906133af565b610afd565b005b6103d960048036038101906103d49190613456565b610bba565b005b3480156103e757600080fd5b5061040260048036038101906103fd9190612cf7565b610d27565b60405161040f9190612d65565b60405180910390f35b34801561042457600080fd5b5061043f600480360381019061043a91906134ce565b610dad565b60405161044c91906134fb565b60405180910390f35b34801561046157600080fd5b5061046a610e64565b005b34801561047857600080fd5b50610493600480360381019061048e9190613516565b610e78565b005b3480156104a157600080fd5b506104aa610fee565b6040516104b79190612d65565b60405180910390f35b3480156104cc57600080fd5b506104e760048036038101906104e2919061363b565b611018565b005b3480156104f557600080fd5b506104fe6110c3565b60405161050b9190612c9f565b60405180910390f35b61052e60048036038101906105299190612cf7565b611155565b005b34801561053c57600080fd5b50610557600480360381019061055291906136b0565b6112e8565b005b34801561056557600080fd5b50610580600480360381019061057b9190612f21565b6112fe565b005b34801561058e57600080fd5b506105a960048036038101906105a49190612cf7565b611360565b6040516105b69190612c9f565b60405180910390f35b3480156105cb57600080fd5b506105e660048036038101906105e191906136f0565b6113c8565b6040516105f39190612bf4565b60405180910390f35b34801561060857600080fd5b50610623600480360381019061061e91906134ce565b61145c565b005b61063f600480360381019061063a9190613194565b6114df565b005b60007f80ac58cd000000000000000000000000000000000000000000000000000000007bffffffffffffffffffffffffffffffffffffffffffffffffffffffff1916827bffffffffffffffffffffffffffffffffffffffffffffffffffffffff1916148061070c57507f5b5e139f000000000000000000000000000000000000000000000000000000007bffffffffffffffffffffffffffffffffffffffffffffffffffffffff1916827bffffffffffffffffffffffffffffffffffffffffffffffffffffffff1916145b8061071c575061071b8261162b565b5b9050919050565b6060606580546107329061375f565b80601f016020809104026020016040519081016040528092919081815260200182805461075e9061375f565b80156107ab5780601f10610780576101008083540402835291602001916107ab565b820191906000526020600020905b81548152906001019060200180831161078e57829003601f168201915b5050505050905090565b60006107c082611695565b6069600083815260200190815260200160002060009054906101000a900473ffffffffffffffffffffffffffffffffffffffff169050919050565b600061080682610d27565b90508073ffffffffffffffffffffffffffffffffffffffff168373ffffffffffffffffffffffffffffffffffffffff1603610876576040517f08c379a000000000000000000000000000000000000000000000000000000000815260040161086d90613802565b60405180910390fd5b8073ffffffffffffffffffffffffffffffffffffffff166108956116e0565b73ffffffffffffffffffffffffffffffffffffffff1614806108c457506108c3816108be6116e0565b6113c8565b5b610903576040517f08c379a00000000000000000000000000000000000000000000000000000000081526004016108fa90613894565b60405180910390fd5b61090d83836116e8565b505050565b600063150b7a0260e01b9050949350505050565b60ff6020528060005260406000206000915090508060000154908060010160009054906101000a900473ffffffffffffffffffffffffffffffffffffffff16908060020154908060030160009054906101000a900460ff16905084565b61099461098e6116e0565b826117a1565b6109d3576040517f08c379a00000000000000000000000000000000000000000000000000000000081526004016109ca90613926565b60405180910390fd5b6109de838383611836565b505050565b60fc8060000180546109f49061375f565b80601f0160208091040260200160405190810160405280929190818152602001828054610a209061375f565b8015610a6d5780601f10610a4257610100808354040283529160200191610a6d565b820191906000526020600020905b815481529060010190602001808311610a5057829003601f168201915b5050505050908060010160009054906101000a900463ffffffff16908060010160049054906101000a900463ffffffff16905083565b60fe818051602081018201805184825260208301602085012081835280955050505050506000915090508060000154908060010154905082565b610af8838383604051806020016040528060008152506112fe565b505050565b60005b8351811015610bb4576040518060400160405280848381518110610b2757610b26613946565b5b60200260200101518152602001838381518110610b4757610b46613946565b5b602002602001015181525060fe858381518110610b6757610b66613946565b5b6020026020010151604051610b7c91906139b1565b908152602001604051809103902060008201518160000155602082015181600101559050508080610bac906139f7565b915050610b00565b50505050565b60008060019054906101000a900460ff16159050808015610beb5750600160008054906101000a900460ff1660ff16105b80610c185750610bfa30611b2f565b158015610c175750600160008054906101000a900460ff1660ff16145b5b610c57576040517f08c379a0000000000000000000000000000000000000000000000000000000008152600401610c4e90613ab1565b60405180910390fd5b60016000806101000a81548160ff021916908360ff1602179055508015610c94576001600060016101000a81548160ff0219169083151502179055505b610c9c611b52565b610ca68383611bab565b610cc96040518060600160405280602481526020016148f4602491398484611c08565b8015610d225760008060016101000a81548160ff0219169083151502179055507f7f26b83ff96e1f2b6a682f133852f6798a09c465da95921460cefb38474024986001604051610d199190613b23565b60405180910390a15b505050565b600080610d3383611ca7565b9050600073ffffffffffffffffffffffffffffffffffffffff168173ffffffffffffffffffffffffffffffffffffffff1603610da4576040517f08c379a0000000000000000000000000000000000000000000000000000000008152600401610d9b90613b8a565b60405180910390fd5b80915050919050565b60008073ffffffffffffffffffffffffffffffffffffffff168273ffffffffffffffffffffffffffffffffffffffff1603610e1d576040517f08c379a0000000000000000000000000000000000000000000000000000000008152600401610e1490613c1c565b60405180910390fd5b606860008373ffffffffffffffffffffffffffffffffffffffff1673ffffffffffffffffffffffffffffffffffffffff168152602001908152602001600020549050919050565b610e6c611ce4565b610e766000611d62565b565b60fe81604051610e8891906139b1565b908152602001604051809103902060010154821115610edc576040517f08c379a0000000000000000000000000000000000000000000000000000000008152600401610ed390613cd4565b60405180910390fd5b60405180608001604052808481526020013373ffffffffffffffffffffffffffffffffffffffff1681526020018381526020016001151581525060ff60008581526020019081526020016000206000820151816000015560208201518160010160006101000a81548173ffffffffffffffffffffffffffffffffffffffff021916908373ffffffffffffffffffffffffffffffffffffffff1602179055506040820151816002015560608201518160030160006101000a81548160ff021916908315150217905550905050610fb2333085610add565b7fc62b2513a90aac6cc5404212198ec88f49f58c37e0e2d6358703c70fea8e23de83604051610fe191906134fb565b60405180910390a1505050565b600060c960009054906101000a900473ffffffffffffffffffffffffffffffffffffffff16905090565b8060fc60008201518160000190816110309190613e96565b5060208201518160010160006101000a81548163ffffffff021916908363ffffffff16021790555060408201518160010160046101000a81548163ffffffff021916908363ffffffff1602179055509050506110c06040518060400160405280601381526020017f7573616f2075207365744576656e744461746100000000000000000000000000815250611e28565b50565b6060606680546110d29061375f565b80601f01602080910402602001604051908101604052809291908181526020018280546110fe9061375f565b801561114b5780601f106111205761010080835404028352916020019161114b565b820191906000526020600020905b81548152906001019060200180831161112e57829003601f168201915b5050505050905090565b60ff60008281526020019081526020016000206002015434146111ad576040517f08c379a00000000000000000000000000000000000000000000000000000000081526004016111a490613fda565b60405180910390fd5b60ff600082815260200190815260200160002060030160009054906101000a900460ff16611210576040517f08c379a000000000000000000000000000000000000000000000000000000000815260040161120790614046565b60405180910390fd5b3073ffffffffffffffffffffffffffffffffffffffff166342842e0e3033846040518463ffffffff1660e01b815260040161124d93929190614066565b600060405180830381600087803b15801561126757600080fd5b505af115801561127b573d6000803e3d6000fd5b50505050600060ff600083815260200190815260200160002060030160006101000a81548160ff0219169083151502179055507fd08a23583fffe11a0e59aa1212e61e7945c89fbe3d52b1013bde6abeb4f65709816040516112dd91906134fb565b60405180910390a150565b6112fa6112f36116e0565b8383611ec1565b5050565b61130f6113096116e0565b836117a1565b61134e576040517f08c379a000000000000000000000000000000000000000000000000000000000815260040161134590613926565b60405180910390fd5b61135a8484848461202d565b50505050565b606061136b82611695565b6000611375612089565b9050600081511161139557604051806020016040528060008152506113c0565b8061139f846120de565b6040516020016113b092919061409d565b6040516020818303038152906040525b915050919050565b6000606a60008473ffffffffffffffffffffffffffffffffffffffff1673ffffffffffffffffffffffffffffffffffffffff16815260200190815260200160002060008373ffffffffffffffffffffffffffffffffffffffff1673ffffffffffffffffffffffffffffffffffffffff16815260200190815260200160002060009054906101000a900460ff16905092915050565b611464611ce4565b600073ffffffffffffffffffffffffffffffffffffffff168173ffffffffffffffffffffffffffffffffffffffff16036114d3576040517f08c379a00000000000000000000000000000000000000000000000000000000081526004016114ca90614133565b60405180910390fd5b6114dc81611d62565b50565b600060fe826040516114f191906139b1565b90815260200160405180910390206000015411611543576040517f08c379a000000000000000000000000000000000000000000000000000000000815260040161153a9061419f565b60405180910390fd5b60fe8160405161155391906139b1565b90815260200160405180910390206001015434146115a6576040517f08c379a000000000000000000000000000000000000000000000000000000000815260040161159d90613fda565b60405180910390fd5b6115af336121ac565b60fe816040516115bf91906139b1565b908152602001604051809103902060000160008154809291906115e1906141bf565b91905055507fb307cbfc9a41a392c2febb6872adfc8e21e700c445b7a5c71ced7d41344ccd023061161260fb6121d2565b6040516116209291906141e8565b60405180910390a150565b60007f01ffc9a7000000000000000000000000000000000000000000000000000000007bffffffffffffffffffffffffffffffffffffffffffffffffffffffff1916827bffffffffffffffffffffffffffffffffffffffffffffffffffffffff1916149050919050565b61169e816121e0565b6116dd576040517f08c379a00000000000000000000000000000000000000000000000000000000081526004016116d490613b8a565b60405180910390fd5b50565b600033905090565b816069600083815260200190815260200160002060006101000a81548173ffffffffffffffffffffffffffffffffffffffff021916908373ffffffffffffffffffffffffffffffffffffffff160217905550808273ffffffffffffffffffffffffffffffffffffffff1661175b83610d27565b73ffffffffffffffffffffffffffffffffffffffff167f8c5be1e5ebec7d5bd14f71427d1e84f3dd0314c0f7b2291e5b200ac8c7c3b92560405160405180910390a45050565b6000806117ad83610d27565b90508073ffffffffffffffffffffffffffffffffffffffff168473ffffffffffffffffffffffffffffffffffffffff1614806117ef57506117ee81856113c8565b5b8061182d57508373ffffffffffffffffffffffffffffffffffffffff16611815846107b5565b73ffffffffffffffffffffffffffffffffffffffff16145b91505092915050565b8273ffffffffffffffffffffffffffffffffffffffff1661185682610d27565b73ffffffffffffffffffffffffffffffffffffffff16146118ac576040517f08c379a00000000000000000000000000000000000000000000000000000000081526004016118a390614283565b60405180910390fd5b600073ffffffffffffffffffffffffffffffffffffffff168273ffffffffffffffffffffffffffffffffffffffff160361191b576040517f08c379a000000000000000000000000000000000000000000000000000000000815260040161191290614315565b60405180910390fd5b6119288383836001612221565b8273ffffffffffffffffffffffffffffffffffffffff1661194882610d27565b73ffffffffffffffffffffffffffffffffffffffff161461199e576040517f08c379a000000000000000000000000000000000000000000000000000000000815260040161199590614283565b60405180910390fd5b6069600082815260200190815260200160002060006101000a81549073ffffffffffffffffffffffffffffffffffffffff02191690556001606860008573ffffffffffffffffffffffffffffffffffffffff1673ffffffffffffffffffffffffffffffffffffffff168152602001908152602001600020600082825403925050819055506001606860008473ffffffffffffffffffffffffffffffffffffffff1673ffffffffffffffffffffffffffffffffffffffff16815260200190815260200160002060008282540192505081905550816067600083815260200190815260200160002060006101000a81548173ffffffffffffffffffffffffffffffffffffffff021916908373ffffffffffffffffffffffffffffffffffffffff160217905550808273ffffffffffffffffffffffffffffffffffffffff168473ffffffffffffffffffffffffffffffffffffffff167fddf252ad1be2c89b69c2b068fc378daa952ba7f163c4a11628f55a4df523b3ef60405160405180910390a4611b2a8383836001612227565b505050565b6000808273ffffffffffffffffffffffffffffffffffffffff163b119050919050565b600060019054906101000a900460ff16611ba1576040517f08c379a0000000000000000000000000000000000000000000000000000000008152600401611b98906143a7565b60405180910390fd5b611ba961222d565b565b600060019054906101000a900460ff16611bfa576040517f08c379a0000000000000000000000000000000000000000000000000000000008152600401611bf1906143a7565b60405180910390fd5b611c04828261228e565b5050565b611ca2838383604051602401611c20939291906143c7565b6040516020818303038152906040527f2ced7cef000000000000000000000000000000000000000000000000000000007bffffffffffffffffffffffffffffffffffffffffffffffffffffffff19166020820180517bffffffffffffffffffffffffffffffffffffffffffffffffffffffff8381831617835250505050612301565b505050565b60006067600083815260200190815260200160002060009054906101000a900473ffffffffffffffffffffffffffffffffffffffff169050919050565b611cec6116e0565b73ffffffffffffffffffffffffffffffffffffffff16611d0a610fee565b73ffffffffffffffffffffffffffffffffffffffff1614611d60576040517f08c379a0000000000000000000000000000000000000000000000000000000008152600401611d579061445f565b60405180910390fd5b565b600060c960009054906101000a900473ffffffffffffffffffffffffffffffffffffffff1690508160c960006101000a81548173ffffffffffffffffffffffffffffffffffffffff021916908373ffffffffffffffffffffffffffffffffffffffff1602179055508173ffffffffffffffffffffffffffffffffffffffff168173ffffffffffffffffffffffffffffffffffffffff167f8be0079c531659141344cd1fd0a4f28419497f9722a3daafe3b4186f6b6457e060405160405180910390a35050565b611ebe81604051602401611e3c9190612c9f565b6040516020818303038152906040527f41304fac000000000000000000000000000000000000000000000000000000007bffffffffffffffffffffffffffffffffffffffffffffffffffffffff19166020820180517bffffffffffffffffffffffffffffffffffffffffffffffffffffffff8381831617835250505050612301565b50565b8173ffffffffffffffffffffffffffffffffffffffff168373ffffffffffffffffffffffffffffffffffffffff1603611f2f576040517f08c379a0000000000000000000000000000000000000000000000000000000008152600401611f26906144cb565b60405180910390fd5b80606a60008573ffffffffffffffffffffffffffffffffffffffff1673ffffffffffffffffffffffffffffffffffffffff16815260200190815260200160002060008473ffffffffffffffffffffffffffffffffffffffff1673ffffffffffffffffffffffffffffffffffffffff16815260200190815260200160002060006101000a81548160ff0219169083151502179055508173ffffffffffffffffffffffffffffffffffffffff168373ffffffffffffffffffffffffffffffffffffffff167f17307eab39ab6107e8899845ad3d59bd9653f200f220920489ca2b5937696c31836040516120209190612bf4565b60405180910390a3505050565b612038848484611836565b6120448484848461231b565b612083576040517f08c379a000000000000000000000000000000000000000000000000000000000815260040161207a9061455d565b60405180910390fd5b50505050565b6060600060405180606001604052806028815260200161491860289139905060006120b3306124a2565b905081816040516020016120c89291906145c9565b6040516020818303038152906040529250505090565b6060600060016120ed846124cf565b01905060008167ffffffffffffffff81111561210c5761210b612df6565b5b6040519080825280601f01601f19166020018201604052801561213e5781602001600182028036833780820191505090505b509050600082602001820190505b6001156121a1578080600190039150507f3031323334353637383961626364656600000000000000000000000000000000600a86061a8153600a8581612195576121946145f8565b5b0494506000850361214c575b819350505050919050565b6121b660fb612622565b60006121c260fb6121d2565b90506121ce8282612638565b5050565b600081600001549050919050565b60008073ffffffffffffffffffffffffffffffffffffffff1661220283611ca7565b73ffffffffffffffffffffffffffffffffffffffff1614159050919050565b50505050565b50505050565b600060019054906101000a900460ff1661227c576040517f08c379a0000000000000000000000000000000000000000000000000000000008152600401612273906143a7565b60405180910390fd5b61228c6122876116e0565b611d62565b565b600060019054906101000a900460ff166122dd576040517f08c379a00000000000000000000000000000000000000000000000000000000081526004016122d4906143a7565b60405180910390fd5b81606590816122ec9190613e96565b5080606690816122fc9190613e96565b505050565b61231881612310612656612677565b63ffffffff16565b50565b600061233c8473ffffffffffffffffffffffffffffffffffffffff16611b2f565b15612495578373ffffffffffffffffffffffffffffffffffffffff1663150b7a026123656116e0565b8786866040518563ffffffff1660e01b8152600401612387949392919061467c565b6020604051808303816000875af19250505080156123c357506040513d601f19601f820116820180604052508101906123c091906146dd565b60015b612445573d80600081146123f3576040519150601f19603f3d011682016040523d82523d6000602084013e6123f8565b606091505b50600081510361243d576040517f08c379a00000000000000000000000000000000000000000000000000000000081526004016124349061455d565b60405180910390fd5b805181602001fd5b63150b7a0260e01b7bffffffffffffffffffffffffffffffffffffffffffffffffffffffff1916817bffffffffffffffffffffffffffffffffffffffffffffffffffffffff19161491505061249a565b600190505b949350505050565b60606124c88273ffffffffffffffffffffffffffffffffffffffff16601460ff16612682565b9050919050565b600080600090507a184f03e93ff9f4daa797ed6e38ed64bf6a1f010000000000000000831061252d577a184f03e93ff9f4daa797ed6e38ed64bf6a1f0100000000000000008381612523576125226145f8565b5b0492506040810190505b6d04ee2d6d415b85acef8100000000831061256a576d04ee2d6d415b85acef810000000083816125605761255f6145f8565b5b0492506020810190505b662386f26fc10000831061259957662386f26fc10000838161258f5761258e6145f8565b5b0492506010810190505b6305f5e10083106125c2576305f5e10083816125b8576125b76145f8565b5b0492506008810190505b61271083106125e75761271083816125dd576125dc6145f8565b5b0492506004810190505b6064831061260a5760648381612600576125ff6145f8565b5b0492506002810190505b600a8310612619576001810190505b80915050919050565b6001816000016000828254019250508190555050565b6126528282604051806020016040528060008152506128be565b5050565b60006a636f6e736f6c652e6c6f679050600080835160208501845afa505050565b612b36819050919050565b606060006002836002612695919061470a565b61269f919061474c565b67ffffffffffffffff8111156126b8576126b7612df6565b5b6040519080825280601f01601f1916602001820160405280156126ea5781602001600182028036833780820191505090505b5090507f30000000000000000000000000000000000000000000000000000000000000008160008151811061272257612721613946565b5b60200101907effffffffffffffffffffffffffffffffffffffffffffffffffffffffffffff1916908160001a9053507f78000000000000000000000000000000000000000000000000000000000000008160018151811061278657612785613946565b5b60200101907effffffffffffffffffffffffffffffffffffffffffffffffffffffffffffff1916908160001a905350600060018460026127c6919061470a565b6127d0919061474c565b90505b6001811115612870577f3031323334353637383961626364656600000000000000000000000000000000600f86166010811061281257612811613946565b5b1a60f81b82828151811061282957612828613946565b5b60200101907effffffffffffffffffffffffffffffffffffffffffffffffffffffffffffff1916908160001a905350600485901c945080612869906141bf565b90506127d3565b50600084146128b4576040517f08c379a00000000000000000000000000000000000000000000000000000000081526004016128ab906147cc565b60405180910390fd5b8091505092915050565b6128c88383612919565b6128d5600084848461231b565b612914576040517f08c379a000000000000000000000000000000000000000000000000000000000815260040161290b9061455d565b60405180910390fd5b505050565b600073ffffffffffffffffffffffffffffffffffffffff168273ffffffffffffffffffffffffffffffffffffffff1603612988576040517f08c379a000000000000000000000000000000000000000000000000000000000815260040161297f90614838565b60405180910390fd5b612991816121e0565b156129d1576040517f08c379a00000000000000000000000000000000000000000000000000000000081526004016129c8906148a4565b60405180910390fd5b6129df600083836001612221565b6129e8816121e0565b15612a28576040517f08c379a0000000000000000000000000000000000000000000000000000000008152600401612a1f906148a4565b60405180910390fd5b6001606860008473ffffffffffffffffffffffffffffffffffffffff1673ffffffffffffffffffffffffffffffffffffffff16815260200190815260200160002060008282540192505081905550816067600083815260200190815260200160002060006101000a81548173ffffffffffffffffffffffffffffffffffffffff021916908373ffffffffffffffffffffffffffffffffffffffff160217905550808273ffffffffffffffffffffffffffffffffffffffff16600073ffffffffffffffffffffffffffffffffffffffff167fddf252ad1be2c89b69c2b068fc378daa952ba7f163c4a11628f55a4df523b3ef60405160405180910390a4612b32600083836001612227565b5050565b612b3e6148c4565b565b6000604051905090565b600080fd5b600080fd5b60007fffffffff0000000000000000000000000000000000000000000000000000000082169050919050565b612b8981612b54565b8114612b9457600080fd5b50565b600081359050612ba681612b80565b92915050565b600060208284031215612bc257612bc1612b4a565b5b6000612bd084828501612b97565b91505092915050565b60008115159050919050565b612bee81612bd9565b82525050565b6000602082019050612c096000830184612be5565b92915050565b600081519050919050565b600082825260208201905092915050565b60005b83811015612c49578082015181840152602081019050612c2e565b60008484015250505050565b6000601f19601f8301169050919050565b6000612c7182612c0f565b612c7b8185612c1a565b9350612c8b818560208601612c2b565b612c9481612c55565b840191505092915050565b60006020820190508181036000830152612cb98184612c66565b905092915050565b6000819050919050565b612cd481612cc1565b8114612cdf57600080fd5b50565b600081359050612cf181612ccb565b92915050565b600060208284031215612d0d57612d0c612b4a565b5b6000612d1b84828501612ce2565b91505092915050565b600073ffffffffffffffffffffffffffffffffffffffff82169050919050565b6000612d4f82612d24565b9050919050565b612d5f81612d44565b82525050565b6000602082019050612d7a6000830184612d56565b92915050565b612d8981612d44565b8114612d9457600080fd5b50565b600081359050612da681612d80565b92915050565b60008060408385031215612dc357612dc2612b4a565b5b6000612dd185828601612d97565b9250506020612de285828601612ce2565b9150509250929050565b600080fd5b600080fd5b7f4e487b7100000000000000000000000000000000000000000000000000000000600052604160045260246000fd5b612e2e82612c55565b810181811067ffffffffffffffff82111715612e4d57612e4c612df6565b5b80604052505050565b6000612e60612b40565b9050612e6c8282612e25565b919050565b600067ffffffffffffffff821115612e8c57612e8b612df6565b5b612e9582612c55565b9050602081019050919050565b82818337600083830152505050565b6000612ec4612ebf84612e71565b612e56565b905082815260208101848484011115612ee057612edf612df1565b5b612eeb848285612ea2565b509392505050565b600082601f830112612f0857612f07612dec565b5b8135612f18848260208601612eb1565b91505092915050565b60008060008060808587031215612f3b57612f3a612b4a565b5b6000612f4987828801612d97565b9450506020612f5a87828801612d97565b9350506040612f6b87828801612ce2565b925050606085013567ffffffffffffffff811115612f8c57612f8b612b4f565b5b612f9887828801612ef3565b91505092959194509250565b612fad81612b54565b82525050565b6000602082019050612fc86000830184612fa4565b92915050565b612fd781612cc1565b82525050565b6000612fe882612d24565b9050919050565b612ff881612fdd565b82525050565b60006080820190506130136000830187612fce565b6130206020830186612fef565b61302d6040830185612fce565b61303a6060830184612be5565b95945050505050565b60008060006060848603121561305c5761305b612b4a565b5b600061306a86828701612d97565b935050602061307b86828701612d97565b925050604061308c86828701612ce2565b9150509250925092565b600063ffffffff82169050919050565b6130af81613096565b82525050565b600060608201905081810360008301526130cf8186612c66565b90506130de60208301856130a6565b6130eb60408301846130a6565b949350505050565b600067ffffffffffffffff82111561310e5761310d612df6565b5b61311782612c55565b9050602081019050919050565b6000613137613132846130f3565b612e56565b90508281526020810184848401111561315357613152612df1565b5b61315e848285612ea2565b509392505050565b600082601f83011261317b5761317a612dec565b5b813561318b848260208601613124565b91505092915050565b6000602082840312156131aa576131a9612b4a565b5b600082013567ffffffffffffffff8111156131c8576131c7612b4f565b5b6131d484828501613166565b91505092915050565b60006040820190506131f26000830185612fce565b6131ff6020830184612fce565b9392505050565b600067ffffffffffffffff82111561322157613220612df6565b5b602082029050602081019050919050565b600080fd5b600061324a61324584613206565b612e56565b9050808382526020820190506020840283018581111561326d5761326c613232565b5b835b818110156132b457803567ffffffffffffffff81111561329257613291612dec565b5b80860161329f8982613166565b8552602085019450505060208101905061326f565b5050509392505050565b600082601f8301126132d3576132d2612dec565b5b81356132e3848260208601613237565b91505092915050565b600067ffffffffffffffff82111561330757613306612df6565b5b602082029050602081019050919050565b600061332b613326846132ec565b612e56565b9050808382526020820190506020840283018581111561334e5761334d613232565b5b835b8181101561337757806133638882612ce2565b845260208401935050602081019050613350565b5050509392505050565b600082601f83011261339657613395612dec565b5b81356133a6848260208601613318565b91505092915050565b6000806000606084860312156133c8576133c7612b4a565b5b600084013567ffffffffffffffff8111156133e6576133e5612b4f565b5b6133f2868287016132be565b935050602084013567ffffffffffffffff81111561341357613412612b4f565b5b61341f86828701613381565b925050604084013567ffffffffffffffff8111156134405761343f612b4f565b5b61344c86828701613381565b9150509250925092565b6000806040838503121561346d5761346c612b4a565b5b600083013567ffffffffffffffff81111561348b5761348a612b4f565b5b61349785828601613166565b925050602083013567ffffffffffffffff8111156134b8576134b7612b4f565b5b6134c485828601613166565b9150509250929050565b6000602082840312156134e4576134e3612b4a565b5b60006134f284828501612d97565b91505092915050565b60006020820190506135106000830184612fce565b92915050565b60008060006060848603121561352f5761352e612b4a565b5b600061353d86828701612ce2565b935050602061354e86828701612ce2565b925050604084013567ffffffffffffffff81111561356f5761356e612b4f565b5b61357b86828701613166565b9150509250925092565b600080fd5b600080fd5b61359881613096565b81146135a357600080fd5b50565b6000813590506135b58161358f565b92915050565b6000606082840312156135d1576135d0613585565b5b6135db6060612e56565b9050600082013567ffffffffffffffff8111156135fb576135fa61358a565b5b61360784828501613166565b600083015250602061361b848285016135a6565b602083015250604061362f848285016135a6565b60408301525092915050565b60006020828403121561365157613650612b4a565b5b600082013567ffffffffffffffff81111561366f5761366e612b4f565b5b61367b848285016135bb565b91505092915050565b61368d81612bd9565b811461369857600080fd5b50565b6000813590506136aa81613684565b92915050565b600080604083850312156136c7576136c6612b4a565b5b60006136d585828601612d97565b92505060206136e68582860161369b565b9150509250929050565b6000806040838503121561370757613706612b4a565b5b600061371585828601612d97565b925050602061372685828601612d97565b9150509250929050565b7f4e487b7100000000000000000000000000000000000000000000000000000000600052602260045260246000fd5b6000600282049050600182168061377757607f821691505b60208210810361378a57613789613730565b5b50919050565b7f4552433732313a20617070726f76616c20746f2063757272656e74206f776e6560008201527f7200000000000000000000000000000000000000000000000000000000000000602082015250565b60006137ec602183612c1a565b91506137f782613790565b604082019050919050565b6000602082019050818103600083015261381b816137df565b9050919050565b7f4552433732313a20617070726f76652063616c6c6572206973206e6f7420746f60008201527f6b656e206f776e6572206f7220617070726f76656420666f7220616c6c000000602082015250565b600061387e603d83612c1a565b915061388982613822565b604082019050919050565b600060208201905081810360008301526138ad81613871565b9050919050565b7f4552433732313a2063616c6c6572206973206e6f7420746f6b656e206f776e6560008201527f72206f7220617070726f76656400000000000000000000000000000000000000602082015250565b6000613910602d83612c1a565b915061391b826138b4565b604082019050919050565b6000602082019050818103600083015261393f81613903565b9050919050565b7f4e487b7100000000000000000000000000000000000000000000000000000000600052603260045260246000fd5b600081905092915050565b600061398b82612c0f565b6139958185613975565b93506139a5818560208601612c2b565b80840191505092915050565b60006139bd8284613980565b915081905092915050565b7f4e487b7100000000000000000000000000000000000000000000000000000000600052601160045260246000fd5b6000613a0282612cc1565b91507fffffffffffffffffffffffffffffffffffffffffffffffffffffffffffffffff8203613a3457613a336139c8565b5b600182019050919050565b7f496e697469616c697a61626c653a20636f6e747261637420697320616c72656160008201527f647920696e697469616c697a6564000000000000000000000000000000000000602082015250565b6000613a9b602e83612c1a565b9150613aa682613a3f565b604082019050919050565b60006020820190508181036000830152613aca81613a8e565b9050919050565b6000819050919050565b600060ff82169050919050565b6000819050919050565b6000613b0d613b08613b0384613ad1565b613ae8565b613adb565b9050919050565b613b1d81613af2565b82525050565b6000602082019050613b386000830184613b14565b92915050565b7f4552433732313a20696e76616c696420746f6b656e2049440000000000000000600082015250565b6000613b74601883612c1a565b9150613b7f82613b3e565b602082019050919050565b60006020820190508181036000830152613ba381613b67565b9050919050565b7f4552433732313a2061646472657373207a65726f206973206e6f74206120766160008201527f6c6964206f776e65720000000000000000000000000000000000000000000000602082015250565b6000613c06602983612c1a565b9150613c1182613baa565b604082019050919050565b60006020820190508181036000830152613c3581613bf9565b9050919050565b7f43696a656e612070726570726f64616a65206e6520736d696a6520626974692060008201527f76656361206f64206f726967696e616c6e652063696a656e6520756c617a6e6960208201527f6365000000000000000000000000000000000000000000000000000000000000604082015250565b6000613cbe604283612c1a565b9150613cc982613c3c565b606082019050919050565b60006020820190508181036000830152613ced81613cb1565b9050919050565b60008190508160005260206000209050919050565b60006020601f8301049050919050565b600082821b905092915050565b600060088302613d567fffffffffffffffffffffffffffffffffffffffffffffffffffffffffffffffff82613d19565b613d608683613d19565b95508019841693508086168417925050509392505050565b6000613d93613d8e613d8984612cc1565b613ae8565b612cc1565b9050919050565b6000819050919050565b613dad83613d78565b613dc1613db982613d9a565b848454613d26565b825550505050565b600090565b613dd6613dc9565b613de1818484613da4565b505050565b5b81811015613e0557613dfa600082613dce565b600181019050613de7565b5050565b601f821115613e4a57613e1b81613cf4565b613e2484613d09565b81016020851015613e33578190505b613e47613e3f85613d09565b830182613de6565b50505b505050565b600082821c905092915050565b6000613e6d60001984600802613e4f565b1980831691505092915050565b6000613e868383613e5c565b9150826002028217905092915050565b613e9f82612c0f565b67ffffffffffffffff811115613eb857613eb7612df6565b5b613ec2825461375f565b613ecd828285613e09565b600060209050601f831160018114613f005760008415613eee578287015190505b613ef88582613e7a565b865550613f60565b601f198416613f0e86613cf4565b60005b82811015613f3657848901518255600182019150602085019450602081019050613f11565b86831015613f535784890151613f4f601f891682613e5c565b8355505b6001600288020188555050505b505050505050565b7f4e65646f766f6c6a616e20697a6e6f73207a61206b75706e6a7520756c617a6e60008201527f6963650000000000000000000000000000000000000000000000000000000000602082015250565b6000613fc4602383612c1a565b9150613fcf82613f68565b604082019050919050565b60006020820190508181036000830152613ff381613fb7565b9050919050565b7f556c617a6e696361206e696a6520752070726f64616a69000000000000000000600082015250565b6000614030601783612c1a565b915061403b82613ffa565b602082019050919050565b6000602082019050818103600083015261405f81614023565b9050919050565b600060608201905061407b6000830186612d56565b6140886020830185612d56565b6140956040830184612fce565b949350505050565b60006140a98285613980565b91506140b58284613980565b91508190509392505050565b7f4f776e61626c653a206e6577206f776e657220697320746865207a65726f206160008201527f6464726573730000000000000000000000000000000000000000000000000000602082015250565b600061411d602683612c1a565b9150614128826140c1565b604082019050919050565b6000602082019050818103600083015261414c81614110565b9050919050565b7f556c617a6e6963652073752072617370726f64616e6500000000000000000000600082015250565b6000614189601683612c1a565b915061419482614153565b602082019050919050565b600060208201905081810360008301526141b88161417c565b9050919050565b60006141ca82612cc1565b9150600082036141dd576141dc6139c8565b5b600182039050919050565b60006040820190506141fd6000830185612d56565b61420a6020830184612fce565b9392505050565b7f4552433732313a207472616e736665722066726f6d20696e636f72726563742060008201527f6f776e6572000000000000000000000000000000000000000000000000000000602082015250565b600061426d602583612c1a565b915061427882614211565b604082019050919050565b6000602082019050818103600083015261429c81614260565b9050919050565b7f4552433732313a207472616e7366657220746f20746865207a65726f2061646460008201527f7265737300000000000000000000000000000000000000000000000000000000602082015250565b60006142ff602483612c1a565b915061430a826142a3565b604082019050919050565b6000602082019050818103600083015261432e816142f2565b9050919050565b7f496e697469616c697a61626c653a20636f6e7472616374206973206e6f74206960008201527f6e697469616c697a696e67000000000000000000000000000000000000000000602082015250565b6000614391602b83612c1a565b915061439c82614335565b604082019050919050565b600060208201905081810360008301526143c081614384565b9050919050565b600060608201905081810360008301526143e18186612c66565b905081810360208301526143f58185612c66565b905081810360408301526144098184612c66565b9050949350505050565b7f4f776e61626c653a2063616c6c6572206973206e6f7420746865206f776e6572600082015250565b6000614449602083612c1a565b915061445482614413565b602082019050919050565b600060208201905081810360008301526144788161443c565b9050919050565b7f4552433732313a20617070726f766520746f2063616c6c657200000000000000600082015250565b60006144b5601983612c1a565b91506144c08261447f565b602082019050919050565b600060208201905081810360008301526144e4816144a8565b9050919050565b7f4552433732313a207472616e7366657220746f206e6f6e20455243373231526560008201527f63656976657220696d706c656d656e7465720000000000000000000000000000602082015250565b6000614547603283612c1a565b9150614552826144eb565b604082019050919050565b600060208201905081810360008301526145768161453a565b9050919050565b7f2f00000000000000000000000000000000000000000000000000000000000000600082015250565b60006145b3600183613975565b91506145be8261457d565b600182019050919050565b60006145d58285613980565b91506145e18284613980565b91506145ec826145a6565b91508190509392505050565b7f4e487b7100000000000000000000000000000000000000000000000000000000600052601260045260246000fd5b600081519050919050565b600082825260208201905092915050565b600061464e82614627565b6146588185614632565b9350614668818560208601612c2b565b61467181612c55565b840191505092915050565b60006080820190506146916000830187612d56565b61469e6020830186612d56565b6146ab6040830185612fce565b81810360608301526146bd8184614643565b905095945050505050565b6000815190506146d781612b80565b92915050565b6000602082840312156146f3576146f2612b4a565b5b6000614701848285016146c8565b91505092915050565b600061471582612cc1565b915061472083612cc1565b925082820261472e81612cc1565b91508282048414831517614745576147446139c8565b5b5092915050565b600061475782612cc1565b915061476283612cc1565b925082820190508082111561477a576147796139c8565b5b92915050565b7f537472696e67733a20686578206c656e67746820696e73756666696369656e74600082015250565b60006147b6602083612c1a565b91506147c182614780565b602082019050919050565b600060208201905081810360008301526147e5816147a9565b9050919050565b7f4552433732313a206d696e7420746f20746865207a65726f2061646472657373600082015250565b6000614822602083612c1a565b915061482d826147ec565b602082019050919050565b6000602082019050818103600083015261485181614815565b9050919050565b7f4552433732313a20746f6b656e20616c7265616479206d696e74656400000000600082015250565b600061488e601c83612c1a565b915061489982614858565b602082019050919050565b600060208201905081810360008301526148bd81614881565b9050919050565b7f4e487b7100000000000000000000000000000000000000000000000000000000600052605160045260246000fdfe2573206e616d652073657276696365206465706c6f7965642e2053796d626f6c3a20257368747470733a2f2f73686f77737461727465722e6e65746c6966792e6170702f7469636b6574732fa26469706673582212203c668d59bc0d51ae76858ba4ebed82d8784d54e0411d9c88863d36f58bca815564736f6c63430008130033",
  "linkReferences": {},
  "deployedLinkReferences": {}
}