{
  "_format": "hh-sol-artifact-1",
  "contractName": "EventImplementation",
  "sourceName": "contracts/EventImplementation.sol",
  "abi": [
    {
      "inputs": [],
      "stateMutability": "nonpayable",
      "type": "constructor"
    },
    {
      "anonymous": false,
      "inputs": [
        {
          "indexed": true,
          "internalType": "address",
          "name": "owner",
          "type": "address"
        },
        {
          "indexed": true,
          "internalType": "address",
          "name": "approved",
          "type": "address"
        },
        {
          "indexed": true,
          "internalType": "uint256",
          "name": "tokenId",
          "type": "uint256"
        }
      ],
      "name": "Approval",
      "type": "event"
    },
    {
      "anonymous": false,
      "inputs": [
        {
          "indexed": true,
          "internalType": "address",
          "name": "owner",
          "type": "address"
        },
        {
          "indexed": true,
          "internalType": "address",
          "name": "operator",
          "type": "address"
        },
        {
          "indexed": false,
          "internalType": "bool",
          "name": "approved",
          "type": "bool"
        }
      ],
      "name": "ApprovalForAll",
      "type": "event"
    },
    {
      "anonymous": false,
      "inputs": [
        {
          "indexed": false,
          "internalType": "uint8",
          "name": "version",
          "type": "uint8"
        }
      ],
      "name": "Initialized",
      "type": "event"
    },
    {
      "anonymous": false,
      "inputs": [
        {
          "indexed": true,
          "internalType": "address",
          "name": "previousOwner",
          "type": "address"
        },
        {
          "indexed": true,
          "internalType": "address",
          "name": "newOwner",
          "type": "address"
        }
      ],
      "name": "OwnershipTransferred",
      "type": "event"
    },
    {
      "anonymous": false,
      "inputs": [
        {
          "indexed": true,
          "internalType": "address",
          "name": "from",
          "type": "address"
        },
        {
          "indexed": true,
          "internalType": "address",
          "name": "to",
          "type": "address"
        },
        {
          "indexed": true,
          "internalType": "uint256",
          "name": "tokenId",
          "type": "uint256"
        }
      ],
      "name": "Transfer",
      "type": "event"
    },
    {
      "stateMutability": "payable",
      "type": "fallback"
    },
    {
      "inputs": [
        {
          "internalType": "address",
          "name": "to",
          "type": "address"
        },
        {
          "internalType": "uint256",
          "name": "tokenId",
          "type": "uint256"
        }
      ],
      "name": "approve",
      "outputs": [],
      "stateMutability": "nonpayable",
      "type": "function"
    },
    {
      "inputs": [
        {
          "internalType": "address",
          "name": "owner",
          "type": "address"
        }
      ],
      "name": "balanceOf",
      "outputs": [
        {
          "internalType": "uint256",
          "name": "",
          "type": "uint256"
        }
      ],
      "stateMutability": "view",
      "type": "function"
    },
    {
      "inputs": [],
      "name": "eventData",
      "outputs": [
        {
          "internalType": "string",
          "name": "name",
          "type": "string"
        },
        {
          "internalType": "uint32",
          "name": "start",
          "type": "uint32"
        },
        {
          "internalType": "uint32",
          "name": "end",
          "type": "uint32"
        }
      ],
      "stateMutability": "view",
      "type": "function"
    },
    {
      "inputs": [
        {
          "internalType": "uint256",
          "name": "tokenId",
          "type": "uint256"
        }
      ],
      "name": "getApproved",
      "outputs": [
        {
          "internalType": "address",
          "name": "",
          "type": "address"
        }
      ],
      "stateMutability": "view",
      "type": "function"
    },
    {
      "inputs": [
        {
          "internalType": "string",
          "name": "_eventName",
          "type": "string"
        },
        {
          "internalType": "string",
          "name": "_eventSymbol",
          "type": "string"
        }
      ],
      "name": "initialize",
      "outputs": [],
      "stateMutability": "payable",
      "type": "function"
    },
    {
      "inputs": [
        {
          "internalType": "address",
          "name": "owner",
          "type": "address"
        },
        {
          "internalType": "address",
          "name": "operator",
          "type": "address"
        }
      ],
      "name": "isApprovedForAll",
      "outputs": [
        {
          "internalType": "bool",
          "name": "",
          "type": "bool"
        }
      ],
      "stateMutability": "view",
      "type": "function"
    },
    {
      "inputs": [],
      "name": "name",
      "outputs": [
        {
          "internalType": "string",
          "name": "",
          "type": "string"
        }
      ],
      "stateMutability": "view",
      "type": "function"
    },
    {
      "inputs": [],
      "name": "owner",
      "outputs": [
        {
          "internalType": "address",
          "name": "",
          "type": "address"
        }
      ],
      "stateMutability": "view",
      "type": "function"
    },
    {
      "inputs": [
        {
          "internalType": "uint256",
          "name": "tokenId",
          "type": "uint256"
        }
      ],
      "name": "ownerOf",
      "outputs": [
        {
          "internalType": "address",
          "name": "",
          "type": "address"
        }
      ],
      "stateMutability": "view",
      "type": "function"
    },
    {
      "inputs": [],
      "name": "renounceOwnership",
      "outputs": [],
      "stateMutability": "nonpayable",
      "type": "function"
    },
    {
      "inputs": [
        {
          "internalType": "address",
          "name": "to",
          "type": "address"
        }
      ],
      "name": "safeMint",
      "outputs": [],
      "stateMutability": "nonpayable",
      "type": "function"
    },
    {
      "inputs": [
        {
          "internalType": "address",
          "name": "from",
          "type": "address"
        },
        {
          "internalType": "address",
          "name": "to",
          "type": "address"
        },
        {
          "internalType": "uint256",
          "name": "tokenId",
          "type": "uint256"
        }
      ],
      "name": "safeTransferFrom",
      "outputs": [],
      "stateMutability": "nonpayable",
      "type": "function"
    },
    {
      "inputs": [
        {
          "internalType": "address",
          "name": "from",
          "type": "address"
        },
        {
          "internalType": "address",
          "name": "to",
          "type": "address"
        },
        {
          "internalType": "uint256",
          "name": "tokenId",
          "type": "uint256"
        },
        {
          "internalType": "bytes",
          "name": "data",
          "type": "bytes"
        }
      ],
      "name": "safeTransferFrom",
      "outputs": [],
      "stateMutability": "nonpayable",
      "type": "function"
    },
    {
      "inputs": [
        {
          "internalType": "address",
          "name": "operator",
          "type": "address"
        },
        {
          "internalType": "bool",
          "name": "approved",
          "type": "bool"
        }
      ],
      "name": "setApprovalForAll",
      "outputs": [],
      "stateMutability": "nonpayable",
      "type": "function"
    },
    {
      "inputs": [
        {
          "components": [
            {
              "internalType": "string",
              "name": "name",
              "type": "string"
            },
            {
              "internalType": "uint32",
              "name": "start",
              "type": "uint32"
            },
            {
              "internalType": "uint32",
              "name": "end",
              "type": "uint32"
            }
          ],
          "internalType": "struct IEventImplementation.EventData",
          "name": "_eventData",
          "type": "tuple"
        }
      ],
      "name": "setEventData",
      "outputs": [],
      "stateMutability": "nonpayable",
      "type": "function"
    },
    {
      "inputs": [
        {
          "internalType": "string[]",
          "name": "ticketTypes",
          "type": "string[]"
        },
        {
          "internalType": "uint256[]",
          "name": "supplies",
          "type": "uint256[]"
        },
        {
          "internalType": "uint256[]",
          "name": "prices",
          "type": "uint256[]"
        }
      ],
      "name": "setTicketData",
      "outputs": [],
      "stateMutability": "nonpayable",
      "type": "function"
    },
    {
      "inputs": [
        {
          "internalType": "bytes4",
          "name": "interfaceId",
          "type": "bytes4"
        }
      ],
      "name": "supportsInterface",
      "outputs": [
        {
          "internalType": "bool",
          "name": "",
          "type": "bool"
        }
      ],
      "stateMutability": "view",
      "type": "function"
    },
    {
      "inputs": [],
      "name": "symbol",
      "outputs": [
        {
          "internalType": "string",
          "name": "",
          "type": "string"
        }
      ],
      "stateMutability": "view",
      "type": "function"
    },
    {
      "inputs": [
        {
          "internalType": "string",
          "name": "",
          "type": "string"
        }
      ],
      "name": "tickets",
      "outputs": [
        {
          "internalType": "uint256",
          "name": "supply",
          "type": "uint256"
        },
        {
          "internalType": "uint256",
          "name": "price",
          "type": "uint256"
        }
      ],
      "stateMutability": "view",
      "type": "function"
    },
    {
      "inputs": [
        {
          "internalType": "uint256",
          "name": "tokenId",
          "type": "uint256"
        }
      ],
      "name": "tokenURI",
      "outputs": [
        {
          "internalType": "string",
          "name": "",
          "type": "string"
        }
      ],
      "stateMutability": "view",
      "type": "function"
    },
    {
      "inputs": [
        {
          "internalType": "address",
          "name": "from",
          "type": "address"
        },
        {
          "internalType": "address",
          "name": "to",
          "type": "address"
        },
        {
          "internalType": "uint256",
          "name": "tokenId",
          "type": "uint256"
        }
      ],
      "name": "transferFrom",
      "outputs": [],
      "stateMutability": "nonpayable",
      "type": "function"
    },
    {
      "inputs": [
        {
          "internalType": "address",
          "name": "newOwner",
          "type": "address"
        }
      ],
      "name": "transferOwnership",
      "outputs": [],
      "stateMutability": "nonpayable",
      "type": "function"
    },
    {
      "stateMutability": "payable",
      "type": "receive"
    }
  ],
  "bytecode": "0x60806040523480156200001157600080fd5b50620000226200002860201b60201c565b620001d2565b600060019054906101000a900460ff16156200007b576040517f08c379a0000000000000000000000000000000000000000000000000000000008152600401620000729062000175565b60405180910390fd5b60ff801660008054906101000a900460ff1660ff1614620000ec5760ff6000806101000a81548160ff021916908360ff1602179055507f7f26b83ff96e1f2b6a682f133852f6798a09c465da95921460cefb384740249860ff604051620000e39190620001b5565b60405180910390a15b565b600082825260208201905092915050565b7f496e697469616c697a61626c653a20636f6e747261637420697320696e69746960008201527f616c697a696e6700000000000000000000000000000000000000000000000000602082015250565b60006200015d602783620000ee565b91506200016a82620000ff565b604082019050919050565b6000602082019050818103600083015262000190816200014e565b9050919050565b600060ff82169050919050565b620001af8162000197565b82525050565b6000602082019050620001cc6000830184620001a4565b92915050565b613dd180620001e26000396000f3fe6080604052600436106101395760003560e01c80636352211e116100ab57806395d89b411161006f57806395d89b4114610420578063a22cb4651461044b578063b88d4fde14610474578063c87b56dd1461049d578063e985e9c5146104da578063f2fde38b1461051757610140565b80636352211e1461033b57806370a0823114610378578063715018a6146103b55780638da5cb5b146103cc57806390ac6813146103f757610140565b8063254641e4116100fd578063254641e41461023957806329ae0b7f1461026657806340d097c3146102a457806342842e0e146102cd5780634934b73e146102f65780634cd88b761461031f57610140565b806301ffc9a71461014257806306fdde031461017f578063081812fc146101aa578063095ea7b3146101e757806323b872dd1461021057610140565b3661014057005b005b34801561014e57600080fd5b50610169600480360381019061016491906122ee565b610540565b6040516101769190612336565b60405180910390f35b34801561018b57600080fd5b50610194610622565b6040516101a191906123e1565b60405180910390f35b3480156101b657600080fd5b506101d160048036038101906101cc9190612439565b6106b4565b6040516101de91906124a7565b60405180910390f35b3480156101f357600080fd5b5061020e600480360381019061020991906124ee565b6106fa565b005b34801561021c57600080fd5b506102376004803603810190610232919061252e565b610811565b005b34801561024557600080fd5b5061024e610871565b60405161025d939291906125a0565b60405180910390f35b34801561027257600080fd5b5061028d60048036038101906102889190612713565b610931565b60405161029b92919061276b565b60405180910390f35b3480156102b057600080fd5b506102cb60048036038101906102c69190612794565b61096b565b005b3480156102d957600080fd5b506102f460048036038101906102ef919061252e565b610999565b005b34801561030257600080fd5b5061031d6004803603810190610318919061296a565b6109b9565b005b61033960048036038101906103349190612a11565b610a76565b005b34801561034757600080fd5b50610362600480360381019061035d9190612439565b610be3565b60405161036f91906124a7565b60405180910390f35b34801561038457600080fd5b5061039f600480360381019061039a9190612794565b610c69565b6040516103ac9190612a89565b60405180910390f35b3480156103c157600080fd5b506103ca610d20565b005b3480156103d857600080fd5b506103e1610d34565b6040516103ee91906124a7565b60405180910390f35b34801561040357600080fd5b5061041e60048036038101906104199190612ac8565b610d5e565b005b34801561042c57600080fd5b50610435610db1565b60405161044291906123e1565b60405180910390f35b34801561045757600080fd5b50610472600480360381019061046d9190612b3d565b610e43565b005b34801561048057600080fd5b5061049b60048036038101906104969190612c1e565b610e59565b005b3480156104a957600080fd5b506104c460048036038101906104bf9190612439565b610ebb565b6040516104d191906123e1565b60405180910390f35b3480156104e657600080fd5b5061050160048036038101906104fc9190612ca1565b610f23565b60405161050e9190612336565b60405180910390f35b34801561052357600080fd5b5061053e60048036038101906105399190612794565b610fb7565b005b60007f80ac58cd000000000000000000000000000000000000000000000000000000007bffffffffffffffffffffffffffffffffffffffffffffffffffffffff1916827bffffffffffffffffffffffffffffffffffffffffffffffffffffffff1916148061060b57507f5b5e139f000000000000000000000000000000000000000000000000000000007bffffffffffffffffffffffffffffffffffffffffffffffffffffffff1916827bffffffffffffffffffffffffffffffffffffffffffffffffffffffff1916145b8061061b575061061a8261103a565b5b9050919050565b60606065805461063190612d10565b80601f016020809104026020016040519081016040528092919081815260200182805461065d90612d10565b80156106aa5780601f1061067f576101008083540402835291602001916106aa565b820191906000526020600020905b81548152906001019060200180831161068d57829003601f168201915b5050505050905090565b60006106bf826110a4565b6069600083815260200190815260200160002060009054906101000a900473ffffffffffffffffffffffffffffffffffffffff169050919050565b600061070582610be3565b90508073ffffffffffffffffffffffffffffffffffffffff168373ffffffffffffffffffffffffffffffffffffffff1603610775576040517f08c379a000000000000000000000000000000000000000000000000000000000815260040161076c90612db3565b60405180910390fd5b8073ffffffffffffffffffffffffffffffffffffffff166107946110ef565b73ffffffffffffffffffffffffffffffffffffffff1614806107c357506107c2816107bd6110ef565b610f23565b5b610802576040517f08c379a00000000000000000000000000000000000000000000000000000000081526004016107f990612e45565b60405180910390fd5b61080c83836110f7565b505050565b61082261081c6110ef565b826111b0565b610861576040517f08c379a000000000000000000000000000000000000000000000000000000000815260040161085890612ed7565b60405180910390fd5b61086c838383611245565b505050565b60ca80600001805461088290612d10565b80601f01602080910402602001604051908101604052809291908181526020018280546108ae90612d10565b80156108fb5780601f106108d0576101008083540402835291602001916108fb565b820191906000526020600020905b8154815290600101906020018083116108de57829003601f168201915b5050505050908060010160009054906101000a900463ffffffff16908060010160049054906101000a900463ffffffff16905083565b60cc818051602081018201805184825260208301602085012081835280955050505050506000915090508060000154908060010154905082565b61097361153e565b600061097f60c96115bc565b905061098b60c96115ca565b61099582826115e0565b5050565b6109b483838360405180602001604052806000815250610e59565b505050565b60005b8351811015610a705760405180604001604052808483815181106109e3576109e2612ef7565b5b60200260200101518152602001838381518110610a0357610a02612ef7565b5b602002602001015181525060cc858381518110610a2357610a22612ef7565b5b6020026020010151604051610a389190612f62565b908152602001604051809103902060008201518160000155602082015181600101559050508080610a6890612fa8565b9150506109bc565b50505050565b60008060019054906101000a900460ff16159050808015610aa75750600160008054906101000a900460ff1660ff16105b80610ad45750610ab6306115fe565b158015610ad35750600160008054906101000a900460ff1660ff16145b5b610b13576040517f08c379a0000000000000000000000000000000000000000000000000000000008152600401610b0a90613062565b60405180910390fd5b60016000806101000a81548160ff021916908360ff1602179055508015610b50576001600060016101000a81548160ff0219169083151502179055505b610b58611621565b610b62838361167a565b610b85604051806060016040528060248152602001613d786024913984846116d7565b8015610bde5760008060016101000a81548160ff0219169083151502179055507f7f26b83ff96e1f2b6a682f133852f6798a09c465da95921460cefb38474024986001604051610bd591906130d4565b60405180910390a15b505050565b600080610bef83611776565b9050600073ffffffffffffffffffffffffffffffffffffffff168173ffffffffffffffffffffffffffffffffffffffff1603610c60576040517f08c379a0000000000000000000000000000000000000000000000000000000008152600401610c579061313b565b60405180910390fd5b80915050919050565b60008073ffffffffffffffffffffffffffffffffffffffff168273ffffffffffffffffffffffffffffffffffffffff1603610cd9576040517f08c379a0000000000000000000000000000000000000000000000000000000008152600401610cd0906131cd565b60405180910390fd5b606860008373ffffffffffffffffffffffffffffffffffffffff1673ffffffffffffffffffffffffffffffffffffffff168152602001908152602001600020549050919050565b610d2861153e565b610d3260006117b3565b565b6000609760009054906101000a900473ffffffffffffffffffffffffffffffffffffffff16905090565b8060ca8181610d6d919061365c565b905050610dae6040518060400160405280601381526020017f7573616f2075207365744576656e744461746100000000000000000000000000815250611879565b50565b606060668054610dc090612d10565b80601f0160208091040260200160405190810160405280929190818152602001828054610dec90612d10565b8015610e395780601f10610e0e57610100808354040283529160200191610e39565b820191906000526020600020905b815481529060010190602001808311610e1c57829003601f168201915b5050505050905090565b610e55610e4e6110ef565b8383611912565b5050565b610e6a610e646110ef565b836111b0565b610ea9576040517f08c379a0000000000000000000000000000000000000000000000000000000008152600401610ea090612ed7565b60405180910390fd5b610eb584848484611a7e565b50505050565b6060610ec6826110a4565b6000610ed0611ada565b90506000815111610ef05760405180602001604052806000815250610f1b565b80610efa84611af1565b604051602001610f0b92919061366a565b6040516020818303038152906040525b915050919050565b6000606a60008473ffffffffffffffffffffffffffffffffffffffff1673ffffffffffffffffffffffffffffffffffffffff16815260200190815260200160002060008373ffffffffffffffffffffffffffffffffffffffff1673ffffffffffffffffffffffffffffffffffffffff16815260200190815260200160002060009054906101000a900460ff16905092915050565b610fbf61153e565b600073ffffffffffffffffffffffffffffffffffffffff168173ffffffffffffffffffffffffffffffffffffffff160361102e576040517f08c379a000000000000000000000000000000000000000000000000000000000815260040161102590613700565b60405180910390fd5b611037816117b3565b50565b60007f01ffc9a7000000000000000000000000000000000000000000000000000000007bffffffffffffffffffffffffffffffffffffffffffffffffffffffff1916827bffffffffffffffffffffffffffffffffffffffffffffffffffffffff1916149050919050565b6110ad81611bbf565b6110ec576040517f08c379a00000000000000000000000000000000000000000000000000000000081526004016110e39061313b565b60405180910390fd5b50565b600033905090565b816069600083815260200190815260200160002060006101000a81548173ffffffffffffffffffffffffffffffffffffffff021916908373ffffffffffffffffffffffffffffffffffffffff160217905550808273ffffffffffffffffffffffffffffffffffffffff1661116a83610be3565b73ffffffffffffffffffffffffffffffffffffffff167f8c5be1e5ebec7d5bd14f71427d1e84f3dd0314c0f7b2291e5b200ac8c7c3b92560405160405180910390a45050565b6000806111bc83610be3565b90508073ffffffffffffffffffffffffffffffffffffffff168473ffffffffffffffffffffffffffffffffffffffff1614806111fe57506111fd8185610f23565b5b8061123c57508373ffffffffffffffffffffffffffffffffffffffff16611224846106b4565b73ffffffffffffffffffffffffffffffffffffffff16145b91505092915050565b8273ffffffffffffffffffffffffffffffffffffffff1661126582610be3565b73ffffffffffffffffffffffffffffffffffffffff16146112bb576040517f08c379a00000000000000000000000000000000000000000000000000000000081526004016112b290613792565b60405180910390fd5b600073ffffffffffffffffffffffffffffffffffffffff168273ffffffffffffffffffffffffffffffffffffffff160361132a576040517f08c379a000000000000000000000000000000000000000000000000000000000815260040161132190613824565b60405180910390fd5b6113378383836001611c00565b8273ffffffffffffffffffffffffffffffffffffffff1661135782610be3565b73ffffffffffffffffffffffffffffffffffffffff16146113ad576040517f08c379a00000000000000000000000000000000000000000000000000000000081526004016113a490613792565b60405180910390fd5b6069600082815260200190815260200160002060006101000a81549073ffffffffffffffffffffffffffffffffffffffff02191690556001606860008573ffffffffffffffffffffffffffffffffffffffff1673ffffffffffffffffffffffffffffffffffffffff168152602001908152602001600020600082825403925050819055506001606860008473ffffffffffffffffffffffffffffffffffffffff1673ffffffffffffffffffffffffffffffffffffffff16815260200190815260200160002060008282540192505081905550816067600083815260200190815260200160002060006101000a81548173ffffffffffffffffffffffffffffffffffffffff021916908373ffffffffffffffffffffffffffffffffffffffff160217905550808273ffffffffffffffffffffffffffffffffffffffff168473ffffffffffffffffffffffffffffffffffffffff167fddf252ad1be2c89b69c2b068fc378daa952ba7f163c4a11628f55a4df523b3ef60405160405180910390a46115398383836001611c06565b505050565b6115466110ef565b73ffffffffffffffffffffffffffffffffffffffff16611564610d34565b73ffffffffffffffffffffffffffffffffffffffff16146115ba576040517f08c379a00000000000000000000000000000000000000000000000000000000081526004016115b190613890565b60405180910390fd5b565b600081600001549050919050565b6001816000016000828254019250508190555050565b6115fa828260405180602001604052806000815250611c0c565b5050565b6000808273ffffffffffffffffffffffffffffffffffffffff163b119050919050565b600060019054906101000a900460ff16611670576040517f08c379a000000000000000000000000000000000000000000000000000000000815260040161166790613922565b60405180910390fd5b611678611c67565b565b600060019054906101000a900460ff166116c9576040517f08c379a00000000000000000000000000000000000000000000000000000000081526004016116c090613922565b60405180910390fd5b6116d38282611cc8565b5050565b6117718383836040516024016116ef93929190613942565b6040516020818303038152906040527f2ced7cef000000000000000000000000000000000000000000000000000000007bffffffffffffffffffffffffffffffffffffffffffffffffffffffff19166020820180517bffffffffffffffffffffffffffffffffffffffffffffffffffffffff8381831617835250505050611d3b565b505050565b60006067600083815260200190815260200160002060009054906101000a900473ffffffffffffffffffffffffffffffffffffffff169050919050565b6000609760009054906101000a900473ffffffffffffffffffffffffffffffffffffffff16905081609760006101000a81548173ffffffffffffffffffffffffffffffffffffffff021916908373ffffffffffffffffffffffffffffffffffffffff1602179055508173ffffffffffffffffffffffffffffffffffffffff168173ffffffffffffffffffffffffffffffffffffffff167f8be0079c531659141344cd1fd0a4f28419497f9722a3daafe3b4186f6b6457e060405160405180910390a35050565b61190f8160405160240161188d91906123e1565b6040516020818303038152906040527f41304fac000000000000000000000000000000000000000000000000000000007bffffffffffffffffffffffffffffffffffffffffffffffffffffffff19166020820180517bffffffffffffffffffffffffffffffffffffffffffffffffffffffff8381831617835250505050611d3b565b50565b8173ffffffffffffffffffffffffffffffffffffffff168373ffffffffffffffffffffffffffffffffffffffff1603611980576040517f08c379a0000000000000000000000000000000000000000000000000000000008152600401611977906139da565b60405180910390fd5b80606a60008573ffffffffffffffffffffffffffffffffffffffff1673ffffffffffffffffffffffffffffffffffffffff16815260200190815260200160002060008473ffffffffffffffffffffffffffffffffffffffff1673ffffffffffffffffffffffffffffffffffffffff16815260200190815260200160002060006101000a81548160ff0219169083151502179055508173ffffffffffffffffffffffffffffffffffffffff168373ffffffffffffffffffffffffffffffffffffffff167f17307eab39ab6107e8899845ad3d59bd9653f200f220920489ca2b5937696c3183604051611a719190612336565b60405180910390a3505050565b611a89848484611245565b611a9584848484611d55565b611ad4576040517f08c379a0000000000000000000000000000000000000000000000000000000008152600401611acb90613a6c565b60405180910390fd5b50505050565b606060405180602001604052806000815250905090565b606060006001611b0084611edc565b01905060008167ffffffffffffffff811115611b1f57611b1e6125e8565b5b6040519080825280601f01601f191660200182016040528015611b515781602001600182028036833780820191505090505b509050600082602001820190505b600115611bb4578080600190039150507f3031323334353637383961626364656600000000000000000000000000000000600a86061a8153600a8581611ba857611ba7613a8c565b5b04945060008503611b5f575b819350505050919050565b60008073ffffffffffffffffffffffffffffffffffffffff16611be183611776565b73ffffffffffffffffffffffffffffffffffffffff1614159050919050565b50505050565b50505050565b611c16838361202f565b611c236000848484611d55565b611c62576040517f08c379a0000000000000000000000000000000000000000000000000000000008152600401611c5990613a6c565b60405180910390fd5b505050565b600060019054906101000a900460ff16611cb6576040517f08c379a0000000000000000000000000000000000000000000000000000000008152600401611cad90613922565b60405180910390fd5b611cc6611cc16110ef565b6117b3565b565b600060019054906101000a900460ff16611d17576040517f08c379a0000000000000000000000000000000000000000000000000000000008152600401611d0e90613922565b60405180910390fd5b8160659081611d269190613abb565b508060669081611d369190613abb565b505050565b611d5281611d4a61224c61226d565b63ffffffff16565b50565b6000611d768473ffffffffffffffffffffffffffffffffffffffff166115fe565b15611ecf578373ffffffffffffffffffffffffffffffffffffffff1663150b7a02611d9f6110ef565b8786866040518563ffffffff1660e01b8152600401611dc19493929190613be2565b6020604051808303816000875af1925050508015611dfd57506040513d601f19601f82011682018060405250810190611dfa9190613c43565b60015b611e7f573d8060008114611e2d576040519150601f19603f3d011682016040523d82523d6000602084013e611e32565b606091505b506000815103611e77576040517f08c379a0000000000000000000000000000000000000000000000000000000008152600401611e6e90613a6c565b60405180910390fd5b805181602001fd5b63150b7a0260e01b7bffffffffffffffffffffffffffffffffffffffffffffffffffffffff1916817bffffffffffffffffffffffffffffffffffffffffffffffffffffffff191614915050611ed4565b600190505b949350505050565b600080600090507a184f03e93ff9f4daa797ed6e38ed64bf6a1f0100000000000000008310611f3a577a184f03e93ff9f4daa797ed6e38ed64bf6a1f0100000000000000008381611f3057611f2f613a8c565b5b0492506040810190505b6d04ee2d6d415b85acef81000000008310611f77576d04ee2d6d415b85acef81000000008381611f6d57611f6c613a8c565b5b0492506020810190505b662386f26fc100008310611fa657662386f26fc100008381611f9c57611f9b613a8c565b5b0492506010810190505b6305f5e1008310611fcf576305f5e1008381611fc557611fc4613a8c565b5b0492506008810190505b6127108310611ff4576127108381611fea57611fe9613a8c565b5b0492506004810190505b60648310612017576064838161200d5761200c613a8c565b5b0492506002810190505b600a8310612026576001810190505b80915050919050565b600073ffffffffffffffffffffffffffffffffffffffff168273ffffffffffffffffffffffffffffffffffffffff160361209e576040517f08c379a000000000000000000000000000000000000000000000000000000000815260040161209590613cbc565b60405180910390fd5b6120a781611bbf565b156120e7576040517f08c379a00000000000000000000000000000000000000000000000000000000081526004016120de90613d28565b60405180910390fd5b6120f5600083836001611c00565b6120fe81611bbf565b1561213e576040517f08c379a000000000000000000000000000000000000000000000000000000000815260040161213590613d28565b60405180910390fd5b6001606860008473ffffffffffffffffffffffffffffffffffffffff1673ffffffffffffffffffffffffffffffffffffffff16815260200190815260200160002060008282540192505081905550816067600083815260200190815260200160002060006101000a81548173ffffffffffffffffffffffffffffffffffffffff021916908373ffffffffffffffffffffffffffffffffffffffff160217905550808273ffffffffffffffffffffffffffffffffffffffff16600073ffffffffffffffffffffffffffffffffffffffff167fddf252ad1be2c89b69c2b068fc378daa952ba7f163c4a11628f55a4df523b3ef60405160405180910390a4612248600083836001611c06565b5050565b60006a636f6e736f6c652e6c6f679050600080835160208501845afa505050565b612278819050919050565b612280613d48565b565b6000604051905090565b600080fd5b600080fd5b60007fffffffff0000000000000000000000000000000000000000000000000000000082169050919050565b6122cb81612296565b81146122d657600080fd5b50565b6000813590506122e8816122c2565b92915050565b6000602082840312156123045761230361228c565b5b6000612312848285016122d9565b91505092915050565b60008115159050919050565b6123308161231b565b82525050565b600060208201905061234b6000830184612327565b92915050565b600081519050919050565b600082825260208201905092915050565b60005b8381101561238b578082015181840152602081019050612370565b60008484015250505050565b6000601f19601f8301169050919050565b60006123b382612351565b6123bd818561235c565b93506123cd81856020860161236d565b6123d681612397565b840191505092915050565b600060208201905081810360008301526123fb81846123a8565b905092915050565b6000819050919050565b61241681612403565b811461242157600080fd5b50565b6000813590506124338161240d565b92915050565b60006020828403121561244f5761244e61228c565b5b600061245d84828501612424565b91505092915050565b600073ffffffffffffffffffffffffffffffffffffffff82169050919050565b600061249182612466565b9050919050565b6124a181612486565b82525050565b60006020820190506124bc6000830184612498565b92915050565b6124cb81612486565b81146124d657600080fd5b50565b6000813590506124e8816124c2565b92915050565b600080604083850312156125055761250461228c565b5b6000612513858286016124d9565b925050602061252485828601612424565b9150509250929050565b6000806000606084860312156125475761254661228c565b5b6000612555868287016124d9565b9350506020612566868287016124d9565b925050604061257786828701612424565b9150509250925092565b600063ffffffff82169050919050565b61259a81612581565b82525050565b600060608201905081810360008301526125ba81866123a8565b90506125c96020830185612591565b6125d66040830184612591565b949350505050565b600080fd5b600080fd5b7f4e487b7100000000000000000000000000000000000000000000000000000000600052604160045260246000fd5b61262082612397565b810181811067ffffffffffffffff8211171561263f5761263e6125e8565b5b80604052505050565b6000612652612282565b905061265e8282612617565b919050565b600067ffffffffffffffff82111561267e5761267d6125e8565b5b61268782612397565b9050602081019050919050565b82818337600083830152505050565b60006126b66126b184612663565b612648565b9050828152602081018484840111156126d2576126d16125e3565b5b6126dd848285612694565b509392505050565b600082601f8301126126fa576126f96125de565b5b813561270a8482602086016126a3565b91505092915050565b6000602082840312156127295761272861228c565b5b600082013567ffffffffffffffff81111561274757612746612291565b5b612753848285016126e5565b91505092915050565b61276581612403565b82525050565b6000604082019050612780600083018561275c565b61278d602083018461275c565b9392505050565b6000602082840312156127aa576127a961228c565b5b60006127b8848285016124d9565b91505092915050565b600067ffffffffffffffff8211156127dc576127db6125e8565b5b602082029050602081019050919050565b600080fd5b6000612805612800846127c1565b612648565b90508083825260208201905060208402830185811115612828576128276127ed565b5b835b8181101561286f57803567ffffffffffffffff81111561284d5761284c6125de565b5b80860161285a89826126e5565b8552602085019450505060208101905061282a565b5050509392505050565b600082601f83011261288e5761288d6125de565b5b813561289e8482602086016127f2565b91505092915050565b600067ffffffffffffffff8211156128c2576128c16125e8565b5b602082029050602081019050919050565b60006128e66128e1846128a7565b612648565b90508083825260208201905060208402830185811115612909576129086127ed565b5b835b81811015612932578061291e8882612424565b84526020840193505060208101905061290b565b5050509392505050565b600082601f830112612951576129506125de565b5b81356129618482602086016128d3565b91505092915050565b6000806000606084860312156129835761298261228c565b5b600084013567ffffffffffffffff8111156129a1576129a0612291565b5b6129ad86828701612879565b935050602084013567ffffffffffffffff8111156129ce576129cd612291565b5b6129da8682870161293c565b925050604084013567ffffffffffffffff8111156129fb576129fa612291565b5b612a078682870161293c565b9150509250925092565b60008060408385031215612a2857612a2761228c565b5b600083013567ffffffffffffffff811115612a4657612a45612291565b5b612a52858286016126e5565b925050602083013567ffffffffffffffff811115612a7357612a72612291565b5b612a7f858286016126e5565b9150509250929050565b6000602082019050612a9e600083018461275c565b92915050565b600080fd5b600060608284031215612abf57612abe612aa4565b5b81905092915050565b600060208284031215612ade57612add61228c565b5b600082013567ffffffffffffffff811115612afc57612afb612291565b5b612b0884828501612aa9565b91505092915050565b612b1a8161231b565b8114612b2557600080fd5b50565b600081359050612b3781612b11565b92915050565b60008060408385031215612b5457612b5361228c565b5b6000612b62858286016124d9565b9250506020612b7385828601612b28565b9150509250929050565b600067ffffffffffffffff821115612b9857612b976125e8565b5b612ba182612397565b9050602081019050919050565b6000612bc1612bbc84612b7d565b612648565b905082815260208101848484011115612bdd57612bdc6125e3565b5b612be8848285612694565b509392505050565b600082601f830112612c0557612c046125de565b5b8135612c15848260208601612bae565b91505092915050565b60008060008060808587031215612c3857612c3761228c565b5b6000612c46878288016124d9565b9450506020612c57878288016124d9565b9350506040612c6887828801612424565b925050606085013567ffffffffffffffff811115612c8957612c88612291565b5b612c9587828801612bf0565b91505092959194509250565b60008060408385031215612cb857612cb761228c565b5b6000612cc6858286016124d9565b9250506020612cd7858286016124d9565b9150509250929050565b7f4e487b7100000000000000000000000000000000000000000000000000000000600052602260045260246000fd5b60006002820490506001821680612d2857607f821691505b602082108103612d3b57612d3a612ce1565b5b50919050565b7f4552433732313a20617070726f76616c20746f2063757272656e74206f776e6560008201527f7200000000000000000000000000000000000000000000000000000000000000602082015250565b6000612d9d60218361235c565b9150612da882612d41565b604082019050919050565b60006020820190508181036000830152612dcc81612d90565b9050919050565b7f4552433732313a20617070726f76652063616c6c6572206973206e6f7420746f60008201527f6b656e206f776e6572206f7220617070726f76656420666f7220616c6c000000602082015250565b6000612e2f603d8361235c565b9150612e3a82612dd3565b604082019050919050565b60006020820190508181036000830152612e5e81612e22565b9050919050565b7f4552433732313a2063616c6c6572206973206e6f7420746f6b656e206f776e6560008201527f72206f7220617070726f76656400000000000000000000000000000000000000602082015250565b6000612ec1602d8361235c565b9150612ecc82612e65565b604082019050919050565b60006020820190508181036000830152612ef081612eb4565b9050919050565b7f4e487b7100000000000000000000000000000000000000000000000000000000600052603260045260246000fd5b600081905092915050565b6000612f3c82612351565b612f468185612f26565b9350612f5681856020860161236d565b80840191505092915050565b6000612f6e8284612f31565b915081905092915050565b7f4e487b7100000000000000000000000000000000000000000000000000000000600052601160045260246000fd5b6000612fb382612403565b91507fffffffffffffffffffffffffffffffffffffffffffffffffffffffffffffffff8203612fe557612fe4612f79565b5b600182019050919050565b7f496e697469616c697a61626c653a20636f6e747261637420697320616c72656160008201527f647920696e697469616c697a6564000000000000000000000000000000000000602082015250565b600061304c602e8361235c565b915061305782612ff0565b604082019050919050565b6000602082019050818103600083015261307b8161303f565b9050919050565b6000819050919050565b600060ff82169050919050565b6000819050919050565b60006130be6130b96130b484613082565b613099565b61308c565b9050919050565b6130ce816130a3565b82525050565b60006020820190506130e960008301846130c5565b92915050565b7f4552433732313a20696e76616c696420746f6b656e2049440000000000000000600082015250565b600061312560188361235c565b9150613130826130ef565b602082019050919050565b6000602082019050818103600083015261315481613118565b9050919050565b7f4552433732313a2061646472657373207a65726f206973206e6f74206120766160008201527f6c6964206f776e65720000000000000000000000000000000000000000000000602082015250565b60006131b760298361235c565b91506131c28261315b565b604082019050919050565b600060208201905081810360008301526131e6816131aa565b9050919050565b600080fd5b600080fd5b600080fd5b60008083356001602003843603038112613219576132186131ed565b5b80840192508235915067ffffffffffffffff82111561323b5761323a6131f2565b5b602083019250600182023603831315613257576132566131f7565b5b509250929050565b600082905092915050565b60008190508160005260206000209050919050565b60006020601f8301049050919050565b600082821b905092915050565b6000600883026132cc7fffffffffffffffffffffffffffffffffffffffffffffffffffffffffffffffff8261328f565b6132d6868361328f565b95508019841693508086168417925050509392505050565b60006133096133046132ff84612403565b613099565b612403565b9050919050565b6000819050919050565b613323836132ee565b61333761332f82613310565b84845461329c565b825550505050565b600090565b61334c61333f565b61335781848461331a565b505050565b5b8181101561337b57613370600082613344565b60018101905061335d565b5050565b601f8211156133c0576133918161326a565b61339a8461327f565b810160208510156133a9578190505b6133bd6133b58561327f565b83018261335c565b50505b505050565b600082821c905092915050565b60006133e3600019846008026133c5565b1980831691505092915050565b60006133fc83836133d2565b9150826002028217905092915050565b613416838361325f565b67ffffffffffffffff81111561342f5761342e6125e8565b5b6134398254612d10565b61344482828561337f565b6000601f8311600181146134735760008415613461578287013590505b61346b85826133f0565b8655506134d3565b601f1984166134818661326a565b60005b828110156134a957848901358255600182019150602085019450602081019050613484565b868310156134c657848901356134c2601f8916826133d2565b8355505b6001600288020188555050505b50505050505050565b6134e783838361340c565b505050565b6134f581612581565b811461350057600080fd5b50565b60008135613510816134ec565b80915050919050565b60008160001b9050919050565b600063ffffffff61353684613519565b9350801983169250808416831791505092915050565b600061356761356261355d84612581565b613099565b612581565b9050919050565b6000819050919050565b6135818261354c565b61359461358d8261356e565b8354613526565b8255505050565b60008160201b9050919050565b600067ffffffff000000006135bc8461359b565b9350801983169250808416831791505092915050565b6135db8261354c565b6135ee6135e78261356e565b83546135a8565b8255505050565b600081016000830161360781856131fc565b6136128183866134dc565b5050505060018101602083018061362881613503565b90506136348184613578565b50505060018101604083018061364981613503565b905061365581846135d2565b5050505050565b61366682826135f5565b5050565b60006136768285612f31565b91506136828284612f31565b91508190509392505050565b7f4f776e61626c653a206e6577206f776e657220697320746865207a65726f206160008201527f6464726573730000000000000000000000000000000000000000000000000000602082015250565b60006136ea60268361235c565b91506136f58261368e565b604082019050919050565b60006020820190508181036000830152613719816136dd565b9050919050565b7f4552433732313a207472616e736665722066726f6d20696e636f72726563742060008201527f6f776e6572000000000000000000000000000000000000000000000000000000602082015250565b600061377c60258361235c565b915061378782613720565b604082019050919050565b600060208201905081810360008301526137ab8161376f565b9050919050565b7f4552433732313a207472616e7366657220746f20746865207a65726f2061646460008201527f7265737300000000000000000000000000000000000000000000000000000000602082015250565b600061380e60248361235c565b9150613819826137b2565b604082019050919050565b6000602082019050818103600083015261383d81613801565b9050919050565b7f4f776e61626c653a2063616c6c6572206973206e6f7420746865206f776e6572600082015250565b600061387a60208361235c565b915061388582613844565b602082019050919050565b600060208201905081810360008301526138a98161386d565b9050919050565b7f496e697469616c697a61626c653a20636f6e7472616374206973206e6f74206960008201527f6e697469616c697a696e67000000000000000000000000000000000000000000602082015250565b600061390c602b8361235c565b9150613917826138b0565b604082019050919050565b6000602082019050818103600083015261393b816138ff565b9050919050565b6000606082019050818103600083015261395c81866123a8565b9050818103602083015261397081856123a8565b9050818103604083015261398481846123a8565b9050949350505050565b7f4552433732313a20617070726f766520746f2063616c6c657200000000000000600082015250565b60006139c460198361235c565b91506139cf8261398e565b602082019050919050565b600060208201905081810360008301526139f3816139b7565b9050919050565b7f4552433732313a207472616e7366657220746f206e6f6e20455243373231526560008201527f63656976657220696d706c656d656e7465720000000000000000000000000000602082015250565b6000613a5660328361235c565b9150613a61826139fa565b604082019050919050565b60006020820190508181036000830152613a8581613a49565b9050919050565b7f4e487b7100000000000000000000000000000000000000000000000000000000600052601260045260246000fd5b613ac482612351565b67ffffffffffffffff811115613add57613adc6125e8565b5b613ae78254612d10565b613af282828561337f565b600060209050601f831160018114613b255760008415613b13578287015190505b613b1d85826133f0565b865550613b85565b601f198416613b338661326a565b60005b82811015613b5b57848901518255600182019150602085019450602081019050613b36565b86831015613b785784890151613b74601f8916826133d2565b8355505b6001600288020188555050505b505050505050565b600081519050919050565b600082825260208201905092915050565b6000613bb482613b8d565b613bbe8185613b98565b9350613bce81856020860161236d565b613bd781612397565b840191505092915050565b6000608082019050613bf76000830187612498565b613c046020830186612498565b613c11604083018561275c565b8181036060830152613c238184613ba9565b905095945050505050565b600081519050613c3d816122c2565b92915050565b600060208284031215613c5957613c5861228c565b5b6000613c6784828501613c2e565b91505092915050565b7f4552433732313a206d696e7420746f20746865207a65726f2061646472657373600082015250565b6000613ca660208361235c565b9150613cb182613c70565b602082019050919050565b60006020820190508181036000830152613cd581613c99565b9050919050565b7f4552433732313a20746f6b656e20616c7265616479206d696e74656400000000600082015250565b6000613d12601c8361235c565b9150613d1d82613cdc565b602082019050919050565b60006020820190508181036000830152613d4181613d05565b9050919050565b7f4e487b7100000000000000000000000000000000000000000000000000000000600052605160045260246000fdfe2573206e616d652073657276696365206465706c6f7965642e2053796d626f6c3a202573a264697066735822122034d7d18d055fc1ed14d905560e7f3bd4cadd0b98dbfa414783479aa7de4e6d9464736f6c63430008130033",
  "linkReferences": {},
  "deployedLinkReferences": {}
}