{
  "_format": "hh-sol-artifact-1",
  "contractName": "EventImplementation",
  "sourceName": "contracts/EventImplementation.sol",
  "abi": [
    {
      "inputs": [],
      "stateMutability": "nonpayable",
      "type": "constructor"
    },
    {
      "anonymous": false,
      "inputs": [
        {
          "indexed": true,
          "internalType": "address",
          "name": "owner",
          "type": "address"
        },
        {
          "indexed": true,
          "internalType": "address",
          "name": "approved",
          "type": "address"
        },
        {
          "indexed": true,
          "internalType": "uint256",
          "name": "tokenId",
          "type": "uint256"
        }
      ],
      "name": "Approval",
      "type": "event"
    },
    {
      "anonymous": false,
      "inputs": [
        {
          "indexed": true,
          "internalType": "address",
          "name": "owner",
          "type": "address"
        },
        {
          "indexed": true,
          "internalType": "address",
          "name": "operator",
          "type": "address"
        },
        {
          "indexed": false,
          "internalType": "bool",
          "name": "approved",
          "type": "bool"
        }
      ],
      "name": "ApprovalForAll",
      "type": "event"
    },
    {
      "anonymous": false,
      "inputs": [
        {
          "indexed": false,
          "internalType": "uint8",
          "name": "version",
          "type": "uint8"
        }
      ],
      "name": "Initialized",
      "type": "event"
    },
    {
      "anonymous": false,
      "inputs": [
        {
          "indexed": false,
          "internalType": "uint256",
          "name": "",
          "type": "uint256"
        }
      ],
      "name": "ListedTicketSuccess",
      "type": "event"
    },
    {
      "anonymous": false,
      "inputs": [
        {
          "indexed": true,
          "internalType": "address",
          "name": "previousOwner",
          "type": "address"
        },
        {
          "indexed": true,
          "internalType": "address",
          "name": "newOwner",
          "type": "address"
        }
      ],
      "name": "OwnershipTransferred",
      "type": "event"
    },
    {
      "anonymous": false,
      "inputs": [
        {
          "indexed": false,
          "internalType": "uint256",
          "name": "",
          "type": "uint256"
        }
      ],
      "name": "SecondarySale",
      "type": "event"
    },
    {
      "anonymous": false,
      "inputs": [
        {
          "indexed": false,
          "internalType": "address",
          "name": "",
          "type": "address"
        },
        {
          "indexed": false,
          "internalType": "uint256",
          "name": "",
          "type": "uint256"
        }
      ],
      "name": "TicketSale",
      "type": "event"
    },
    {
      "anonymous": false,
      "inputs": [
        {
          "indexed": true,
          "internalType": "address",
          "name": "from",
          "type": "address"
        },
        {
          "indexed": true,
          "internalType": "address",
          "name": "to",
          "type": "address"
        },
        {
          "indexed": true,
          "internalType": "uint256",
          "name": "tokenId",
          "type": "uint256"
        }
      ],
      "name": "Transfer",
      "type": "event"
    },
    {
      "stateMutability": "payable",
      "type": "fallback"
    },
    {
      "inputs": [
        {
          "internalType": "address",
          "name": "to",
          "type": "address"
        },
        {
          "internalType": "uint256",
          "name": "tokenId",
          "type": "uint256"
        }
      ],
      "name": "approve",
      "outputs": [],
      "stateMutability": "nonpayable",
      "type": "function"
    },
    {
      "inputs": [
        {
          "internalType": "address",
          "name": "owner",
          "type": "address"
        }
      ],
      "name": "balanceOf",
      "outputs": [
        {
          "internalType": "uint256",
          "name": "",
          "type": "uint256"
        }
      ],
      "stateMutability": "view",
      "type": "function"
    },
    {
      "inputs": [
        {
          "internalType": "string",
          "name": "ticketType",
          "type": "string"
        }
      ],
      "name": "buyTicket",
      "outputs": [],
      "stateMutability": "payable",
      "type": "function"
    },
    {
      "inputs": [],
      "name": "eventData",
      "outputs": [
        {
          "internalType": "string",
          "name": "name",
          "type": "string"
        },
        {
          "internalType": "uint32",
          "name": "start",
          "type": "uint32"
        },
        {
          "internalType": "uint32",
          "name": "end",
          "type": "uint32"
        }
      ],
      "stateMutability": "view",
      "type": "function"
    },
    {
      "inputs": [
        {
          "internalType": "uint256",
          "name": "tokenId",
          "type": "uint256"
        }
      ],
      "name": "getApproved",
      "outputs": [
        {
          "internalType": "address",
          "name": "",
          "type": "address"
        }
      ],
      "stateMutability": "view",
      "type": "function"
    },
    {
      "inputs": [
        {
          "internalType": "uint256",
          "name": "",
          "type": "uint256"
        }
      ],
      "name": "idToListedTicket",
      "outputs": [
        {
          "internalType": "address payable",
          "name": "seller",
          "type": "address"
        },
        {
          "internalType": "uint256",
          "name": "price",
          "type": "uint256"
        },
        {
          "internalType": "bool",
          "name": "isListed",
          "type": "bool"
        }
      ],
      "stateMutability": "view",
      "type": "function"
    },
    {
      "inputs": [
        {
          "internalType": "string",
          "name": "_eventName",
          "type": "string"
        },
        {
          "internalType": "string",
          "name": "_eventSymbol",
          "type": "string"
        }
      ],
      "name": "initialize",
      "outputs": [],
      "stateMutability": "payable",
      "type": "function"
    },
    {
      "inputs": [
        {
          "internalType": "address",
          "name": "owner",
          "type": "address"
        },
        {
          "internalType": "address",
          "name": "operator",
          "type": "address"
        }
      ],
      "name": "isApprovedForAll",
      "outputs": [
        {
          "internalType": "bool",
          "name": "",
          "type": "bool"
        }
      ],
      "stateMutability": "view",
      "type": "function"
    },
    {
      "inputs": [],
      "name": "name",
      "outputs": [
        {
          "internalType": "string",
          "name": "",
          "type": "string"
        }
      ],
      "stateMutability": "view",
      "type": "function"
    },
    {
      "inputs": [
        {
          "internalType": "address",
          "name": "",
          "type": "address"
        },
        {
          "internalType": "address",
          "name": "",
          "type": "address"
        },
        {
          "internalType": "uint256",
          "name": "",
          "type": "uint256"
        },
        {
          "internalType": "bytes",
          "name": "",
          "type": "bytes"
        }
      ],
      "name": "onERC721Received",
      "outputs": [
        {
          "internalType": "bytes4",
          "name": "",
          "type": "bytes4"
        }
      ],
      "stateMutability": "nonpayable",
      "type": "function"
    },
    {
      "inputs": [],
      "name": "owner",
      "outputs": [
        {
          "internalType": "address",
          "name": "",
          "type": "address"
        }
      ],
      "stateMutability": "view",
      "type": "function"
    },
    {
      "inputs": [
        {
          "internalType": "uint256",
          "name": "tokenId",
          "type": "uint256"
        }
      ],
      "name": "ownerOf",
      "outputs": [
        {
          "internalType": "address",
          "name": "",
          "type": "address"
        }
      ],
      "stateMutability": "view",
      "type": "function"
    },
    {
      "inputs": [],
      "name": "renounceOwnership",
      "outputs": [],
      "stateMutability": "nonpayable",
      "type": "function"
    },
    {
      "inputs": [
        {
          "internalType": "address",
          "name": "from",
          "type": "address"
        },
        {
          "internalType": "address",
          "name": "to",
          "type": "address"
        },
        {
          "internalType": "uint256",
          "name": "tokenId",
          "type": "uint256"
        }
      ],
      "name": "safeTransferFrom",
      "outputs": [],
      "stateMutability": "nonpayable",
      "type": "function"
    },
    {
      "inputs": [
        {
          "internalType": "address",
          "name": "from",
          "type": "address"
        },
        {
          "internalType": "address",
          "name": "to",
          "type": "address"
        },
        {
          "internalType": "uint256",
          "name": "tokenId",
          "type": "uint256"
        },
        {
          "internalType": "bytes",
          "name": "data",
          "type": "bytes"
        }
      ],
      "name": "safeTransferFrom",
      "outputs": [],
      "stateMutability": "nonpayable",
      "type": "function"
    },
    {
      "inputs": [
        {
          "internalType": "uint256",
          "name": "tokenId",
          "type": "uint256"
        }
      ],
      "name": "secondarySale",
      "outputs": [],
      "stateMutability": "payable",
      "type": "function"
    },
    {
      "inputs": [
        {
          "internalType": "uint256",
          "name": "tokenId",
          "type": "uint256"
        },
        {
          "internalType": "uint256",
          "name": "resellPrice",
          "type": "uint256"
        },
        {
          "internalType": "string",
          "name": "ticketType",
          "type": "string"
        }
      ],
      "name": "sellTicket",
      "outputs": [],
      "stateMutability": "nonpayable",
      "type": "function"
    },
    {
      "inputs": [
        {
          "internalType": "address",
          "name": "operator",
          "type": "address"
        },
        {
          "internalType": "bool",
          "name": "approved",
          "type": "bool"
        }
      ],
      "name": "setApprovalForAll",
      "outputs": [],
      "stateMutability": "nonpayable",
      "type": "function"
    },
    {
      "inputs": [
        {
          "components": [
            {
              "internalType": "string",
              "name": "name",
              "type": "string"
            },
            {
              "internalType": "uint32",
              "name": "start",
              "type": "uint32"
            },
            {
              "internalType": "uint32",
              "name": "end",
              "type": "uint32"
            }
          ],
          "internalType": "struct IEventImplementation.EventData",
          "name": "_eventData",
          "type": "tuple"
        }
      ],
      "name": "setEventData",
      "outputs": [],
      "stateMutability": "nonpayable",
      "type": "function"
    },
    {
      "inputs": [
        {
          "internalType": "address",
          "name": "newOwner",
          "type": "address"
        }
      ],
      "name": "setOrganizer",
      "outputs": [],
      "stateMutability": "nonpayable",
      "type": "function"
    },
    {
      "inputs": [
        {
          "internalType": "string[]",
          "name": "ticketTypes",
          "type": "string[]"
        },
        {
          "internalType": "uint256[]",
          "name": "supplies",
          "type": "uint256[]"
        },
        {
          "internalType": "uint256[]",
          "name": "prices",
          "type": "uint256[]"
        }
      ],
      "name": "setTicketData",
      "outputs": [],
      "stateMutability": "nonpayable",
      "type": "function"
    },
    {
      "inputs": [
        {
          "internalType": "bytes4",
          "name": "interfaceId",
          "type": "bytes4"
        }
      ],
      "name": "supportsInterface",
      "outputs": [
        {
          "internalType": "bool",
          "name": "",
          "type": "bool"
        }
      ],
      "stateMutability": "view",
      "type": "function"
    },
    {
      "inputs": [],
      "name": "symbol",
      "outputs": [
        {
          "internalType": "string",
          "name": "",
          "type": "string"
        }
      ],
      "stateMutability": "view",
      "type": "function"
    },
    {
      "inputs": [
        {
          "internalType": "string",
          "name": "",
          "type": "string"
        }
      ],
      "name": "tickets",
      "outputs": [
        {
          "internalType": "uint256",
          "name": "supply",
          "type": "uint256"
        },
        {
          "internalType": "uint256",
          "name": "price",
          "type": "uint256"
        }
      ],
      "stateMutability": "view",
      "type": "function"
    },
    {
      "inputs": [
        {
          "internalType": "uint256",
          "name": "tokenId",
          "type": "uint256"
        }
      ],
      "name": "tokenURI",
      "outputs": [
        {
          "internalType": "string",
          "name": "",
          "type": "string"
        }
      ],
      "stateMutability": "view",
      "type": "function"
    },
    {
      "inputs": [
        {
          "internalType": "address",
          "name": "from",
          "type": "address"
        },
        {
          "internalType": "address",
          "name": "to",
          "type": "address"
        },
        {
          "internalType": "uint256",
          "name": "tokenId",
          "type": "uint256"
        }
      ],
      "name": "transferFrom",
      "outputs": [],
      "stateMutability": "nonpayable",
      "type": "function"
    },
    {
      "inputs": [
        {
          "internalType": "address",
          "name": "newOwner",
          "type": "address"
        }
      ],
      "name": "transferOwnership",
      "outputs": [],
      "stateMutability": "nonpayable",
      "type": "function"
    },
    {
      "stateMutability": "payable",
      "type": "receive"
    }
  ],
  "bytecode": "0x60806040523480156200001157600080fd5b50620000226200002860201b60201c565b620001d2565b600060019054906101000a900460ff16156200007b576040517f08c379a0000000000000000000000000000000000000000000000000000000008152600401620000729062000175565b60405180910390fd5b60ff801660008054906101000a900460ff1660ff1614620000ec5760ff6000806101000a81548160ff021916908360ff1602179055507f7f26b83ff96e1f2b6a682f133852f6798a09c465da95921460cefb384740249860ff604051620000e39190620001b5565b60405180910390a15b565b600082825260208201905092915050565b7f496e697469616c697a61626c653a20636f6e747261637420697320696e69746960008201527f616c697a696e6700000000000000000000000000000000000000000000000000602082015250565b60006200015d602783620000ee565b91506200016a82620000ff565b604082019050919050565b6000602082019050818103600083015262000190816200014e565b9050919050565b600060ff82169050919050565b620001af8162000197565b82525050565b6000602082019050620001cc6000830184620001a4565b92915050565b61491180620001e26000396000f3fe6080604052600436106101a05760003560e01c806370a08231116100ec57806397746b731161008a578063c87b56dd11610064578063c87b56dd146105c5578063e985e9c514610602578063f2fde38b1461063f578063fa30b25114610668576101a7565b806397746b7314610557578063a22cb46514610573578063b88d4fde1461059c576101a7565b806389d61d77116100c657806389d61d77146104af5780638da5cb5b146104d857806390ac68131461050357806395d89b411461052c576101a7565b806370a0823114610432578063715018a61461046f578063732957d814610486576101a7565b806323b872dd1161015957806342842e0e1161013357806342842e0e146103875780634934b73e146103b05780634cd88b76146103d95780636352211e146103f5576101a7565b806323b872dd146102f3578063254641e41461031c57806329ae0b7f14610349576101a7565b806301ffc9a7146101a957806306fdde03146101e6578063081812fc14610211578063095ea7b31461024e578063150b7a021461027757806315dc898c146102b4576101a7565b366101a757005b005b3480156101b557600080fd5b506101d060048036038101906101cb9190612b51565b610684565b6040516101dd9190612b99565b60405180910390f35b3480156101f257600080fd5b506101fb610766565b6040516102089190612c44565b60405180910390f35b34801561021d57600080fd5b5061023860048036038101906102339190612c9c565b6107f8565b6040516102459190612d0a565b60405180910390f35b34801561025a57600080fd5b5061027560048036038101906102709190612d51565b61083e565b005b34801561028357600080fd5b5061029e60048036038101906102999190612ec6565b610955565b6040516102ab9190612f58565b60405180910390f35b3480156102c057600080fd5b506102db60048036038101906102d69190612c9c565b610969565b6040516102ea93929190612fa3565b60405180910390f35b3480156102ff57600080fd5b5061031a60048036038101906103159190612fda565b6109c0565b005b34801561032857600080fd5b50610331610a20565b6040516103409392919061304c565b60405180910390f35b34801561035557600080fd5b50610370600480360381019061036b919061312b565b610ae0565b60405161037e929190613174565b60405180910390f35b34801561039357600080fd5b506103ae60048036038101906103a99190612fda565b610b1a565b005b3480156103bc57600080fd5b506103d760048036038101906103d29190613346565b610b3a565b005b6103f360048036038101906103ee91906133ed565b610bf7565b005b34801561040157600080fd5b5061041c60048036038101906104179190612c9c565b610d64565b6040516104299190612d0a565b60405180910390f35b34801561043e57600080fd5b5061045960048036038101906104549190613465565b610dea565b6040516104669190613492565b60405180910390f35b34801561047b57600080fd5b50610484610ea1565b005b34801561049257600080fd5b506104ad60048036038101906104a891906134ad565b610eb5565b005b3480156104bb57600080fd5b506104d660048036038101906104d19190613465565b610fe1565b005b3480156104e457600080fd5b506104ed610fed565b6040516104fa9190612d0a565b60405180910390f35b34801561050f57600080fd5b5061052a600480360381019061052591906135d2565b611017565b005b34801561053857600080fd5b50610541611084565b60405161054e9190612c44565b60405180910390f35b610571600480360381019061056c9190612c9c565b611116565b005b34801561057f57600080fd5b5061059a60048036038101906105959190613647565b611326565b005b3480156105a857600080fd5b506105c360048036038101906105be9190612ec6565b61133c565b005b3480156105d157600080fd5b506105ec60048036038101906105e79190612c9c565b61139e565b6040516105f99190612c44565b60405180910390f35b34801561060e57600080fd5b5061062960048036038101906106249190613687565b611406565b6040516106369190612b99565b60405180910390f35b34801561064b57600080fd5b5061066660048036038101906106619190613465565b61149a565b005b610682600480360381019061067d919061312b565b61151d565b005b60007f80ac58cd000000000000000000000000000000000000000000000000000000007bffffffffffffffffffffffffffffffffffffffffffffffffffffffff1916827bffffffffffffffffffffffffffffffffffffffffffffffffffffffff1916148061074f57507f5b5e139f000000000000000000000000000000000000000000000000000000007bffffffffffffffffffffffffffffffffffffffffffffffffffffffff1916827bffffffffffffffffffffffffffffffffffffffffffffffffffffffff1916145b8061075f575061075e82611669565b5b9050919050565b606060658054610775906136f6565b80601f01602080910402602001604051908101604052809291908181526020018280546107a1906136f6565b80156107ee5780601f106107c3576101008083540402835291602001916107ee565b820191906000526020600020905b8154815290600101906020018083116107d157829003601f168201915b5050505050905090565b6000610803826116d3565b6069600083815260200190815260200160002060009054906101000a900473ffffffffffffffffffffffffffffffffffffffff169050919050565b600061084982610d64565b90508073ffffffffffffffffffffffffffffffffffffffff168373ffffffffffffffffffffffffffffffffffffffff16036108b9576040517f08c379a00000000000000000000000000000000000000000000000000000000081526004016108b090613799565b60405180910390fd5b8073ffffffffffffffffffffffffffffffffffffffff166108d861171e565b73ffffffffffffffffffffffffffffffffffffffff16148061090757506109068161090161171e565b611406565b5b610946576040517f08c379a000000000000000000000000000000000000000000000000000000000815260040161093d9061382b565b60405180910390fd5b6109508383611726565b505050565b600063150b7a0260e01b9050949350505050565b60ff6020528060005260406000206000915090508060000160009054906101000a900473ffffffffffffffffffffffffffffffffffffffff16908060010154908060020160009054906101000a900460ff16905083565b6109d16109cb61171e565b826117df565b610a10576040517f08c379a0000000000000000000000000000000000000000000000000000000008152600401610a07906138bd565b60405180910390fd5b610a1b838383611874565b505050565b60fc806000018054610a31906136f6565b80601f0160208091040260200160405190810160405280929190818152602001828054610a5d906136f6565b8015610aaa5780601f10610a7f57610100808354040283529160200191610aaa565b820191906000526020600020905b815481529060010190602001808311610a8d57829003601f168201915b5050505050908060010160009054906101000a900463ffffffff16908060010160049054906101000a900463ffffffff16905083565b60fe818051602081018201805184825260208301602085012081835280955050505050506000915090508060000154908060010154905082565b610b358383836040518060200160405280600081525061133c565b505050565b60005b8351811015610bf1576040518060400160405280848381518110610b6457610b636138dd565b5b60200260200101518152602001838381518110610b8457610b836138dd565b5b602002602001015181525060fe858381518110610ba457610ba36138dd565b5b6020026020010151604051610bb99190613948565b908152602001604051809103902060008201518160000155602082015181600101559050508080610be99061398e565b915050610b3d565b50505050565b60008060019054906101000a900460ff16159050808015610c285750600160008054906101000a900460ff1660ff16105b80610c555750610c3730611b6d565b158015610c545750600160008054906101000a900460ff1660ff16145b5b610c94576040517f08c379a0000000000000000000000000000000000000000000000000000000008152600401610c8b90613a48565b60405180910390fd5b60016000806101000a81548160ff021916908360ff1602179055508015610cd1576001600060016101000a81548160ff0219169083151502179055505b610cd9611b90565b610ce38383611be9565b610d0660405180606001604052806024815260200161488b602491398484611c46565b8015610d5f5760008060016101000a81548160ff0219169083151502179055507f7f26b83ff96e1f2b6a682f133852f6798a09c465da95921460cefb38474024986001604051610d569190613aba565b60405180910390a15b505050565b600080610d7083611ce5565b9050600073ffffffffffffffffffffffffffffffffffffffff168173ffffffffffffffffffffffffffffffffffffffff1603610de1576040517f08c379a0000000000000000000000000000000000000000000000000000000008152600401610dd890613b21565b60405180910390fd5b80915050919050565b60008073ffffffffffffffffffffffffffffffffffffffff168273ffffffffffffffffffffffffffffffffffffffff1603610e5a576040517f08c379a0000000000000000000000000000000000000000000000000000000008152600401610e5190613bb3565b60405180910390fd5b606860008373ffffffffffffffffffffffffffffffffffffffff1673ffffffffffffffffffffffffffffffffffffffff168152602001908152602001600020549050919050565b610ea9611d22565b610eb36000611da0565b565b60fe81604051610ec59190613948565b908152602001604051809103902060010154821115610f19576040517f08c379a0000000000000000000000000000000000000000000000000000000008152600401610f1090613c6b565b60405180910390fd5b600060ff60008581526020019081526020016000209050338160000160006101000a81548173ffffffffffffffffffffffffffffffffffffffff021916908373ffffffffffffffffffffffffffffffffffffffff16021790555082816001018190555060018160020160006101000a81548160ff021916908315150217905550610fa4333086610b1a565b7fc62b2513a90aac6cc5404212198ec88f49f58c37e0e2d6358703c70fea8e23de84604051610fd39190613492565b60405180910390a150505050565b610fea8161149a565b50565b600060c960009054906101000a900473ffffffffffffffffffffffffffffffffffffffff16905090565b8060fc600082015181600001908161102f9190613e2d565b5060208201518160010160006101000a81548163ffffffff021916908363ffffffff16021790555060408201518160010160046101000a81548163ffffffff021916908363ffffffff16021790555090505050565b606060668054611093906136f6565b80601f01602080910402602001604051908101604052809291908181526020018280546110bf906136f6565b801561110c5780601f106110e15761010080835404028352916020019161110c565b820191906000526020600020905b8154815290600101906020018083116110ef57829003601f168201915b5050505050905090565b60ff600082815260200190815260200160002060010154341461116e576040517f08c379a000000000000000000000000000000000000000000000000000000000815260040161116590613f71565b60405180910390fd5b60ff600082815260200190815260200160002060020160009054906101000a900460ff166111d1576040517f08c379a00000000000000000000000000000000000000000000000000000000081526004016111c890613fdd565b60405180910390fd5b3073ffffffffffffffffffffffffffffffffffffffff166342842e0e3033846040518463ffffffff1660e01b815260040161120e93929190613ffd565b600060405180830381600087803b15801561122857600080fd5b505af115801561123c573d6000803e3d6000fd5b50505050600060ff600083815260200190815260200160002060020160006101000a81548160ff02191690831515021790555060ff600082815260200190815260200160002060000160009054906101000a900473ffffffffffffffffffffffffffffffffffffffff1673ffffffffffffffffffffffffffffffffffffffff166108fc349081150290604051600060405180830381858888f193505050501580156112eb573d6000803e3d6000fd5b507fd08a23583fffe11a0e59aa1212e61e7945c89fbe3d52b1013bde6abeb4f657098160405161131b9190613492565b60405180910390a150565b61133861133161171e565b8383611e66565b5050565b61134d61134761171e565b836117df565b61138c576040517f08c379a0000000000000000000000000000000000000000000000000000000008152600401611383906138bd565b60405180910390fd5b61139884848484611fd2565b50505050565b60606113a9826116d3565b60006113b361202e565b905060008151116113d357604051806020016040528060008152506113fe565b806113dd84612083565b6040516020016113ee929190614034565b6040516020818303038152906040525b915050919050565b6000606a60008473ffffffffffffffffffffffffffffffffffffffff1673ffffffffffffffffffffffffffffffffffffffff16815260200190815260200160002060008373ffffffffffffffffffffffffffffffffffffffff1673ffffffffffffffffffffffffffffffffffffffff16815260200190815260200160002060009054906101000a900460ff16905092915050565b6114a2611d22565b600073ffffffffffffffffffffffffffffffffffffffff168173ffffffffffffffffffffffffffffffffffffffff1603611511576040517f08c379a0000000000000000000000000000000000000000000000000000000008152600401611508906140ca565b60405180910390fd5b61151a81611da0565b50565b600060fe8260405161152f9190613948565b90815260200160405180910390206000015411611581576040517f08c379a000000000000000000000000000000000000000000000000000000000815260040161157890614136565b60405180910390fd5b60fe816040516115919190613948565b90815260200160405180910390206001015434146115e4576040517f08c379a00000000000000000000000000000000000000000000000000000000081526004016115db90613f71565b60405180910390fd5b6115ed33612151565b60fe816040516115fd9190613948565b9081526020016040518091039020600001600081548092919061161f90614156565b91905055507fb307cbfc9a41a392c2febb6872adfc8e21e700c445b7a5c71ced7d41344ccd023061165060fb612177565b60405161165e92919061417f565b60405180910390a150565b60007f01ffc9a7000000000000000000000000000000000000000000000000000000007bffffffffffffffffffffffffffffffffffffffffffffffffffffffff1916827bffffffffffffffffffffffffffffffffffffffffffffffffffffffff1916149050919050565b6116dc81612185565b61171b576040517f08c379a000000000000000000000000000000000000000000000000000000000815260040161171290613b21565b60405180910390fd5b50565b600033905090565b816069600083815260200190815260200160002060006101000a81548173ffffffffffffffffffffffffffffffffffffffff021916908373ffffffffffffffffffffffffffffffffffffffff160217905550808273ffffffffffffffffffffffffffffffffffffffff1661179983610d64565b73ffffffffffffffffffffffffffffffffffffffff167f8c5be1e5ebec7d5bd14f71427d1e84f3dd0314c0f7b2291e5b200ac8c7c3b92560405160405180910390a45050565b6000806117eb83610d64565b90508073ffffffffffffffffffffffffffffffffffffffff168473ffffffffffffffffffffffffffffffffffffffff16148061182d575061182c8185611406565b5b8061186b57508373ffffffffffffffffffffffffffffffffffffffff16611853846107f8565b73ffffffffffffffffffffffffffffffffffffffff16145b91505092915050565b8273ffffffffffffffffffffffffffffffffffffffff1661189482610d64565b73ffffffffffffffffffffffffffffffffffffffff16146118ea576040517f08c379a00000000000000000000000000000000000000000000000000000000081526004016118e19061421a565b60405180910390fd5b600073ffffffffffffffffffffffffffffffffffffffff168273ffffffffffffffffffffffffffffffffffffffff1603611959576040517f08c379a0000000000000000000000000000000000000000000000000000000008152600401611950906142ac565b60405180910390fd5b61196683838360016121c6565b8273ffffffffffffffffffffffffffffffffffffffff1661198682610d64565b73ffffffffffffffffffffffffffffffffffffffff16146119dc576040517f08c379a00000000000000000000000000000000000000000000000000000000081526004016119d39061421a565b60405180910390fd5b6069600082815260200190815260200160002060006101000a81549073ffffffffffffffffffffffffffffffffffffffff02191690556001606860008573ffffffffffffffffffffffffffffffffffffffff1673ffffffffffffffffffffffffffffffffffffffff168152602001908152602001600020600082825403925050819055506001606860008473ffffffffffffffffffffffffffffffffffffffff1673ffffffffffffffffffffffffffffffffffffffff16815260200190815260200160002060008282540192505081905550816067600083815260200190815260200160002060006101000a81548173ffffffffffffffffffffffffffffffffffffffff021916908373ffffffffffffffffffffffffffffffffffffffff160217905550808273ffffffffffffffffffffffffffffffffffffffff168473ffffffffffffffffffffffffffffffffffffffff167fddf252ad1be2c89b69c2b068fc378daa952ba7f163c4a11628f55a4df523b3ef60405160405180910390a4611b6883838360016121cc565b505050565b6000808273ffffffffffffffffffffffffffffffffffffffff163b119050919050565b600060019054906101000a900460ff16611bdf576040517f08c379a0000000000000000000000000000000000000000000000000000000008152600401611bd69061433e565b60405180910390fd5b611be76121d2565b565b600060019054906101000a900460ff16611c38576040517f08c379a0000000000000000000000000000000000000000000000000000000008152600401611c2f9061433e565b60405180910390fd5b611c428282612233565b5050565b611ce0838383604051602401611c5e9392919061435e565b6040516020818303038152906040527f2ced7cef000000000000000000000000000000000000000000000000000000007bffffffffffffffffffffffffffffffffffffffffffffffffffffffff19166020820180517bffffffffffffffffffffffffffffffffffffffffffffffffffffffff83818316178352505050506122a6565b505050565b60006067600083815260200190815260200160002060009054906101000a900473ffffffffffffffffffffffffffffffffffffffff169050919050565b611d2a61171e565b73ffffffffffffffffffffffffffffffffffffffff16611d48610fed565b73ffffffffffffffffffffffffffffffffffffffff1614611d9e576040517f08c379a0000000000000000000000000000000000000000000000000000000008152600401611d95906143f6565b60405180910390fd5b565b600060c960009054906101000a900473ffffffffffffffffffffffffffffffffffffffff1690508160c960006101000a81548173ffffffffffffffffffffffffffffffffffffffff021916908373ffffffffffffffffffffffffffffffffffffffff1602179055508173ffffffffffffffffffffffffffffffffffffffff168173ffffffffffffffffffffffffffffffffffffffff167f8be0079c531659141344cd1fd0a4f28419497f9722a3daafe3b4186f6b6457e060405160405180910390a35050565b8173ffffffffffffffffffffffffffffffffffffffff168373ffffffffffffffffffffffffffffffffffffffff1603611ed4576040517f08c379a0000000000000000000000000000000000000000000000000000000008152600401611ecb90614462565b60405180910390fd5b80606a60008573ffffffffffffffffffffffffffffffffffffffff1673ffffffffffffffffffffffffffffffffffffffff16815260200190815260200160002060008473ffffffffffffffffffffffffffffffffffffffff1673ffffffffffffffffffffffffffffffffffffffff16815260200190815260200160002060006101000a81548160ff0219169083151502179055508173ffffffffffffffffffffffffffffffffffffffff168373ffffffffffffffffffffffffffffffffffffffff167f17307eab39ab6107e8899845ad3d59bd9653f200f220920489ca2b5937696c3183604051611fc59190612b99565b60405180910390a3505050565b611fdd848484611874565b611fe9848484846122c0565b612028576040517f08c379a000000000000000000000000000000000000000000000000000000000815260040161201f906144f4565b60405180910390fd5b50505050565b606060006040518060600160405280602d81526020016148af602d91399050600061205830612447565b9050818160405160200161206d929190614560565b6040516020818303038152906040529250505090565b60606000600161209284612474565b01905060008167ffffffffffffffff8111156120b1576120b0612d9b565b5b6040519080825280601f01601f1916602001820160405280156120e35781602001600182028036833780820191505090505b509050600082602001820190505b600115612146578080600190039150507f3031323334353637383961626364656600000000000000000000000000000000600a86061a8153600a858161213a5761213961458f565b5b049450600085036120f1575b819350505050919050565b61215b60fb6125c7565b600061216760fb612177565b905061217382826125dd565b5050565b600081600001549050919050565b60008073ffffffffffffffffffffffffffffffffffffffff166121a783611ce5565b73ffffffffffffffffffffffffffffffffffffffff1614159050919050565b50505050565b50505050565b600060019054906101000a900460ff16612221576040517f08c379a00000000000000000000000000000000000000000000000000000000081526004016122189061433e565b60405180910390fd5b61223161222c61171e565b611da0565b565b600060019054906101000a900460ff16612282576040517f08c379a00000000000000000000000000000000000000000000000000000000081526004016122799061433e565b60405180910390fd5b81606590816122919190613e2d565b5080606690816122a19190613e2d565b505050565b6122bd816122b56125fb61261c565b63ffffffff16565b50565b60006122e18473ffffffffffffffffffffffffffffffffffffffff16611b6d565b1561243a578373ffffffffffffffffffffffffffffffffffffffff1663150b7a0261230a61171e565b8786866040518563ffffffff1660e01b815260040161232c9493929190614613565b6020604051808303816000875af192505050801561236857506040513d601f19601f820116820180604052508101906123659190614674565b60015b6123ea573d8060008114612398576040519150601f19603f3d011682016040523d82523d6000602084013e61239d565b606091505b5060008151036123e2576040517f08c379a00000000000000000000000000000000000000000000000000000000081526004016123d9906144f4565b60405180910390fd5b805181602001fd5b63150b7a0260e01b7bffffffffffffffffffffffffffffffffffffffffffffffffffffffff1916817bffffffffffffffffffffffffffffffffffffffffffffffffffffffff19161491505061243f565b600190505b949350505050565b606061246d8273ffffffffffffffffffffffffffffffffffffffff16601460ff16612627565b9050919050565b600080600090507a184f03e93ff9f4daa797ed6e38ed64bf6a1f01000000000000000083106124d2577a184f03e93ff9f4daa797ed6e38ed64bf6a1f01000000000000000083816124c8576124c761458f565b5b0492506040810190505b6d04ee2d6d415b85acef8100000000831061250f576d04ee2d6d415b85acef810000000083816125055761250461458f565b5b0492506020810190505b662386f26fc10000831061253e57662386f26fc1000083816125345761253361458f565b5b0492506010810190505b6305f5e1008310612567576305f5e100838161255d5761255c61458f565b5b0492506008810190505b612710831061258c5761271083816125825761258161458f565b5b0492506004810190505b606483106125af57606483816125a5576125a461458f565b5b0492506002810190505b600a83106125be576001810190505b80915050919050565b6001816000016000828254019250508190555050565b6125f7828260405180602001604052806000815250612863565b5050565b60006a636f6e736f6c652e6c6f679050600080835160208501845afa505050565b612adb819050919050565b60606000600283600261263a91906146a1565b61264491906146e3565b67ffffffffffffffff81111561265d5761265c612d9b565b5b6040519080825280601f01601f19166020018201604052801561268f5781602001600182028036833780820191505090505b5090507f3000000000000000000000000000000000000000000000000000000000000000816000815181106126c7576126c66138dd565b5b60200101907effffffffffffffffffffffffffffffffffffffffffffffffffffffffffffff1916908160001a9053507f78000000000000000000000000000000000000000000000000000000000000008160018151811061272b5761272a6138dd565b5b60200101907effffffffffffffffffffffffffffffffffffffffffffffffffffffffffffff1916908160001a9053506000600184600261276b91906146a1565b61277591906146e3565b90505b6001811115612815577f3031323334353637383961626364656600000000000000000000000000000000600f8616601081106127b7576127b66138dd565b5b1a60f81b8282815181106127ce576127cd6138dd565b5b60200101907effffffffffffffffffffffffffffffffffffffffffffffffffffffffffffff1916908160001a905350600485901c94508061280e90614156565b9050612778565b5060008414612859576040517f08c379a000000000000000000000000000000000000000000000000000000000815260040161285090614763565b60405180910390fd5b8091505092915050565b61286d83836128be565b61287a60008484846122c0565b6128b9576040517f08c379a00000000000000000000000000000000000000000000000000000000081526004016128b0906144f4565b60405180910390fd5b505050565b600073ffffffffffffffffffffffffffffffffffffffff168273ffffffffffffffffffffffffffffffffffffffff160361292d576040517f08c379a0000000000000000000000000000000000000000000000000000000008152600401612924906147cf565b60405180910390fd5b61293681612185565b15612976576040517f08c379a000000000000000000000000000000000000000000000000000000000815260040161296d9061483b565b60405180910390fd5b6129846000838360016121c6565b61298d81612185565b156129cd576040517f08c379a00000000000000000000000000000000000000000000000000000000081526004016129c49061483b565b60405180910390fd5b6001606860008473ffffffffffffffffffffffffffffffffffffffff1673ffffffffffffffffffffffffffffffffffffffff16815260200190815260200160002060008282540192505081905550816067600083815260200190815260200160002060006101000a81548173ffffffffffffffffffffffffffffffffffffffff021916908373ffffffffffffffffffffffffffffffffffffffff160217905550808273ffffffffffffffffffffffffffffffffffffffff16600073ffffffffffffffffffffffffffffffffffffffff167fddf252ad1be2c89b69c2b068fc378daa952ba7f163c4a11628f55a4df523b3ef60405160405180910390a4612ad76000838360016121cc565b5050565b612ae361485b565b565b6000604051905090565b600080fd5b600080fd5b60007fffffffff0000000000000000000000000000000000000000000000000000000082169050919050565b612b2e81612af9565b8114612b3957600080fd5b50565b600081359050612b4b81612b25565b92915050565b600060208284031215612b6757612b66612aef565b5b6000612b7584828501612b3c565b91505092915050565b60008115159050919050565b612b9381612b7e565b82525050565b6000602082019050612bae6000830184612b8a565b92915050565b600081519050919050565b600082825260208201905092915050565b60005b83811015612bee578082015181840152602081019050612bd3565b60008484015250505050565b6000601f19601f8301169050919050565b6000612c1682612bb4565b612c208185612bbf565b9350612c30818560208601612bd0565b612c3981612bfa565b840191505092915050565b60006020820190508181036000830152612c5e8184612c0b565b905092915050565b6000819050919050565b612c7981612c66565b8114612c8457600080fd5b50565b600081359050612c9681612c70565b92915050565b600060208284031215612cb257612cb1612aef565b5b6000612cc084828501612c87565b91505092915050565b600073ffffffffffffffffffffffffffffffffffffffff82169050919050565b6000612cf482612cc9565b9050919050565b612d0481612ce9565b82525050565b6000602082019050612d1f6000830184612cfb565b92915050565b612d2e81612ce9565b8114612d3957600080fd5b50565b600081359050612d4b81612d25565b92915050565b60008060408385031215612d6857612d67612aef565b5b6000612d7685828601612d3c565b9250506020612d8785828601612c87565b9150509250929050565b600080fd5b600080fd5b7f4e487b7100000000000000000000000000000000000000000000000000000000600052604160045260246000fd5b612dd382612bfa565b810181811067ffffffffffffffff82111715612df257612df1612d9b565b5b80604052505050565b6000612e05612ae5565b9050612e118282612dca565b919050565b600067ffffffffffffffff821115612e3157612e30612d9b565b5b612e3a82612bfa565b9050602081019050919050565b82818337600083830152505050565b6000612e69612e6484612e16565b612dfb565b905082815260208101848484011115612e8557612e84612d96565b5b612e90848285612e47565b509392505050565b600082601f830112612ead57612eac612d91565b5b8135612ebd848260208601612e56565b91505092915050565b60008060008060808587031215612ee057612edf612aef565b5b6000612eee87828801612d3c565b9450506020612eff87828801612d3c565b9350506040612f1087828801612c87565b925050606085013567ffffffffffffffff811115612f3157612f30612af4565b5b612f3d87828801612e98565b91505092959194509250565b612f5281612af9565b82525050565b6000602082019050612f6d6000830184612f49565b92915050565b6000612f7e82612cc9565b9050919050565b612f8e81612f73565b82525050565b612f9d81612c66565b82525050565b6000606082019050612fb86000830186612f85565b612fc56020830185612f94565b612fd26040830184612b8a565b949350505050565b600080600060608486031215612ff357612ff2612aef565b5b600061300186828701612d3c565b935050602061301286828701612d3c565b925050604061302386828701612c87565b9150509250925092565b600063ffffffff82169050919050565b6130468161302d565b82525050565b600060608201905081810360008301526130668186612c0b565b9050613075602083018561303d565b613082604083018461303d565b949350505050565b600067ffffffffffffffff8211156130a5576130a4612d9b565b5b6130ae82612bfa565b9050602081019050919050565b60006130ce6130c98461308a565b612dfb565b9050828152602081018484840111156130ea576130e9612d96565b5b6130f5848285612e47565b509392505050565b600082601f83011261311257613111612d91565b5b81356131228482602086016130bb565b91505092915050565b60006020828403121561314157613140612aef565b5b600082013567ffffffffffffffff81111561315f5761315e612af4565b5b61316b848285016130fd565b91505092915050565b60006040820190506131896000830185612f94565b6131966020830184612f94565b9392505050565b600067ffffffffffffffff8211156131b8576131b7612d9b565b5b602082029050602081019050919050565b600080fd5b60006131e16131dc8461319d565b612dfb565b90508083825260208201905060208402830185811115613204576132036131c9565b5b835b8181101561324b57803567ffffffffffffffff81111561322957613228612d91565b5b80860161323689826130fd565b85526020850194505050602081019050613206565b5050509392505050565b600082601f83011261326a57613269612d91565b5b813561327a8482602086016131ce565b91505092915050565b600067ffffffffffffffff82111561329e5761329d612d9b565b5b602082029050602081019050919050565b60006132c26132bd84613283565b612dfb565b905080838252602082019050602084028301858111156132e5576132e46131c9565b5b835b8181101561330e57806132fa8882612c87565b8452602084019350506020810190506132e7565b5050509392505050565b600082601f83011261332d5761332c612d91565b5b813561333d8482602086016132af565b91505092915050565b60008060006060848603121561335f5761335e612aef565b5b600084013567ffffffffffffffff81111561337d5761337c612af4565b5b61338986828701613255565b935050602084013567ffffffffffffffff8111156133aa576133a9612af4565b5b6133b686828701613318565b925050604084013567ffffffffffffffff8111156133d7576133d6612af4565b5b6133e386828701613318565b9150509250925092565b6000806040838503121561340457613403612aef565b5b600083013567ffffffffffffffff81111561342257613421612af4565b5b61342e858286016130fd565b925050602083013567ffffffffffffffff81111561344f5761344e612af4565b5b61345b858286016130fd565b9150509250929050565b60006020828403121561347b5761347a612aef565b5b600061348984828501612d3c565b91505092915050565b60006020820190506134a76000830184612f94565b92915050565b6000806000606084860312156134c6576134c5612aef565b5b60006134d486828701612c87565b93505060206134e586828701612c87565b925050604084013567ffffffffffffffff81111561350657613505612af4565b5b613512868287016130fd565b9150509250925092565b600080fd5b600080fd5b61352f8161302d565b811461353a57600080fd5b50565b60008135905061354c81613526565b92915050565b6000606082840312156135685761356761351c565b5b6135726060612dfb565b9050600082013567ffffffffffffffff81111561359257613591613521565b5b61359e848285016130fd565b60008301525060206135b28482850161353d565b60208301525060406135c68482850161353d565b60408301525092915050565b6000602082840312156135e8576135e7612aef565b5b600082013567ffffffffffffffff81111561360657613605612af4565b5b61361284828501613552565b91505092915050565b61362481612b7e565b811461362f57600080fd5b50565b6000813590506136418161361b565b92915050565b6000806040838503121561365e5761365d612aef565b5b600061366c85828601612d3c565b925050602061367d85828601613632565b9150509250929050565b6000806040838503121561369e5761369d612aef565b5b60006136ac85828601612d3c565b92505060206136bd85828601612d3c565b9150509250929050565b7f4e487b7100000000000000000000000000000000000000000000000000000000600052602260045260246000fd5b6000600282049050600182168061370e57607f821691505b602082108103613721576137206136c7565b5b50919050565b7f4552433732313a20617070726f76616c20746f2063757272656e74206f776e6560008201527f7200000000000000000000000000000000000000000000000000000000000000602082015250565b6000613783602183612bbf565b915061378e82613727565b604082019050919050565b600060208201905081810360008301526137b281613776565b9050919050565b7f4552433732313a20617070726f76652063616c6c6572206973206e6f7420746f60008201527f6b656e206f776e6572206f7220617070726f76656420666f7220616c6c000000602082015250565b6000613815603d83612bbf565b9150613820826137b9565b604082019050919050565b6000602082019050818103600083015261384481613808565b9050919050565b7f4552433732313a2063616c6c6572206973206e6f7420746f6b656e206f776e6560008201527f72206f7220617070726f76656400000000000000000000000000000000000000602082015250565b60006138a7602d83612bbf565b91506138b28261384b565b604082019050919050565b600060208201905081810360008301526138d68161389a565b9050919050565b7f4e487b7100000000000000000000000000000000000000000000000000000000600052603260045260246000fd5b600081905092915050565b600061392282612bb4565b61392c818561390c565b935061393c818560208601612bd0565b80840191505092915050565b60006139548284613917565b915081905092915050565b7f4e487b7100000000000000000000000000000000000000000000000000000000600052601160045260246000fd5b600061399982612c66565b91507fffffffffffffffffffffffffffffffffffffffffffffffffffffffffffffffff82036139cb576139ca61395f565b5b600182019050919050565b7f496e697469616c697a61626c653a20636f6e747261637420697320616c72656160008201527f647920696e697469616c697a6564000000000000000000000000000000000000602082015250565b6000613a32602e83612bbf565b9150613a3d826139d6565b604082019050919050565b60006020820190508181036000830152613a6181613a25565b9050919050565b6000819050919050565b600060ff82169050919050565b6000819050919050565b6000613aa4613a9f613a9a84613a68565b613a7f565b613a72565b9050919050565b613ab481613a89565b82525050565b6000602082019050613acf6000830184613aab565b92915050565b7f4552433732313a20696e76616c696420746f6b656e2049440000000000000000600082015250565b6000613b0b601883612bbf565b9150613b1682613ad5565b602082019050919050565b60006020820190508181036000830152613b3a81613afe565b9050919050565b7f4552433732313a2061646472657373207a65726f206973206e6f74206120766160008201527f6c6964206f776e65720000000000000000000000000000000000000000000000602082015250565b6000613b9d602983612bbf565b9150613ba882613b41565b604082019050919050565b60006020820190508181036000830152613bcc81613b90565b9050919050565b7f43696a656e612070726570726f64616a65206e6520736d696a6520626974692060008201527f76656361206f64206f726967696e616c6e652063696a656e6520756c617a6e6960208201527f6365000000000000000000000000000000000000000000000000000000000000604082015250565b6000613c55604283612bbf565b9150613c6082613bd3565b606082019050919050565b60006020820190508181036000830152613c8481613c48565b9050919050565b60008190508160005260206000209050919050565b60006020601f8301049050919050565b600082821b905092915050565b600060088302613ced7fffffffffffffffffffffffffffffffffffffffffffffffffffffffffffffffff82613cb0565b613cf78683613cb0565b95508019841693508086168417925050509392505050565b6000613d2a613d25613d2084612c66565b613a7f565b612c66565b9050919050565b6000819050919050565b613d4483613d0f565b613d58613d5082613d31565b848454613cbd565b825550505050565b600090565b613d6d613d60565b613d78818484613d3b565b505050565b5b81811015613d9c57613d91600082613d65565b600181019050613d7e565b5050565b601f821115613de157613db281613c8b565b613dbb84613ca0565b81016020851015613dca578190505b613dde613dd685613ca0565b830182613d7d565b50505b505050565b600082821c905092915050565b6000613e0460001984600802613de6565b1980831691505092915050565b6000613e1d8383613df3565b9150826002028217905092915050565b613e3682612bb4565b67ffffffffffffffff811115613e4f57613e4e612d9b565b5b613e5982546136f6565b613e64828285613da0565b600060209050601f831160018114613e975760008415613e85578287015190505b613e8f8582613e11565b865550613ef7565b601f198416613ea586613c8b565b60005b82811015613ecd57848901518255600182019150602085019450602081019050613ea8565b86831015613eea5784890151613ee6601f891682613df3565b8355505b6001600288020188555050505b505050505050565b7f4e65646f766f6c6a616e20697a6e6f73207a61206b75706e6a7520756c617a6e60008201527f6963650000000000000000000000000000000000000000000000000000000000602082015250565b6000613f5b602383612bbf565b9150613f6682613eff565b604082019050919050565b60006020820190508181036000830152613f8a81613f4e565b9050919050565b7f556c617a6e696361206e696a6520752070726f64616a69000000000000000000600082015250565b6000613fc7601783612bbf565b9150613fd282613f91565b602082019050919050565b60006020820190508181036000830152613ff681613fba565b9050919050565b60006060820190506140126000830186612cfb565b61401f6020830185612cfb565b61402c6040830184612f94565b949350505050565b60006140408285613917565b915061404c8284613917565b91508190509392505050565b7f4f776e61626c653a206e6577206f776e657220697320746865207a65726f206160008201527f6464726573730000000000000000000000000000000000000000000000000000602082015250565b60006140b4602683612bbf565b91506140bf82614058565b604082019050919050565b600060208201905081810360008301526140e3816140a7565b9050919050565b7f556c617a6e6963652073752072617370726f64616e6500000000000000000000600082015250565b6000614120601683612bbf565b915061412b826140ea565b602082019050919050565b6000602082019050818103600083015261414f81614113565b9050919050565b600061416182612c66565b9150600082036141745761417361395f565b5b600182039050919050565b60006040820190506141946000830185612cfb565b6141a16020830184612f94565b9392505050565b7f4552433732313a207472616e736665722066726f6d20696e636f72726563742060008201527f6f776e6572000000000000000000000000000000000000000000000000000000602082015250565b6000614204602583612bbf565b915061420f826141a8565b604082019050919050565b60006020820190508181036000830152614233816141f7565b9050919050565b7f4552433732313a207472616e7366657220746f20746865207a65726f2061646460008201527f7265737300000000000000000000000000000000000000000000000000000000602082015250565b6000614296602483612bbf565b91506142a18261423a565b604082019050919050565b600060208201905081810360008301526142c581614289565b9050919050565b7f496e697469616c697a61626c653a20636f6e7472616374206973206e6f74206960008201527f6e697469616c697a696e67000000000000000000000000000000000000000000602082015250565b6000614328602b83612bbf565b9150614333826142cc565b604082019050919050565b600060208201905081810360008301526143578161431b565b9050919050565b600060608201905081810360008301526143788186612c0b565b9050818103602083015261438c8185612c0b565b905081810360408301526143a08184612c0b565b9050949350505050565b7f4f776e61626c653a2063616c6c6572206973206e6f7420746865206f776e6572600082015250565b60006143e0602083612bbf565b91506143eb826143aa565b602082019050919050565b6000602082019050818103600083015261440f816143d3565b9050919050565b7f4552433732313a20617070726f766520746f2063616c6c657200000000000000600082015250565b600061444c601983612bbf565b915061445782614416565b602082019050919050565b6000602082019050818103600083015261447b8161443f565b9050919050565b7f4552433732313a207472616e7366657220746f206e6f6e20455243373231526560008201527f63656976657220696d706c656d656e7465720000000000000000000000000000602082015250565b60006144de603283612bbf565b91506144e982614482565b604082019050919050565b6000602082019050818103600083015261450d816144d1565b9050919050565b7f2f00000000000000000000000000000000000000000000000000000000000000600082015250565b600061454a60018361390c565b915061455582614514565b600182019050919050565b600061456c8285613917565b91506145788284613917565b91506145838261453d565b91508190509392505050565b7f4e487b7100000000000000000000000000000000000000000000000000000000600052601260045260246000fd5b600081519050919050565b600082825260208201905092915050565b60006145e5826145be565b6145ef81856145c9565b93506145ff818560208601612bd0565b61460881612bfa565b840191505092915050565b60006080820190506146286000830187612cfb565b6146356020830186612cfb565b6146426040830185612f94565b818103606083015261465481846145da565b905095945050505050565b60008151905061466e81612b25565b92915050565b60006020828403121561468a57614689612aef565b5b60006146988482850161465f565b91505092915050565b60006146ac82612c66565b91506146b783612c66565b92508282026146c581612c66565b915082820484148315176146dc576146db61395f565b5b5092915050565b60006146ee82612c66565b91506146f983612c66565b92508282019050808211156147115761471061395f565b5b92915050565b7f537472696e67733a20686578206c656e67746820696e73756666696369656e74600082015250565b600061474d602083612bbf565b915061475882614717565b602082019050919050565b6000602082019050818103600083015261477c81614740565b9050919050565b7f4552433732313a206d696e7420746f20746865207a65726f2061646472657373600082015250565b60006147b9602083612bbf565b91506147c482614783565b602082019050919050565b600060208201905081810360008301526147e8816147ac565b9050919050565b7f4552433732313a20746f6b656e20616c7265616479206d696e74656400000000600082015250565b6000614825601c83612bbf565b9150614830826147ef565b602082019050919050565b6000602082019050818103600083015261485481614818565b9050919050565b7f4e487b7100000000000000000000000000000000000000000000000000000000600052605160045260246000fdfe2573206e616d652073657276696365206465706c6f7965642e2053796d626f6c3a20257368747470733a2f2f73686f77737461727465722d6170692e6f6e72656e6465722e636f6d2f7469636b6574732fa26469706673582212208849cd5e76437630763353e60f63c5add530e6114cd08a0ad6a2f944b7ff483b64736f6c63430008130033",
  "linkReferences": {},
  "deployedLinkReferences": {}
}