{
  "_format": "hh-sol-artifact-1",
  "contractName": "EventImplementation",
  "sourceName": "contracts/EventImplementation.sol",
  "abi": [
    {
      "inputs": [],
      "stateMutability": "nonpayable",
      "type": "constructor"
    },
    {
      "anonymous": false,
      "inputs": [
        {
          "indexed": true,
          "internalType": "address",
          "name": "owner",
          "type": "address"
        },
        {
          "indexed": true,
          "internalType": "address",
          "name": "approved",
          "type": "address"
        },
        {
          "indexed": true,
          "internalType": "uint256",
          "name": "tokenId",
          "type": "uint256"
        }
      ],
      "name": "Approval",
      "type": "event"
    },
    {
      "anonymous": false,
      "inputs": [
        {
          "indexed": true,
          "internalType": "address",
          "name": "owner",
          "type": "address"
        },
        {
          "indexed": true,
          "internalType": "address",
          "name": "operator",
          "type": "address"
        },
        {
          "indexed": false,
          "internalType": "bool",
          "name": "approved",
          "type": "bool"
        }
      ],
      "name": "ApprovalForAll",
      "type": "event"
    },
    {
      "anonymous": false,
      "inputs": [
        {
          "indexed": false,
          "internalType": "uint8",
          "name": "version",
          "type": "uint8"
        }
      ],
      "name": "Initialized",
      "type": "event"
    },
    {
      "anonymous": false,
      "inputs": [
        {
          "indexed": false,
          "internalType": "uint256",
          "name": "tokenId",
          "type": "uint256"
        }
      ],
      "name": "ListedTicketSuccess",
      "type": "event"
    },
    {
      "anonymous": false,
      "inputs": [
        {
          "indexed": true,
          "internalType": "address",
          "name": "previousOwner",
          "type": "address"
        },
        {
          "indexed": true,
          "internalType": "address",
          "name": "newOwner",
          "type": "address"
        }
      ],
      "name": "OwnershipTransferred",
      "type": "event"
    },
    {
      "anonymous": false,
      "inputs": [
        {
          "indexed": false,
          "internalType": "address",
          "name": "",
          "type": "address"
        },
        {
          "indexed": false,
          "internalType": "uint256",
          "name": "",
          "type": "uint256"
        }
      ],
      "name": "TicketSale",
      "type": "event"
    },
    {
      "anonymous": false,
      "inputs": [
        {
          "indexed": true,
          "internalType": "address",
          "name": "from",
          "type": "address"
        },
        {
          "indexed": true,
          "internalType": "address",
          "name": "to",
          "type": "address"
        },
        {
          "indexed": true,
          "internalType": "uint256",
          "name": "tokenId",
          "type": "uint256"
        }
      ],
      "name": "Transfer",
      "type": "event"
    },
    {
      "stateMutability": "payable",
      "type": "fallback"
    },
    {
      "inputs": [
        {
          "internalType": "address",
          "name": "to",
          "type": "address"
        },
        {
          "internalType": "uint256",
          "name": "tokenId",
          "type": "uint256"
        }
      ],
      "name": "approve",
      "outputs": [],
      "stateMutability": "nonpayable",
      "type": "function"
    },
    {
      "inputs": [
        {
          "internalType": "address",
          "name": "owner",
          "type": "address"
        }
      ],
      "name": "balanceOf",
      "outputs": [
        {
          "internalType": "uint256",
          "name": "",
          "type": "uint256"
        }
      ],
      "stateMutability": "view",
      "type": "function"
    },
    {
      "inputs": [
        {
          "internalType": "string",
          "name": "ticketType",
          "type": "string"
        }
      ],
      "name": "buyTicket",
      "outputs": [],
      "stateMutability": "payable",
      "type": "function"
    },
    {
      "inputs": [],
      "name": "eventData",
      "outputs": [
        {
          "internalType": "string",
          "name": "name",
          "type": "string"
        },
        {
          "internalType": "uint32",
          "name": "start",
          "type": "uint32"
        },
        {
          "internalType": "uint32",
          "name": "end",
          "type": "uint32"
        }
      ],
      "stateMutability": "view",
      "type": "function"
    },
    {
      "inputs": [
        {
          "internalType": "uint256",
          "name": "tokenId",
          "type": "uint256"
        }
      ],
      "name": "getApproved",
      "outputs": [
        {
          "internalType": "address",
          "name": "",
          "type": "address"
        }
      ],
      "stateMutability": "view",
      "type": "function"
    },
    {
      "inputs": [
        {
          "internalType": "uint256",
          "name": "",
          "type": "uint256"
        }
      ],
      "name": "idToListedTicket",
      "outputs": [
        {
          "internalType": "uint256",
          "name": "tokenId",
          "type": "uint256"
        },
        {
          "internalType": "address payable",
          "name": "seller",
          "type": "address"
        },
        {
          "internalType": "uint256",
          "name": "price",
          "type": "uint256"
        }
      ],
      "stateMutability": "view",
      "type": "function"
    },
    {
      "inputs": [
        {
          "internalType": "string",
          "name": "_eventName",
          "type": "string"
        },
        {
          "internalType": "string",
          "name": "_eventSymbol",
          "type": "string"
        }
      ],
      "name": "initialize",
      "outputs": [],
      "stateMutability": "payable",
      "type": "function"
    },
    {
      "inputs": [
        {
          "internalType": "address",
          "name": "owner",
          "type": "address"
        },
        {
          "internalType": "address",
          "name": "operator",
          "type": "address"
        }
      ],
      "name": "isApprovedForAll",
      "outputs": [
        {
          "internalType": "bool",
          "name": "",
          "type": "bool"
        }
      ],
      "stateMutability": "view",
      "type": "function"
    },
    {
      "inputs": [],
      "name": "name",
      "outputs": [
        {
          "internalType": "string",
          "name": "",
          "type": "string"
        }
      ],
      "stateMutability": "view",
      "type": "function"
    },
    {
      "inputs": [
        {
          "internalType": "address",
          "name": "",
          "type": "address"
        },
        {
          "internalType": "address",
          "name": "",
          "type": "address"
        },
        {
          "internalType": "uint256",
          "name": "",
          "type": "uint256"
        },
        {
          "internalType": "bytes",
          "name": "",
          "type": "bytes"
        }
      ],
      "name": "onERC721Received",
      "outputs": [
        {
          "internalType": "bytes4",
          "name": "",
          "type": "bytes4"
        }
      ],
      "stateMutability": "nonpayable",
      "type": "function"
    },
    {
      "inputs": [],
      "name": "owner",
      "outputs": [
        {
          "internalType": "address",
          "name": "",
          "type": "address"
        }
      ],
      "stateMutability": "view",
      "type": "function"
    },
    {
      "inputs": [
        {
          "internalType": "uint256",
          "name": "tokenId",
          "type": "uint256"
        }
      ],
      "name": "ownerOf",
      "outputs": [
        {
          "internalType": "address",
          "name": "",
          "type": "address"
        }
      ],
      "stateMutability": "view",
      "type": "function"
    },
    {
      "inputs": [],
      "name": "renounceOwnership",
      "outputs": [],
      "stateMutability": "nonpayable",
      "type": "function"
    },
    {
      "inputs": [
        {
          "internalType": "address",
          "name": "from",
          "type": "address"
        },
        {
          "internalType": "address",
          "name": "to",
          "type": "address"
        },
        {
          "internalType": "uint256",
          "name": "tokenId",
          "type": "uint256"
        }
      ],
      "name": "safeTransferFrom",
      "outputs": [],
      "stateMutability": "nonpayable",
      "type": "function"
    },
    {
      "inputs": [
        {
          "internalType": "address",
          "name": "from",
          "type": "address"
        },
        {
          "internalType": "address",
          "name": "to",
          "type": "address"
        },
        {
          "internalType": "uint256",
          "name": "tokenId",
          "type": "uint256"
        },
        {
          "internalType": "bytes",
          "name": "data",
          "type": "bytes"
        }
      ],
      "name": "safeTransferFrom",
      "outputs": [],
      "stateMutability": "nonpayable",
      "type": "function"
    },
    {
      "inputs": [
        {
          "internalType": "uint256",
          "name": "tokenId",
          "type": "uint256"
        },
        {
          "internalType": "uint256",
          "name": "resellPrice",
          "type": "uint256"
        },
        {
          "internalType": "string",
          "name": "ticketType",
          "type": "string"
        }
      ],
      "name": "sellTicket",
      "outputs": [],
      "stateMutability": "nonpayable",
      "type": "function"
    },
    {
      "inputs": [
        {
          "internalType": "address",
          "name": "operator",
          "type": "address"
        },
        {
          "internalType": "bool",
          "name": "approved",
          "type": "bool"
        }
      ],
      "name": "setApprovalForAll",
      "outputs": [],
      "stateMutability": "nonpayable",
      "type": "function"
    },
    {
      "inputs": [
        {
          "components": [
            {
              "internalType": "string",
              "name": "name",
              "type": "string"
            },
            {
              "internalType": "uint32",
              "name": "start",
              "type": "uint32"
            },
            {
              "internalType": "uint32",
              "name": "end",
              "type": "uint32"
            }
          ],
          "internalType": "struct IEventImplementation.EventData",
          "name": "_eventData",
          "type": "tuple"
        }
      ],
      "name": "setEventData",
      "outputs": [],
      "stateMutability": "nonpayable",
      "type": "function"
    },
    {
      "inputs": [
        {
          "internalType": "string[]",
          "name": "ticketTypes",
          "type": "string[]"
        },
        {
          "internalType": "uint256[]",
          "name": "supplies",
          "type": "uint256[]"
        },
        {
          "internalType": "uint256[]",
          "name": "prices",
          "type": "uint256[]"
        }
      ],
      "name": "setTicketData",
      "outputs": [],
      "stateMutability": "nonpayable",
      "type": "function"
    },
    {
      "inputs": [
        {
          "internalType": "bytes4",
          "name": "interfaceId",
          "type": "bytes4"
        }
      ],
      "name": "supportsInterface",
      "outputs": [
        {
          "internalType": "bool",
          "name": "",
          "type": "bool"
        }
      ],
      "stateMutability": "view",
      "type": "function"
    },
    {
      "inputs": [],
      "name": "symbol",
      "outputs": [
        {
          "internalType": "string",
          "name": "",
          "type": "string"
        }
      ],
      "stateMutability": "view",
      "type": "function"
    },
    {
      "inputs": [
        {
          "internalType": "string",
          "name": "",
          "type": "string"
        }
      ],
      "name": "tickets",
      "outputs": [
        {
          "internalType": "uint256",
          "name": "supply",
          "type": "uint256"
        },
        {
          "internalType": "uint256",
          "name": "price",
          "type": "uint256"
        }
      ],
      "stateMutability": "view",
      "type": "function"
    },
    {
      "inputs": [
        {
          "internalType": "uint256",
          "name": "tokenId",
          "type": "uint256"
        }
      ],
      "name": "tokenURI",
      "outputs": [
        {
          "internalType": "string",
          "name": "",
          "type": "string"
        }
      ],
      "stateMutability": "view",
      "type": "function"
    },
    {
      "inputs": [
        {
          "internalType": "address",
          "name": "from",
          "type": "address"
        },
        {
          "internalType": "address",
          "name": "to",
          "type": "address"
        },
        {
          "internalType": "uint256",
          "name": "tokenId",
          "type": "uint256"
        }
      ],
      "name": "transferFrom",
      "outputs": [],
      "stateMutability": "nonpayable",
      "type": "function"
    },
    {
      "inputs": [
        {
          "internalType": "address",
          "name": "newOwner",
          "type": "address"
        }
      ],
      "name": "transferOwnership",
      "outputs": [],
      "stateMutability": "nonpayable",
      "type": "function"
    },
    {
      "stateMutability": "payable",
      "type": "receive"
    }
  ],
  "bytecode": "0x60806040523480156200001157600080fd5b50620000226200002860201b60201c565b620001d2565b600060019054906101000a900460ff16156200007b576040517f08c379a0000000000000000000000000000000000000000000000000000000008152600401620000729062000175565b60405180910390fd5b60ff801660008054906101000a900460ff1660ff1614620000ec5760ff6000806101000a81548160ff021916908360ff1602179055507f7f26b83ff96e1f2b6a682f133852f6798a09c465da95921460cefb384740249860ff604051620000e39190620001b5565b60405180910390a15b565b600082825260208201905092915050565b7f496e697469616c697a61626c653a20636f6e747261637420697320696e69746960008201527f616c697a696e6700000000000000000000000000000000000000000000000000602082015250565b60006200015d602783620000ee565b91506200016a82620000ff565b604082019050919050565b6000602082019050818103600083015262000190816200014e565b9050919050565b600060ff82169050919050565b620001af8162000197565b82525050565b6000602082019050620001cc6000830184620001a4565b92915050565b6149a380620001e26000396000f3fe60806040526004361061016a5760003560e01c80636352211e116100d157806395d89b411161008a578063c87b56dd11610064578063c87b56dd1461054a578063e985e9c514610587578063f2fde38b146105c4578063fa30b251146105ed57610171565b806395d89b41146104cd578063a22cb465146104f8578063b88d4fde1461052157610171565b80636352211e146103bf57806370a08231146103fc578063715018a614610439578063732957d8146104505780638da5cb5b1461047957806390ac6813146104a457610171565b806323b872dd1161012357806323b872dd146102bd578063254641e4146102e657806329ae0b7f1461031357806342842e0e146103515780634934b73e1461037a5780634cd88b76146103a357610171565b806301ffc9a71461017357806306fdde03146101b0578063081812fc146101db578063095ea7b314610218578063150b7a021461024157806315dc898c1461027e57610171565b3661017157005b005b34801561017f57600080fd5b5061019a60048036038101906101959190612957565b610609565b6040516101a7919061299f565b60405180910390f35b3480156101bc57600080fd5b506101c56106eb565b6040516101d29190612a4a565b60405180910390f35b3480156101e757600080fd5b5061020260048036038101906101fd9190612aa2565b61077d565b60405161020f9190612b10565b60405180910390f35b34801561022457600080fd5b5061023f600480360381019061023a9190612b57565b6107c3565b005b34801561024d57600080fd5b5061026860048036038101906102639190612ccc565b6108da565b6040516102759190612d5e565b60405180910390f35b34801561028a57600080fd5b506102a560048036038101906102a09190612aa2565b6108ee565b6040516102b493929190612da9565b60405180910390f35b3480156102c957600080fd5b506102e460048036038101906102df9190612de0565b610938565b005b3480156102f257600080fd5b506102fb610998565b60405161030a93929190612e52565b60405180910390f35b34801561031f57600080fd5b5061033a60048036038101906103359190612f31565b610a58565b604051610348929190612f7a565b60405180910390f35b34801561035d57600080fd5b5061037860048036038101906103739190612de0565b610a92565b005b34801561038657600080fd5b506103a1600480360381019061039c919061314c565b610ab2565b005b6103bd60048036038101906103b891906131f3565b610b6f565b005b3480156103cb57600080fd5b506103e660048036038101906103e19190612aa2565b610cdc565b6040516103f39190612b10565b60405180910390f35b34801561040857600080fd5b50610423600480360381019061041e919061326b565b610d62565b6040516104309190613298565b60405180910390f35b34801561044557600080fd5b5061044e610e19565b005b34801561045c57600080fd5b506104776004803603810190610472919061330e565b610e2d565b005b34801561048557600080fd5b5061048e610f7d565b60405161049b9190612b10565b60405180910390f35b3480156104b057600080fd5b506104cb60048036038101906104c691906133a6565b610fa7565b005b3480156104d957600080fd5b506104e2610ffa565b6040516104ef9190612a4a565b60405180910390f35b34801561050457600080fd5b5061051f600480360381019061051a919061341b565b61108c565b005b34801561052d57600080fd5b5061054860048036038101906105439190612ccc565b6110a2565b005b34801561055657600080fd5b50610571600480360381019061056c9190612aa2565b611104565b60405161057e9190612a4a565b60405180910390f35b34801561059357600080fd5b506105ae60048036038101906105a9919061345b565b61116c565b6040516105bb919061299f565b60405180910390f35b3480156105d057600080fd5b506105eb60048036038101906105e6919061326b565b611200565b005b6106076004803603810190610602919061349b565b611283565b005b60007f80ac58cd000000000000000000000000000000000000000000000000000000007bffffffffffffffffffffffffffffffffffffffffffffffffffffffff1916827bffffffffffffffffffffffffffffffffffffffffffffffffffffffff191614806106d457507f5b5e139f000000000000000000000000000000000000000000000000000000007bffffffffffffffffffffffffffffffffffffffffffffffffffffffff1916827bffffffffffffffffffffffffffffffffffffffffffffffffffffffff1916145b806106e457506106e3826113d6565b5b9050919050565b6060606580546106fa90613517565b80601f016020809104026020016040519081016040528092919081815260200182805461072690613517565b80156107735780601f1061074857610100808354040283529160200191610773565b820191906000526020600020905b81548152906001019060200180831161075657829003601f168201915b5050505050905090565b600061078882611440565b6069600083815260200190815260200160002060009054906101000a900473ffffffffffffffffffffffffffffffffffffffff169050919050565b60006107ce82610cdc565b90508073ffffffffffffffffffffffffffffffffffffffff168373ffffffffffffffffffffffffffffffffffffffff160361083e576040517f08c379a0000000000000000000000000000000000000000000000000000000008152600401610835906135ba565b60405180910390fd5b8073ffffffffffffffffffffffffffffffffffffffff1661085d61148b565b73ffffffffffffffffffffffffffffffffffffffff16148061088c575061088b8161088661148b565b61116c565b5b6108cb576040517f08c379a00000000000000000000000000000000000000000000000000000000081526004016108c29061364c565b60405180910390fd5b6108d58383611493565b505050565b600063150b7a0260e01b9050949350505050565b60ff6020528060005260406000206000915090508060000154908060010160009054906101000a900473ffffffffffffffffffffffffffffffffffffffff16908060020154905083565b61094961094361148b565b8261154c565b610988576040517f08c379a000000000000000000000000000000000000000000000000000000000815260040161097f906136de565b60405180910390fd5b6109938383836115e1565b505050565b60fc8060000180546109a990613517565b80601f01602080910402602001604051908101604052809291908181526020018280546109d590613517565b8015610a225780601f106109f757610100808354040283529160200191610a22565b820191906000526020600020905b815481529060010190602001808311610a0557829003601f168201915b5050505050908060010160009054906101000a900463ffffffff16908060010160049054906101000a900463ffffffff16905083565b60fe818051602081018201805184825260208301602085012081835280955050505050506000915090508060000154908060010154905082565b610aad838383604051806020016040528060008152506110a2565b505050565b60005b8351811015610b69576040518060400160405280848381518110610adc57610adb6136fe565b5b60200260200101518152602001838381518110610afc57610afb6136fe565b5b602002602001015181525060fe858381518110610b1c57610b1b6136fe565b5b6020026020010151604051610b319190613769565b908152602001604051809103902060008201518160000155602082015181600101559050508080610b61906137af565b915050610ab5565b50505050565b60008060019054906101000a900460ff16159050808015610ba05750600160008054906101000a900460ff1660ff16105b80610bcd5750610baf306118da565b158015610bcc5750600160008054906101000a900460ff1660ff16145b5b610c0c576040517f08c379a0000000000000000000000000000000000000000000000000000000008152600401610c0390613869565b60405180910390fd5b60016000806101000a81548160ff021916908360ff1602179055508015610c49576001600060016101000a81548160ff0219169083151502179055505b610c516118fd565b610c5b8383611956565b610c7e6040518060600160405280602481526020016149226024913984846119b3565b8015610cd75760008060016101000a81548160ff0219169083151502179055507f7f26b83ff96e1f2b6a682f133852f6798a09c465da95921460cefb38474024986001604051610cce91906138db565b60405180910390a15b505050565b600080610ce883611a52565b9050600073ffffffffffffffffffffffffffffffffffffffff168173ffffffffffffffffffffffffffffffffffffffff1603610d59576040517f08c379a0000000000000000000000000000000000000000000000000000000008152600401610d5090613942565b60405180910390fd5b80915050919050565b60008073ffffffffffffffffffffffffffffffffffffffff168273ffffffffffffffffffffffffffffffffffffffff1603610dd2576040517f08c379a0000000000000000000000000000000000000000000000000000000008152600401610dc9906139d4565b60405180910390fd5b606860008373ffffffffffffffffffffffffffffffffffffffff1673ffffffffffffffffffffffffffffffffffffffff168152602001908152602001600020549050919050565b610e21611a8f565b610e2b6000611b0d565b565b60fe8282604051610e3f929190613a19565b908152602001604051809103902060010154831115610e93576040517f08c379a0000000000000000000000000000000000000000000000000000000008152600401610e8a90613aca565b60405180910390fd5b60405180606001604052808581526020013373ffffffffffffffffffffffffffffffffffffffff1681526020018481525060ff60008681526020019081526020016000206000820151816000015560208201518160010160006101000a81548173ffffffffffffffffffffffffffffffffffffffff021916908373ffffffffffffffffffffffffffffffffffffffff16021790555060408201518160020155905050610f40333086610a92565b7fc62b2513a90aac6cc5404212198ec88f49f58c37e0e2d6358703c70fea8e23de84604051610f6f9190613298565b60405180910390a150505050565b600060c960009054906101000a900473ffffffffffffffffffffffffffffffffffffffff16905090565b8060fc8181610fb69190613f59565b905050610ff76040518060400160405280601381526020017f7573616f2075207365744576656e744461746100000000000000000000000000815250611bd3565b50565b60606066805461100990613517565b80601f016020809104026020016040519081016040528092919081815260200182805461103590613517565b80156110825780601f1061105757610100808354040283529160200191611082565b820191906000526020600020905b81548152906001019060200180831161106557829003601f168201915b5050505050905090565b61109e61109761148b565b8383611c6c565b5050565b6110b36110ad61148b565b8361154c565b6110f2576040517f08c379a00000000000000000000000000000000000000000000000000000000081526004016110e9906136de565b60405180910390fd5b6110fe84848484611dd8565b50505050565b606061110f82611440565b6000611119611e34565b905060008151116111395760405180602001604052806000815250611164565b8061114384611e89565b604051602001611154929190613f67565b6040516020818303038152906040525b915050919050565b6000606a60008473ffffffffffffffffffffffffffffffffffffffff1673ffffffffffffffffffffffffffffffffffffffff16815260200190815260200160002060008373ffffffffffffffffffffffffffffffffffffffff1673ffffffffffffffffffffffffffffffffffffffff16815260200190815260200160002060009054906101000a900460ff16905092915050565b611208611a8f565b600073ffffffffffffffffffffffffffffffffffffffff168173ffffffffffffffffffffffffffffffffffffffff1603611277576040517f08c379a000000000000000000000000000000000000000000000000000000000815260040161126e90613ffd565b60405180910390fd5b61128081611b0d565b50565b600060fe8383604051611297929190613a19565b908152602001604051809103902060000154116112e9576040517f08c379a00000000000000000000000000000000000000000000000000000000081526004016112e090614069565b60405180910390fd5b60fe82826040516112fb929190613a19565b908152602001604051809103902060010154341461134e576040517f08c379a0000000000000000000000000000000000000000000000000000000008152600401611345906140fb565b60405180910390fd5b61135733611f57565b60fe8282604051611369929190613a19565b9081526020016040518091039020600001600081548092919061138b9061411b565b91905055507fb307cbfc9a41a392c2febb6872adfc8e21e700c445b7a5c71ced7d41344ccd02306113bc60fb611f7d565b6040516113ca929190614144565b60405180910390a15050565b60007f01ffc9a7000000000000000000000000000000000000000000000000000000007bffffffffffffffffffffffffffffffffffffffffffffffffffffffff1916827bffffffffffffffffffffffffffffffffffffffffffffffffffffffff1916149050919050565b61144981611f8b565b611488576040517f08c379a000000000000000000000000000000000000000000000000000000000815260040161147f90613942565b60405180910390fd5b50565b600033905090565b816069600083815260200190815260200160002060006101000a81548173ffffffffffffffffffffffffffffffffffffffff021916908373ffffffffffffffffffffffffffffffffffffffff160217905550808273ffffffffffffffffffffffffffffffffffffffff1661150683610cdc565b73ffffffffffffffffffffffffffffffffffffffff167f8c5be1e5ebec7d5bd14f71427d1e84f3dd0314c0f7b2291e5b200ac8c7c3b92560405160405180910390a45050565b60008061155883610cdc565b90508073ffffffffffffffffffffffffffffffffffffffff168473ffffffffffffffffffffffffffffffffffffffff16148061159a5750611599818561116c565b5b806115d857508373ffffffffffffffffffffffffffffffffffffffff166115c08461077d565b73ffffffffffffffffffffffffffffffffffffffff16145b91505092915050565b8273ffffffffffffffffffffffffffffffffffffffff1661160182610cdc565b73ffffffffffffffffffffffffffffffffffffffff1614611657576040517f08c379a000000000000000000000000000000000000000000000000000000000815260040161164e906141df565b60405180910390fd5b600073ffffffffffffffffffffffffffffffffffffffff168273ffffffffffffffffffffffffffffffffffffffff16036116c6576040517f08c379a00000000000000000000000000000000000000000000000000000000081526004016116bd90614271565b60405180910390fd5b6116d38383836001611fcc565b8273ffffffffffffffffffffffffffffffffffffffff166116f382610cdc565b73ffffffffffffffffffffffffffffffffffffffff1614611749576040517f08c379a0000000000000000000000000000000000000000000000000000000008152600401611740906141df565b60405180910390fd5b6069600082815260200190815260200160002060006101000a81549073ffffffffffffffffffffffffffffffffffffffff02191690556001606860008573ffffffffffffffffffffffffffffffffffffffff1673ffffffffffffffffffffffffffffffffffffffff168152602001908152602001600020600082825403925050819055506001606860008473ffffffffffffffffffffffffffffffffffffffff1673ffffffffffffffffffffffffffffffffffffffff16815260200190815260200160002060008282540192505081905550816067600083815260200190815260200160002060006101000a81548173ffffffffffffffffffffffffffffffffffffffff021916908373ffffffffffffffffffffffffffffffffffffffff160217905550808273ffffffffffffffffffffffffffffffffffffffff168473ffffffffffffffffffffffffffffffffffffffff167fddf252ad1be2c89b69c2b068fc378daa952ba7f163c4a11628f55a4df523b3ef60405160405180910390a46118d58383836001611fd2565b505050565b6000808273ffffffffffffffffffffffffffffffffffffffff163b119050919050565b600060019054906101000a900460ff1661194c576040517f08c379a000000000000000000000000000000000000000000000000000000000815260040161194390614303565b60405180910390fd5b611954611fd8565b565b600060019054906101000a900460ff166119a5576040517f08c379a000000000000000000000000000000000000000000000000000000000815260040161199c90614303565b60405180910390fd5b6119af8282612039565b5050565b611a4d8383836040516024016119cb93929190614323565b6040516020818303038152906040527f2ced7cef000000000000000000000000000000000000000000000000000000007bffffffffffffffffffffffffffffffffffffffffffffffffffffffff19166020820180517bffffffffffffffffffffffffffffffffffffffffffffffffffffffff83818316178352505050506120ac565b505050565b60006067600083815260200190815260200160002060009054906101000a900473ffffffffffffffffffffffffffffffffffffffff169050919050565b611a9761148b565b73ffffffffffffffffffffffffffffffffffffffff16611ab5610f7d565b73ffffffffffffffffffffffffffffffffffffffff1614611b0b576040517f08c379a0000000000000000000000000000000000000000000000000000000008152600401611b02906143bb565b60405180910390fd5b565b600060c960009054906101000a900473ffffffffffffffffffffffffffffffffffffffff1690508160c960006101000a81548173ffffffffffffffffffffffffffffffffffffffff021916908373ffffffffffffffffffffffffffffffffffffffff1602179055508173ffffffffffffffffffffffffffffffffffffffff168173ffffffffffffffffffffffffffffffffffffffff167f8be0079c531659141344cd1fd0a4f28419497f9722a3daafe3b4186f6b6457e060405160405180910390a35050565b611c6981604051602401611be79190612a4a565b6040516020818303038152906040527f41304fac000000000000000000000000000000000000000000000000000000007bffffffffffffffffffffffffffffffffffffffffffffffffffffffff19166020820180517bffffffffffffffffffffffffffffffffffffffffffffffffffffffff83818316178352505050506120ac565b50565b8173ffffffffffffffffffffffffffffffffffffffff168373ffffffffffffffffffffffffffffffffffffffff1603611cda576040517f08c379a0000000000000000000000000000000000000000000000000000000008152600401611cd190614427565b60405180910390fd5b80606a60008573ffffffffffffffffffffffffffffffffffffffff1673ffffffffffffffffffffffffffffffffffffffff16815260200190815260200160002060008473ffffffffffffffffffffffffffffffffffffffff1673ffffffffffffffffffffffffffffffffffffffff16815260200190815260200160002060006101000a81548160ff0219169083151502179055508173ffffffffffffffffffffffffffffffffffffffff168373ffffffffffffffffffffffffffffffffffffffff167f17307eab39ab6107e8899845ad3d59bd9653f200f220920489ca2b5937696c3183604051611dcb919061299f565b60405180910390a3505050565b611de38484846115e1565b611def848484846120c6565b611e2e576040517f08c379a0000000000000000000000000000000000000000000000000000000008152600401611e25906144b9565b60405180910390fd5b50505050565b606060006040518060600160405280602881526020016149466028913990506000611e5e3061224d565b90508181604051602001611e73929190614525565b6040516020818303038152906040529250505090565b606060006001611e988461227a565b01905060008167ffffffffffffffff811115611eb757611eb6612ba1565b5b6040519080825280601f01601f191660200182016040528015611ee95781602001600182028036833780820191505090505b509050600082602001820190505b600115611f4c578080600190039150507f3031323334353637383961626364656600000000000000000000000000000000600a86061a8153600a8581611f4057611f3f614554565b5b04945060008503611ef7575b819350505050919050565b611f6160fb6123cd565b6000611f6d60fb611f7d565b9050611f7982826123e3565b5050565b600081600001549050919050565b60008073ffffffffffffffffffffffffffffffffffffffff16611fad83611a52565b73ffffffffffffffffffffffffffffffffffffffff1614159050919050565b50505050565b50505050565b600060019054906101000a900460ff16612027576040517f08c379a000000000000000000000000000000000000000000000000000000000815260040161201e90614303565b60405180910390fd5b61203761203261148b565b611b0d565b565b600060019054906101000a900460ff16612088576040517f08c379a000000000000000000000000000000000000000000000000000000000815260040161207f90614303565b60405180910390fd5b81606590816120979190614583565b5080606690816120a79190614583565b505050565b6120c3816120bb612401612422565b63ffffffff16565b50565b60006120e78473ffffffffffffffffffffffffffffffffffffffff166118da565b15612240578373ffffffffffffffffffffffffffffffffffffffff1663150b7a0261211061148b565b8786866040518563ffffffff1660e01b815260040161213294939291906146aa565b6020604051808303816000875af192505050801561216e57506040513d601f19601f8201168201806040525081019061216b919061470b565b60015b6121f0573d806000811461219e576040519150601f19603f3d011682016040523d82523d6000602084013e6121a3565b606091505b5060008151036121e8576040517f08c379a00000000000000000000000000000000000000000000000000000000081526004016121df906144b9565b60405180910390fd5b805181602001fd5b63150b7a0260e01b7bffffffffffffffffffffffffffffffffffffffffffffffffffffffff1916817bffffffffffffffffffffffffffffffffffffffffffffffffffffffff191614915050612245565b600190505b949350505050565b60606122738273ffffffffffffffffffffffffffffffffffffffff16601460ff1661242d565b9050919050565b600080600090507a184f03e93ff9f4daa797ed6e38ed64bf6a1f01000000000000000083106122d8577a184f03e93ff9f4daa797ed6e38ed64bf6a1f01000000000000000083816122ce576122cd614554565b5b0492506040810190505b6d04ee2d6d415b85acef81000000008310612315576d04ee2d6d415b85acef8100000000838161230b5761230a614554565b5b0492506020810190505b662386f26fc10000831061234457662386f26fc10000838161233a57612339614554565b5b0492506010810190505b6305f5e100831061236d576305f5e100838161236357612362614554565b5b0492506008810190505b612710831061239257612710838161238857612387614554565b5b0492506004810190505b606483106123b557606483816123ab576123aa614554565b5b0492506002810190505b600a83106123c4576001810190505b80915050919050565b6001816000016000828254019250508190555050565b6123fd828260405180602001604052806000815250612669565b5050565b60006a636f6e736f6c652e6c6f679050600080835160208501845afa505050565b6128e1819050919050565b6060600060028360026124409190614738565b61244a919061477a565b67ffffffffffffffff81111561246357612462612ba1565b5b6040519080825280601f01601f1916602001820160405280156124955781602001600182028036833780820191505090505b5090507f3000000000000000000000000000000000000000000000000000000000000000816000815181106124cd576124cc6136fe565b5b60200101907effffffffffffffffffffffffffffffffffffffffffffffffffffffffffffff1916908160001a9053507f780000000000000000000000000000000000000000000000000000000000000081600181518110612531576125306136fe565b5b60200101907effffffffffffffffffffffffffffffffffffffffffffffffffffffffffffff1916908160001a905350600060018460026125719190614738565b61257b919061477a565b90505b600181111561261b577f3031323334353637383961626364656600000000000000000000000000000000600f8616601081106125bd576125bc6136fe565b5b1a60f81b8282815181106125d4576125d36136fe565b5b60200101907effffffffffffffffffffffffffffffffffffffffffffffffffffffffffffff1916908160001a905350600485901c9450806126149061411b565b905061257e565b506000841461265f576040517f08c379a0000000000000000000000000000000000000000000000000000000008152600401612656906147fa565b60405180910390fd5b8091505092915050565b61267383836126c4565b61268060008484846120c6565b6126bf576040517f08c379a00000000000000000000000000000000000000000000000000000000081526004016126b6906144b9565b60405180910390fd5b505050565b600073ffffffffffffffffffffffffffffffffffffffff168273ffffffffffffffffffffffffffffffffffffffff1603612733576040517f08c379a000000000000000000000000000000000000000000000000000000000815260040161272a90614866565b60405180910390fd5b61273c81611f8b565b1561277c576040517f08c379a0000000000000000000000000000000000000000000000000000000008152600401612773906148d2565b60405180910390fd5b61278a600083836001611fcc565b61279381611f8b565b156127d3576040517f08c379a00000000000000000000000000000000000000000000000000000000081526004016127ca906148d2565b60405180910390fd5b6001606860008473ffffffffffffffffffffffffffffffffffffffff1673ffffffffffffffffffffffffffffffffffffffff16815260200190815260200160002060008282540192505081905550816067600083815260200190815260200160002060006101000a81548173ffffffffffffffffffffffffffffffffffffffff021916908373ffffffffffffffffffffffffffffffffffffffff160217905550808273ffffffffffffffffffffffffffffffffffffffff16600073ffffffffffffffffffffffffffffffffffffffff167fddf252ad1be2c89b69c2b068fc378daa952ba7f163c4a11628f55a4df523b3ef60405160405180910390a46128dd600083836001611fd2565b5050565b6128e96148f2565b565b6000604051905090565b600080fd5b600080fd5b60007fffffffff0000000000000000000000000000000000000000000000000000000082169050919050565b612934816128ff565b811461293f57600080fd5b50565b6000813590506129518161292b565b92915050565b60006020828403121561296d5761296c6128f5565b5b600061297b84828501612942565b91505092915050565b60008115159050919050565b61299981612984565b82525050565b60006020820190506129b46000830184612990565b92915050565b600081519050919050565b600082825260208201905092915050565b60005b838110156129f45780820151818401526020810190506129d9565b60008484015250505050565b6000601f19601f8301169050919050565b6000612a1c826129ba565b612a2681856129c5565b9350612a368185602086016129d6565b612a3f81612a00565b840191505092915050565b60006020820190508181036000830152612a648184612a11565b905092915050565b6000819050919050565b612a7f81612a6c565b8114612a8a57600080fd5b50565b600081359050612a9c81612a76565b92915050565b600060208284031215612ab857612ab76128f5565b5b6000612ac684828501612a8d565b91505092915050565b600073ffffffffffffffffffffffffffffffffffffffff82169050919050565b6000612afa82612acf565b9050919050565b612b0a81612aef565b82525050565b6000602082019050612b256000830184612b01565b92915050565b612b3481612aef565b8114612b3f57600080fd5b50565b600081359050612b5181612b2b565b92915050565b60008060408385031215612b6e57612b6d6128f5565b5b6000612b7c85828601612b42565b9250506020612b8d85828601612a8d565b9150509250929050565b600080fd5b600080fd5b7f4e487b7100000000000000000000000000000000000000000000000000000000600052604160045260246000fd5b612bd982612a00565b810181811067ffffffffffffffff82111715612bf857612bf7612ba1565b5b80604052505050565b6000612c0b6128eb565b9050612c178282612bd0565b919050565b600067ffffffffffffffff821115612c3757612c36612ba1565b5b612c4082612a00565b9050602081019050919050565b82818337600083830152505050565b6000612c6f612c6a84612c1c565b612c01565b905082815260208101848484011115612c8b57612c8a612b9c565b5b612c96848285612c4d565b509392505050565b600082601f830112612cb357612cb2612b97565b5b8135612cc3848260208601612c5c565b91505092915050565b60008060008060808587031215612ce657612ce56128f5565b5b6000612cf487828801612b42565b9450506020612d0587828801612b42565b9350506040612d1687828801612a8d565b925050606085013567ffffffffffffffff811115612d3757612d366128fa565b5b612d4387828801612c9e565b91505092959194509250565b612d58816128ff565b82525050565b6000602082019050612d736000830184612d4f565b92915050565b612d8281612a6c565b82525050565b6000612d9382612acf565b9050919050565b612da381612d88565b82525050565b6000606082019050612dbe6000830186612d79565b612dcb6020830185612d9a565b612dd86040830184612d79565b949350505050565b600080600060608486031215612df957612df86128f5565b5b6000612e0786828701612b42565b9350506020612e1886828701612b42565b9250506040612e2986828701612a8d565b9150509250925092565b600063ffffffff82169050919050565b612e4c81612e33565b82525050565b60006060820190508181036000830152612e6c8186612a11565b9050612e7b6020830185612e43565b612e886040830184612e43565b949350505050565b600067ffffffffffffffff821115612eab57612eaa612ba1565b5b612eb482612a00565b9050602081019050919050565b6000612ed4612ecf84612e90565b612c01565b905082815260208101848484011115612ef057612eef612b9c565b5b612efb848285612c4d565b509392505050565b600082601f830112612f1857612f17612b97565b5b8135612f28848260208601612ec1565b91505092915050565b600060208284031215612f4757612f466128f5565b5b600082013567ffffffffffffffff811115612f6557612f646128fa565b5b612f7184828501612f03565b91505092915050565b6000604082019050612f8f6000830185612d79565b612f9c6020830184612d79565b9392505050565b600067ffffffffffffffff821115612fbe57612fbd612ba1565b5b602082029050602081019050919050565b600080fd5b6000612fe7612fe284612fa3565b612c01565b9050808382526020820190506020840283018581111561300a57613009612fcf565b5b835b8181101561305157803567ffffffffffffffff81111561302f5761302e612b97565b5b80860161303c8982612f03565b8552602085019450505060208101905061300c565b5050509392505050565b600082601f8301126130705761306f612b97565b5b8135613080848260208601612fd4565b91505092915050565b600067ffffffffffffffff8211156130a4576130a3612ba1565b5b602082029050602081019050919050565b60006130c86130c384613089565b612c01565b905080838252602082019050602084028301858111156130eb576130ea612fcf565b5b835b8181101561311457806131008882612a8d565b8452602084019350506020810190506130ed565b5050509392505050565b600082601f83011261313357613132612b97565b5b81356131438482602086016130b5565b91505092915050565b600080600060608486031215613165576131646128f5565b5b600084013567ffffffffffffffff811115613183576131826128fa565b5b61318f8682870161305b565b935050602084013567ffffffffffffffff8111156131b0576131af6128fa565b5b6131bc8682870161311e565b925050604084013567ffffffffffffffff8111156131dd576131dc6128fa565b5b6131e98682870161311e565b9150509250925092565b6000806040838503121561320a576132096128f5565b5b600083013567ffffffffffffffff811115613228576132276128fa565b5b61323485828601612f03565b925050602083013567ffffffffffffffff811115613255576132546128fa565b5b61326185828601612f03565b9150509250929050565b600060208284031215613281576132806128f5565b5b600061328f84828501612b42565b91505092915050565b60006020820190506132ad6000830184612d79565b92915050565b600080fd5b60008083601f8401126132ce576132cd612b97565b5b8235905067ffffffffffffffff8111156132eb576132ea6132b3565b5b60208301915083600182028301111561330757613306612fcf565b5b9250929050565b60008060008060608587031215613328576133276128f5565b5b600061333687828801612a8d565b945050602061334787828801612a8d565b935050604085013567ffffffffffffffff811115613368576133676128fa565b5b613374878288016132b8565b925092505092959194509250565b600080fd5b60006060828403121561339d5761339c613382565b5b81905092915050565b6000602082840312156133bc576133bb6128f5565b5b600082013567ffffffffffffffff8111156133da576133d96128fa565b5b6133e684828501613387565b91505092915050565b6133f881612984565b811461340357600080fd5b50565b600081359050613415816133ef565b92915050565b60008060408385031215613432576134316128f5565b5b600061344085828601612b42565b925050602061345185828601613406565b9150509250929050565b60008060408385031215613472576134716128f5565b5b600061348085828601612b42565b925050602061349185828601612b42565b9150509250929050565b600080602083850312156134b2576134b16128f5565b5b600083013567ffffffffffffffff8111156134d0576134cf6128fa565b5b6134dc858286016132b8565b92509250509250929050565b7f4e487b7100000000000000000000000000000000000000000000000000000000600052602260045260246000fd5b6000600282049050600182168061352f57607f821691505b602082108103613542576135416134e8565b5b50919050565b7f4552433732313a20617070726f76616c20746f2063757272656e74206f776e6560008201527f7200000000000000000000000000000000000000000000000000000000000000602082015250565b60006135a46021836129c5565b91506135af82613548565b604082019050919050565b600060208201905081810360008301526135d381613597565b9050919050565b7f4552433732313a20617070726f76652063616c6c6572206973206e6f7420746f60008201527f6b656e206f776e6572206f7220617070726f76656420666f7220616c6c000000602082015250565b6000613636603d836129c5565b9150613641826135da565b604082019050919050565b6000602082019050818103600083015261366581613629565b9050919050565b7f4552433732313a2063616c6c6572206973206e6f7420746f6b656e206f776e6560008201527f72206f7220617070726f76656400000000000000000000000000000000000000602082015250565b60006136c8602d836129c5565b91506136d38261366c565b604082019050919050565b600060208201905081810360008301526136f7816136bb565b9050919050565b7f4e487b7100000000000000000000000000000000000000000000000000000000600052603260045260246000fd5b600081905092915050565b6000613743826129ba565b61374d818561372d565b935061375d8185602086016129d6565b80840191505092915050565b60006137758284613738565b915081905092915050565b7f4e487b7100000000000000000000000000000000000000000000000000000000600052601160045260246000fd5b60006137ba82612a6c565b91507fffffffffffffffffffffffffffffffffffffffffffffffffffffffffffffffff82036137ec576137eb613780565b5b600182019050919050565b7f496e697469616c697a61626c653a20636f6e747261637420697320616c72656160008201527f647920696e697469616c697a6564000000000000000000000000000000000000602082015250565b6000613853602e836129c5565b915061385e826137f7565b604082019050919050565b6000602082019050818103600083015261388281613846565b9050919050565b6000819050919050565b600060ff82169050919050565b6000819050919050565b60006138c56138c06138bb84613889565b6138a0565b613893565b9050919050565b6138d5816138aa565b82525050565b60006020820190506138f060008301846138cc565b92915050565b7f4552433732313a20696e76616c696420746f6b656e2049440000000000000000600082015250565b600061392c6018836129c5565b9150613937826138f6565b602082019050919050565b6000602082019050818103600083015261395b8161391f565b9050919050565b7f4552433732313a2061646472657373207a65726f206973206e6f74206120766160008201527f6c6964206f776e65720000000000000000000000000000000000000000000000602082015250565b60006139be6029836129c5565b91506139c982613962565b604082019050919050565b600060208201905081810360008301526139ed816139b1565b9050919050565b6000613a00838561372d565b9350613a0d838584612c4d565b82840190509392505050565b6000613a268284866139f4565b91508190509392505050565b7f43696a656e612070726570726f64616a65206e6520736d696a6520626974692060008201527f76656361206f64206f726967696e616c6e652063696a656e6520756c617a6e6960208201527f6365000000000000000000000000000000000000000000000000000000000000604082015250565b6000613ab46042836129c5565b9150613abf82613a32565b606082019050919050565b60006020820190508181036000830152613ae381613aa7565b9050919050565b600080fd5b600080fd5b600080fd5b60008083356001602003843603038112613b1657613b15613aea565b5b80840192508235915067ffffffffffffffff821115613b3857613b37613aef565b5b602083019250600182023603831315613b5457613b53613af4565b5b509250929050565b600082905092915050565b60008190508160005260206000209050919050565b60006020601f8301049050919050565b600082821b905092915050565b600060088302613bc97fffffffffffffffffffffffffffffffffffffffffffffffffffffffffffffffff82613b8c565b613bd38683613b8c565b95508019841693508086168417925050509392505050565b6000613c06613c01613bfc84612a6c565b6138a0565b612a6c565b9050919050565b6000819050919050565b613c2083613beb565b613c34613c2c82613c0d565b848454613b99565b825550505050565b600090565b613c49613c3c565b613c54818484613c17565b505050565b5b81811015613c7857613c6d600082613c41565b600181019050613c5a565b5050565b601f821115613cbd57613c8e81613b67565b613c9784613b7c565b81016020851015613ca6578190505b613cba613cb285613b7c565b830182613c59565b50505b505050565b600082821c905092915050565b6000613ce060001984600802613cc2565b1980831691505092915050565b6000613cf98383613ccf565b9150826002028217905092915050565b613d138383613b5c565b67ffffffffffffffff811115613d2c57613d2b612ba1565b5b613d368254613517565b613d41828285613c7c565b6000601f831160018114613d705760008415613d5e578287013590505b613d688582613ced565b865550613dd0565b601f198416613d7e86613b67565b60005b82811015613da657848901358255600182019150602085019450602081019050613d81565b86831015613dc35784890135613dbf601f891682613ccf565b8355505b6001600288020188555050505b50505050505050565b613de4838383613d09565b505050565b613df281612e33565b8114613dfd57600080fd5b50565b60008135613e0d81613de9565b80915050919050565b60008160001b9050919050565b600063ffffffff613e3384613e16565b9350801983169250808416831791505092915050565b6000613e64613e5f613e5a84612e33565b6138a0565b612e33565b9050919050565b6000819050919050565b613e7e82613e49565b613e91613e8a82613e6b565b8354613e23565b8255505050565b60008160201b9050919050565b600067ffffffff00000000613eb984613e98565b9350801983169250808416831791505092915050565b613ed882613e49565b613eeb613ee482613e6b565b8354613ea5565b8255505050565b6000810160008301613f048185613af9565b613f0f818386613dd9565b50505050600181016020830180613f2581613e00565b9050613f318184613e75565b505050600181016040830180613f4681613e00565b9050613f528184613ecf565b5050505050565b613f638282613ef2565b5050565b6000613f738285613738565b9150613f7f8284613738565b91508190509392505050565b7f4f776e61626c653a206e6577206f776e657220697320746865207a65726f206160008201527f6464726573730000000000000000000000000000000000000000000000000000602082015250565b6000613fe76026836129c5565b9150613ff282613f8b565b604082019050919050565b6000602082019050818103600083015261401681613fda565b9050919050565b7f556c617a6e6963652073752072617370726f64616e6500000000000000000000600082015250565b60006140536016836129c5565b915061405e8261401d565b602082019050919050565b6000602082019050818103600083015261408281614046565b9050919050565b7f4e65646f766f6c6a616e20697a6e6f73207a61206b75706e6a7520756c617a6e60008201527f6963650000000000000000000000000000000000000000000000000000000000602082015250565b60006140e56023836129c5565b91506140f082614089565b604082019050919050565b60006020820190508181036000830152614114816140d8565b9050919050565b600061412682612a6c565b91506000820361413957614138613780565b5b600182039050919050565b60006040820190506141596000830185612b01565b6141666020830184612d79565b9392505050565b7f4552433732313a207472616e736665722066726f6d20696e636f72726563742060008201527f6f776e6572000000000000000000000000000000000000000000000000000000602082015250565b60006141c96025836129c5565b91506141d48261416d565b604082019050919050565b600060208201905081810360008301526141f8816141bc565b9050919050565b7f4552433732313a207472616e7366657220746f20746865207a65726f2061646460008201527f7265737300000000000000000000000000000000000000000000000000000000602082015250565b600061425b6024836129c5565b9150614266826141ff565b604082019050919050565b6000602082019050818103600083015261428a8161424e565b9050919050565b7f496e697469616c697a61626c653a20636f6e7472616374206973206e6f74206960008201527f6e697469616c697a696e67000000000000000000000000000000000000000000602082015250565b60006142ed602b836129c5565b91506142f882614291565b604082019050919050565b6000602082019050818103600083015261431c816142e0565b9050919050565b6000606082019050818103600083015261433d8186612a11565b905081810360208301526143518185612a11565b905081810360408301526143658184612a11565b9050949350505050565b7f4f776e61626c653a2063616c6c6572206973206e6f7420746865206f776e6572600082015250565b60006143a56020836129c5565b91506143b08261436f565b602082019050919050565b600060208201905081810360008301526143d481614398565b9050919050565b7f4552433732313a20617070726f766520746f2063616c6c657200000000000000600082015250565b60006144116019836129c5565b915061441c826143db565b602082019050919050565b6000602082019050818103600083015261444081614404565b9050919050565b7f4552433732313a207472616e7366657220746f206e6f6e20455243373231526560008201527f63656976657220696d706c656d656e7465720000000000000000000000000000602082015250565b60006144a36032836129c5565b91506144ae82614447565b604082019050919050565b600060208201905081810360008301526144d281614496565b9050919050565b7f2f00000000000000000000000000000000000000000000000000000000000000600082015250565b600061450f60018361372d565b915061451a826144d9565b600182019050919050565b60006145318285613738565b915061453d8284613738565b915061454882614502565b91508190509392505050565b7f4e487b7100000000000000000000000000000000000000000000000000000000600052601260045260246000fd5b61458c826129ba565b67ffffffffffffffff8111156145a5576145a4612ba1565b5b6145af8254613517565b6145ba828285613c7c565b600060209050601f8311600181146145ed57600084156145db578287015190505b6145e58582613ced565b86555061464d565b601f1984166145fb86613b67565b60005b82811015614623578489015182556001820191506020850194506020810190506145fe565b86831015614640578489015161463c601f891682613ccf565b8355505b6001600288020188555050505b505050505050565b600081519050919050565b600082825260208201905092915050565b600061467c82614655565b6146868185614660565b93506146968185602086016129d6565b61469f81612a00565b840191505092915050565b60006080820190506146bf6000830187612b01565b6146cc6020830186612b01565b6146d96040830185612d79565b81810360608301526146eb8184614671565b905095945050505050565b6000815190506147058161292b565b92915050565b600060208284031215614721576147206128f5565b5b600061472f848285016146f6565b91505092915050565b600061474382612a6c565b915061474e83612a6c565b925082820261475c81612a6c565b9150828204841483151761477357614772613780565b5b5092915050565b600061478582612a6c565b915061479083612a6c565b92508282019050808211156147a8576147a7613780565b5b92915050565b7f537472696e67733a20686578206c656e67746820696e73756666696369656e74600082015250565b60006147e46020836129c5565b91506147ef826147ae565b602082019050919050565b60006020820190508181036000830152614813816147d7565b9050919050565b7f4552433732313a206d696e7420746f20746865207a65726f2061646472657373600082015250565b60006148506020836129c5565b915061485b8261481a565b602082019050919050565b6000602082019050818103600083015261487f81614843565b9050919050565b7f4552433732313a20746f6b656e20616c7265616479206d696e74656400000000600082015250565b60006148bc601c836129c5565b91506148c782614886565b602082019050919050565b600060208201905081810360008301526148eb816148af565b9050919050565b7f4e487b7100000000000000000000000000000000000000000000000000000000600052605160045260246000fdfe2573206e616d652073657276696365206465706c6f7965642e2053796d626f6c3a20257368747470733a2f2f73686f77737461727465722e6e65746c6966792e6170702f7469636b6574732fa26469706673582212205183c48f04ab3fec11d03e91183da1210ea1ceee89634992cebefd1c62eeca8c64736f6c63430008130033",
  "linkReferences": {},
  "deployedLinkReferences": {}
}